{
  "contractName": "User",
  "abi": [
    {
      "inputs": [],
      "stateMutability": "nonpayable",
      "type": "constructor"
    },
    {
      "inputs": [
        {
          "internalType": "string",
          "name": "",
          "type": "string"
        }
      ],
      "name": "movies",
      "outputs": [
        {
          "internalType": "string",
          "name": "id",
          "type": "string"
        },
        {
          "internalType": "string",
          "name": "title",
          "type": "string"
        },
        {
          "internalType": "string",
          "name": "description",
          "type": "string"
        },
        {
          "internalType": "uint256",
          "name": "releaseYear",
          "type": "uint256"
        },
        {
          "internalType": "uint256",
          "name": "averageRating",
          "type": "uint256"
        },
        {
          "internalType": "uint256",
          "name": "numberOfRatings",
          "type": "uint256"
        }
      ],
      "stateMutability": "view",
      "type": "function",
      "constant": true
    },
    {
      "inputs": [
        {
          "internalType": "address",
          "name": "",
          "type": "address"
        }
      ],
      "name": "wallets",
      "outputs": [
        {
          "internalType": "string",
          "name": "username",
          "type": "string"
        }
      ],
      "stateMutability": "view",
      "type": "function",
      "constant": true
    },
    {
      "inputs": [
        {
          "internalType": "address",
          "name": "wallet",
          "type": "address"
        },
        {
          "internalType": "string",
          "name": "username",
          "type": "string"
        }
      ],
      "name": "addUser",
      "outputs": [],
      "stateMutability": "nonpayable",
      "type": "function"
    },
    {
      "inputs": [
        {
          "internalType": "address",
          "name": "wallet",
          "type": "address"
        }
      ],
      "name": "getUsername",
      "outputs": [
        {
          "internalType": "string",
          "name": "",
          "type": "string"
        }
      ],
      "stateMutability": "view",
      "type": "function",
      "constant": true
    },
    {
      "inputs": [
        {
          "internalType": "address",
          "name": "wallet",
          "type": "address"
        },
        {
          "components": [
            {
              "internalType": "string",
              "name": "idMovie",
              "type": "string"
            },
            {
              "internalType": "uint256",
              "name": "rating",
              "type": "uint256"
            }
          ],
          "internalType": "struct User.Review",
          "name": "review",
          "type": "tuple"
        }
      ],
      "name": "addReview",
      "outputs": [],
      "stateMutability": "nonpayable",
      "type": "function"
    },
    {
      "inputs": [
        {
          "internalType": "address",
          "name": "wallet",
          "type": "address"
        },
        {
          "internalType": "string",
          "name": "idMovie",
          "type": "string"
        }
      ],
      "name": "addToWatchlist",
      "outputs": [],
      "stateMutability": "nonpayable",
      "type": "function"
    },
    {
      "inputs": [
        {
          "internalType": "address",
          "name": "wallet",
          "type": "address"
        },
        {
          "internalType": "string",
          "name": "idMovie",
          "type": "string"
        }
      ],
      "name": "removeFromWatchlist",
      "outputs": [],
      "stateMutability": "nonpayable",
      "type": "function"
    },
    {
      "inputs": [
        {
          "internalType": "address",
          "name": "wallet",
          "type": "address"
        }
      ],
      "name": "getWatchlist",
      "outputs": [
        {
          "components": [
            {
              "internalType": "string",
              "name": "id",
              "type": "string"
            },
            {
              "internalType": "string",
              "name": "title",
              "type": "string"
            },
            {
              "internalType": "string",
              "name": "description",
              "type": "string"
            },
            {
              "internalType": "uint256",
              "name": "releaseYear",
              "type": "uint256"
            },
            {
              "internalType": "uint256",
              "name": "averageRating",
              "type": "uint256"
            },
            {
              "internalType": "uint256",
              "name": "numberOfRatings",
              "type": "uint256"
            }
          ],
          "internalType": "struct User.Movie[]",
          "name": "",
          "type": "tuple[]"
        }
      ],
      "stateMutability": "view",
      "type": "function",
      "constant": true
    },
    {
      "inputs": [
        {
          "internalType": "address",
          "name": "wallet",
          "type": "address"
        }
      ],
      "name": "getReviews",
      "outputs": [
        {
          "components": [
            {
              "internalType": "string",
              "name": "idMovie",
              "type": "string"
            },
            {
              "internalType": "uint256",
              "name": "rating",
              "type": "uint256"
            }
          ],
          "internalType": "struct User.Review[]",
          "name": "",
          "type": "tuple[]"
        }
      ],
      "stateMutability": "view",
      "type": "function",
      "constant": true
    },
    {
      "inputs": [
        {
          "internalType": "string",
          "name": "movieId",
          "type": "string"
        }
      ],
      "name": "getReviewsForMovie",
      "outputs": [
        {
          "components": [
            {
              "internalType": "string",
              "name": "idMovie",
              "type": "string"
            },
            {
              "internalType": "uint256",
              "name": "rating",
              "type": "uint256"
            }
          ],
          "internalType": "struct User.Review[]",
          "name": "",
          "type": "tuple[]"
        }
      ],
      "stateMutability": "view",
      "type": "function",
      "constant": true
    },
    {
      "inputs": [
        {
          "internalType": "string",
          "name": "id",
          "type": "string"
        }
      ],
      "name": "getMovie",
      "outputs": [
        {
          "components": [
            {
              "internalType": "string",
              "name": "id",
              "type": "string"
            },
            {
              "internalType": "string",
              "name": "title",
              "type": "string"
            },
            {
              "internalType": "string",
              "name": "description",
              "type": "string"
            },
            {
              "internalType": "uint256",
              "name": "releaseYear",
              "type": "uint256"
            },
            {
              "internalType": "uint256",
              "name": "averageRating",
              "type": "uint256"
            },
            {
              "internalType": "uint256",
              "name": "numberOfRatings",
              "type": "uint256"
            }
          ],
          "internalType": "struct User.Movie",
          "name": "",
          "type": "tuple"
        }
      ],
      "stateMutability": "view",
      "type": "function",
      "constant": true
    },
    {
      "inputs": [],
      "name": "getAllMovies",
      "outputs": [
        {
          "components": [
            {
              "internalType": "string",
              "name": "id",
              "type": "string"
            },
            {
              "internalType": "string",
              "name": "title",
              "type": "string"
            },
            {
              "internalType": "string",
              "name": "description",
              "type": "string"
            },
            {
              "internalType": "uint256",
              "name": "releaseYear",
              "type": "uint256"
            },
            {
              "internalType": "uint256",
              "name": "averageRating",
              "type": "uint256"
            },
            {
              "internalType": "uint256",
              "name": "numberOfRatings",
              "type": "uint256"
            }
          ],
          "internalType": "struct User.Movie[]",
          "name": "",
          "type": "tuple[]"
        }
      ],
      "stateMutability": "view",
      "type": "function",
      "constant": true
    },
    {
      "inputs": [],
      "name": "getTopRated",
      "outputs": [
        {
          "components": [
            {
              "internalType": "string",
              "name": "id",
              "type": "string"
            },
            {
              "internalType": "string",
              "name": "title",
              "type": "string"
            },
            {
              "internalType": "string",
              "name": "description",
              "type": "string"
            },
            {
              "internalType": "uint256",
              "name": "releaseYear",
              "type": "uint256"
            },
            {
              "internalType": "uint256",
              "name": "averageRating",
              "type": "uint256"
            },
            {
              "internalType": "uint256",
              "name": "numberOfRatings",
              "type": "uint256"
            }
          ],
          "internalType": "struct User.Movie[]",
          "name": "",
          "type": "tuple[]"
        }
      ],
      "stateMutability": "view",
      "type": "function",
      "constant": true
    },
    {
      "inputs": [
        {
          "internalType": "string",
          "name": "idMovie",
          "type": "string"
        }
      ],
      "name": "getAverageRating",
      "outputs": [
        {
          "internalType": "uint256",
          "name": "",
          "type": "uint256"
        }
      ],
      "stateMutability": "view",
      "type": "function",
      "constant": true
    }
  ],
  "bytecode": "0x60806040523480156200001157600080fd5b506200010c6040518060400160405280600181526020017f31000000000000000000000000000000000000000000000000000000000000008152506040518060c001604052806040518060400160405280600181526020017f310000000000000000000000000000000000000000000000000000000000000081525081526020016040518060400160405280601881526020017f54686520536861777368616e6b20526564656d7074696f6e000000000000000081525081526020016040518060a001604052806076815260200162003e576076913981526020016107ca8152602001600a81526020016005815250620009c060201b60201c565b620002066040518060400160405280600181526020017f32000000000000000000000000000000000000000000000000000000000000008152506040518060c001604052806040518060400160405280600181526020017f320000000000000000000000000000000000000000000000000000000000000081525081526020016040518060400160405280600d81526020017f54686520476f646661746865720000000000000000000000000000000000000081525081526020016040518060a00160405280606e815260200162003cbf606e913981526020016107b4815260200160098152602001600a815250620009c060201b60201c565b620003006040518060400160405280600181526020017f33000000000000000000000000000000000000000000000000000000000000008152506040518060c001604052806040518060400160405280600181526020017f330000000000000000000000000000000000000000000000000000000000000081525081526020016040518060400160405280600f81526020017f546865204461726b204b6e69676874000000000000000000000000000000000081525081526020016040518060e0016040528060bd815260200162003fd460bd913981526020016107d88152602001600981526020016008815250620009c060201b60201c565b620003fa6040518060400160405280600181526020017f34000000000000000000000000000000000000000000000000000000000000008152506040518060c001604052806040518060400160405280600181526020017f340000000000000000000000000000000000000000000000000000000000000081525081526020016040518060400160405280600c81526020017f313220416e677279204d656e000000000000000000000000000000000000000081525081526020016040518060a0016040528060718152602001620040916071913981526020016107a58152602001600881526020016003815250620009c060201b60201c565b620004f46040518060400160405280600181526020017f35000000000000000000000000000000000000000000000000000000000000008152506040518060c001604052806040518060400160405280600181526020017f350000000000000000000000000000000000000000000000000000000000000081525081526020016040518060400160405280601081526020017f536368696e646c65722773204c6973740000000000000000000000000000000081525081526020016040518060e0016040528060b2815260200162003b8360b2913981526020016107c98152602001600881526020016005815250620009c060201b60201c565b620005d26040518060400160405280600181526020017f36000000000000000000000000000000000000000000000000000000000000008152506040518060c001604052806040518060400160405280600181526020017f360000000000000000000000000000000000000000000000000000000000000081525081526020016040518060600160405280602d815260200162003f5c602d913981526020016040518060c001604052806092815260200162003dc56092913981526020016107d38152602001600881526020016006815250620009c060201b60201c565b620006cc6040518060400160405280600181526020017f37000000000000000000000000000000000000000000000000000000000000008152506040518060c001604052806040518060400160405280600181526020017f370000000000000000000000000000000000000000000000000000000000000081525081526020016040518060400160405280600c81526020017f50756c702046696374696f6e000000000000000000000000000000000000000081525081526020016040518060c00160405280608f815260200162003ecd608f913981526020016107ca8152602001600881526020016006815250620009c060201b60201c565b620007c66040518060400160405280600181526020017f38000000000000000000000000000000000000000000000000000000000000008152506040518060c001604052806040518060400160405280600181526020017f380000000000000000000000000000000000000000000000000000000000000081525081526020016040518060400160405280601e81526020017f54686520476f6f642c207468652042616420616e64207468652055676c79000081525081526020016040518060c00160405280608a815260200162003c35608a913981526020016107ae8152602001600881526020016006815250620009c060201b60201c565b620008c06040518060400160405280600181526020017f39000000000000000000000000000000000000000000000000000000000000008152506040518060c001604052806040518060400160405280600181526020017f390000000000000000000000000000000000000000000000000000000000000081525081526020016040518060400160405280600c81526020017f466f72726573742047756d70000000000000000000000000000000000000000081525081526020016040518060800160405280604b815260200162003f89604b913981526020016107ca8152602001600881526020016006815250620009c060201b60201c565b620009ba6040518060400160405280600281526020017f31300000000000000000000000000000000000000000000000000000000000008152506040518060c001604052806040518060400160405280600281526020017f313000000000000000000000000000000000000000000000000000000000000081525081526020016040518060400160405280600981526020017f496e63657074696f6e000000000000000000000000000000000000000000000081525081526020016040518060c001604052806098815260200162003d2d6098913981526020016107da8152602001600881526020016006815250620009c060201b60201c565b62000c51565b80600283604051620009d3919062000bd4565b90815260200160405180910390206000820151816000019080519060200190620009ff92919062000aa1565b50602082015181600101908051906020019062000a1e92919062000aa1565b50604082015181600201908051906020019062000a3d92919062000aa1565b50606082015181600301556080820151816004015560a0820151816005015590505060038290806001815401808255809150506001900390600052602060002001600090919091909150908051906020019062000a9c92919062000aa1565b505050565b82805462000aaf9062000c1c565b90600052602060002090601f01602090048101928262000ad3576000855562000b1f565b82601f1062000aee57805160ff191683800117855562000b1f565b8280016001018555821562000b1f579182015b8281111562000b1e57825182559160200191906001019062000b01565b5b50905062000b2e919062000b32565b5090565b5b8082111562000b4d57600081600090555060010162000b33565b5090565b600081519050919050565b600081905092915050565b60005b8381101562000b8757808201518184015260208101905062000b6a565b8381111562000b97576000848401525b50505050565b600062000baa8262000b51565b62000bb6818562000b5c565b935062000bc881856020860162000b67565b80840191505092915050565b600062000be2828462000b9d565b915081905092915050565b7f4e487b7100000000000000000000000000000000000000000000000000000000600052602260045260246000fd5b6000600282049050600182168062000c3557607f821691505b60208210810362000c4b5762000c4a62000bed565b5b50919050565b612f228062000c616000396000f3fe608060405234801561001057600080fd5b50600436106100ea5760003560e01c8063b1f6b18b1161008c578063d790f37611610066578063d790f3761461029a578063e16f0065146102b6578063e3aaf617146102d4578063feee2e4c14610304576100ea565b8063b1f6b18b1461021e578063ca3e22bd1461023a578063ce43c0321461026a576100ea565b80634ef5a017116100c85780634ef5a01714610170578063710a21cf146101a057806389b08f11146101be578063998863fd146101ee576100ea565b8063173759d6146100ef5780632d304caf1461011f5780634b68d43114610154575b600080fd5b610109600480360381019061010491906120d5565b610320565b604051610116919061230d565b60405180910390f35b61013960048036038101906101349190612464565b61089a565b60405161014b96959493929190612506565b60405180910390f35b61016e6004803603810190610169919061257c565b610a84565b005b61018a600480360381019061018591906120d5565b610b41565b60405161019791906126d7565b60405180910390f35b6101a8610c83565b6040516101b5919061230d565b60405180910390f35b6101d860048036038101906101d391906120d5565b610cb1565b6040516101e591906126f9565b60405180910390f35b61020860048036038101906102039190612464565b610d57565b604051610215919061271b565b60405180910390f35b6102386004803603810190610233919061257c565b610d87565b005b610254600480360381019061024f9190612464565b610ef2565b60405161026191906126d7565b60405180910390f35b610284600480360381019061027f91906120d5565b611136565b60405161029191906126f9565b60405180910390f35b6102b460048036038101906102af91906127d8565b61120f565b005b6102be61147e565b6040516102cb919061230d565b60405180910390f35b6102ee60048036038101906102e99190612464565b611740565b6040516102fb91906128cb565b60405180910390f35b61031e6004803603810190610319919061257c565b61194c565b005b606060008060008473ffffffffffffffffffffffffffffffffffffffff1673ffffffffffffffffffffffffffffffffffffffff16815260200190815260200160002060405180606001604052908160008201805461037d9061291c565b80601f01602080910402602001604051908101604052809291908181526020018280546103a99061291c565b80156103f65780601f106103cb576101008083540402835291602001916103f6565b820191906000526020600020905b8154815290600101906020018083116103d957829003601f168201915b5050505050815260200160018201805480602002602001604051908101604052809291908181526020016000905b828210156104f257838290600052602060002090600202016040518060400160405290816000820180546104579061291c565b80601f01602080910402602001604051908101604052809291908181526020018280546104839061291c565b80156104d05780601f106104a5576101008083540402835291602001916104d0565b820191906000526020600020905b8154815290600101906020018083116104b357829003601f168201915b5050505050815260200160018201548152505081526020019060010190610424565b50505050815260200160028201805480602002602001604051908101604052809291908181526020016000905b828210156105cb57838290600052602060002001805461053e9061291c565b80601f016020809104026020016040519081016040528092919081815260200182805461056a9061291c565b80156105b75780601f1061058c576101008083540402835291602001916105b7565b820191906000526020600020905b81548152906001019060200180831161059a57829003601f168201915b50505050508152602001906001019061051f565b505050508152505090506000816040015151905060008167ffffffffffffffff8111156105fb576105fa612339565b5b60405190808252806020026020018201604052801561063457816020015b610621611ebd565b8152602001906001900390816106195790505b50905060005b8281101561088e5760028460400151828151811061065b5761065a61294d565b5b602002602001015160405161067091906129b8565b90815260200160405180910390206040518060c00160405290816000820180546106999061291c565b80601f01602080910402602001604051908101604052809291908181526020018280546106c59061291c565b80156107125780601f106106e757610100808354040283529160200191610712565b820191906000526020600020905b8154815290600101906020018083116106f557829003601f168201915b5050505050815260200160018201805461072b9061291c565b80601f01602080910402602001604051908101604052809291908181526020018280546107579061291c565b80156107a45780601f10610779576101008083540402835291602001916107a4565b820191906000526020600020905b81548152906001019060200180831161078757829003601f168201915b505050505081526020016002820180546107bd9061291c565b80601f01602080910402602001604051908101604052809291908181526020018280546107e99061291c565b80156108365780601f1061080b57610100808354040283529160200191610836565b820191906000526020600020905b81548152906001019060200180831161081957829003601f168201915b5050505050815260200160038201548152602001600482015481526020016005820154815250508282815181106108705761086f61294d565b5b60200260200101819052508080610886906129fe565b91505061063a565b50809350505050919050565b6002818051602081018201805184825260208301602085012081835280955050505050506000915090508060000180546108d39061291c565b80601f01602080910402602001604051908101604052809291908181526020018280546108ff9061291c565b801561094c5780601f106109215761010080835404028352916020019161094c565b820191906000526020600020905b81548152906001019060200180831161092f57829003601f168201915b5050505050908060010180546109619061291c565b80601f016020809104026020016040519081016040528092919081815260200182805461098d9061291c565b80156109da5780601f106109af576101008083540402835291602001916109da565b820191906000526020600020905b8154815290600101906020018083116109bd57829003601f168201915b5050505050908060020180546109ef9061291c565b80601f0160208091040260200160405190810160405280929190818152602001828054610a1b9061291c565b8015610a685780601f10610a3d57610100808354040283529160200191610a68565b820191906000526020600020905b815481529060010190602001808311610a4b57829003601f168201915b5050505050908060030154908060040154908060050154905086565b806000808473ffffffffffffffffffffffffffffffffffffffff1673ffffffffffffffffffffffffffffffffffffffff1681526020019081526020016000206000019080519060200190610ad9929190611ef3565b506001829080600181540180825580915050600190039060005260206000200160009091909190916101000a81548173ffffffffffffffffffffffffffffffffffffffff021916908373ffffffffffffffffffffffffffffffffffffffff1602179055505050565b606060008060008473ffffffffffffffffffffffffffffffffffffffff1673ffffffffffffffffffffffffffffffffffffffff168152602001908152602001600020600101805480602002602001604051908101604052809291908181526020016000905b82821015610c745783829060005260206000209060020201604051806040016040529081600082018054610bd99061291c565b80601f0160208091040260200160405190810160405280929190818152602001828054610c059061291c565b8015610c525780601f10610c2757610100808354040283529160200191610c52565b820191906000526020600020905b815481529060010190602001808311610c3557829003601f168201915b5050505050815260200160018201548152505081526020019060010190610ba6565b50505050905080915050919050565b60606000610c8f61147e565b9050610caa81600060018451610ca59190612a46565b611a9d565b8091505090565b6000602052806000526040600020600091509050806000018054610cd49061291c565b80601f0160208091040260200160405190810160405280929190818152602001828054610d009061291c565b8015610d4d5780601f10610d2257610100808354040283529160200191610d4d565b820191906000526020600020905b815481529060010190602001808311610d3057829003601f168201915b5050505050905081565b600080600283604051610d6a91906129b8565b908152602001604051809103902060040154905080915050919050565b60008060008473ffffffffffffffffffffffffffffffffffffffff1673ffffffffffffffffffffffffffffffffffffffff168152602001908152602001600020905060005b8160010180549050811015610e3e578280519060200120826001018281548110610df957610df861294d565b5b9060005260206000209060020201600001604051610e179190612b19565b604051809103902003610e2b575050610eee565b8080610e36906129fe565b915050610dcc565b5060005b8160020180549050811015610ead578280519060200120826002018281548110610e6f57610e6e61294d565b5b90600052602060002001604051610e869190612b19565b604051809103902003610e9a575050610eee565b8080610ea5906129fe565b915050610e42565b508060020182908060018154018082558091505060019003906000526020600020016000909190919091509080519060200190610eeb929190611ef3565b50505b5050565b60608060005b60018054905081101561112c57600080600060018481548110610f1e57610f1d61294d565b5b9060005260206000200160009054906101000a900473ffffffffffffffffffffffffffffffffffffffff1673ffffffffffffffffffffffffffffffffffffffff1673ffffffffffffffffffffffffffffffffffffffff168152602001908152602001600020600101805480602002602001604051908101604052809291908181526020016000905b828210156110745783829060005260206000209060020201604051806040016040529081600082018054610fd99061291c565b80601f01602080910402602001604051908101604052809291908181526020018280546110059061291c565b80156110525780601f1061102757610100808354040283529160200191611052565b820191906000526020600020905b81548152906001019060200180831161103557829003601f168201915b5050505050815260200160018201548152505081526020019060010190610fa6565b50505050905060005b6001805490508110156111175781818151811061109d5761109c61294d565b5b60200260200101516000015180519060200120868051906020012003611104578181815181106110d0576110cf61294d565b5b602002602001015184600186516110e79190612a46565b815181106110f8576110f761294d565b5b60200260200101819052505b808061110f906129fe565b91505061107d565b50508080611124906129fe565b915050610ef8565b5080915050919050565b606060008060008473ffffffffffffffffffffffffffffffffffffffff1673ffffffffffffffffffffffffffffffffffffffff16815260200190815260200160002060000180546111869061291c565b80601f01602080910402602001604051908101604052809291908181526020018280546111b29061291c565b80156111ff5780601f106111d4576101008083540402835291602001916111ff565b820191906000526020600020905b8154815290600101906020018083116111e257829003601f168201915b5050505050905080915050919050565b60008060008473ffffffffffffffffffffffffffffffffffffffff1673ffffffffffffffffffffffffffffffffffffffff168152602001908152602001600020905060005b81600101805490508110156112ca578260000151805190602001208260010182815481106112855761128461294d565b5b90600052602060002090600202016000016040516112a39190612b19565b6040518091039020036112b757505061147a565b80806112c2906129fe565b915050611254565b50806001018290806001815401808255809150506001900390600052602060002090600202016000909190919091506000820151816000019080519060200190611315929190611ef3565b506020820151816001015550506002826000015160405161133691906129b8565b90815260200160405180910390206005016000815480929190611358906129fe565b919050555061136a8260000151611c42565b60005b81600201805490508110156114775782600001518051906020012082600201828154811061139e5761139d61294d565b5b906000526020600020016040516113b59190612b19565b6040518091039020036114645781600201600183600201805490506113da9190612a46565b815481106113eb576113ea61294d565b5b9060005260206000200182600201828154811061140b5761140a61294d565b5b906000526020600020019080546114219061291c565b61142c929190611f79565b508160020180548061144157611440612b30565b5b60019003818190600052602060002001600061145d9190612006565b9055611477565b808061146f906129fe565b91505061136d565b50505b5050565b6060600060038054905067ffffffffffffffff8111156114a1576114a0612339565b5b6040519080825280602002602001820160405280156114da57816020015b6114c7611ebd565b8152602001906001900390816114bf5790505b50905060005b600380549050811015611738576002600382815481106115035761150261294d565b5b9060005260206000200160405161151a9190612bf3565b90815260200160405180910390206040518060c00160405290816000820180546115439061291c565b80601f016020809104026020016040519081016040528092919081815260200182805461156f9061291c565b80156115bc5780601f10611591576101008083540402835291602001916115bc565b820191906000526020600020905b81548152906001019060200180831161159f57829003601f168201915b505050505081526020016001820180546115d59061291c565b80601f01602080910402602001604051908101604052809291908181526020018280546116019061291c565b801561164e5780601f106116235761010080835404028352916020019161164e565b820191906000526020600020905b81548152906001019060200180831161163157829003601f168201915b505050505081526020016002820180546116679061291c565b80601f01602080910402602001604051908101604052809291908181526020018280546116939061291c565b80156116e05780601f106116b5576101008083540402835291602001916116e0565b820191906000526020600020905b8154815290600101906020018083116116c357829003601f168201915b50505050508152602001600382015481526020016004820154815260200160058201548152505082828151811061171a5761171961294d565b5b60200260200101819052508080611730906129fe565b9150506114e0565b508091505090565b611748611ebd565b60028260405161175891906129b8565b90815260200160405180910390206040518060c00160405290816000820180546117819061291c565b80601f01602080910402602001604051908101604052809291908181526020018280546117ad9061291c565b80156117fa5780601f106117cf576101008083540402835291602001916117fa565b820191906000526020600020905b8154815290600101906020018083116117dd57829003601f168201915b505050505081526020016001820180546118139061291c565b80601f016020809104026020016040519081016040528092919081815260200182805461183f9061291c565b801561188c5780601f106118615761010080835404028352916020019161188c565b820191906000526020600020905b81548152906001019060200180831161186f57829003601f168201915b505050505081526020016002820180546118a59061291c565b80601f01602080910402602001604051908101604052809291908181526020018280546118d19061291c565b801561191e5780601f106118f35761010080835404028352916020019161191e565b820191906000526020600020905b81548152906001019060200180831161190157829003601f168201915b5050505050815260200160038201548152602001600482015481526020016005820154815250509050919050565b60008060008473ffffffffffffffffffffffffffffffffffffffff1673ffffffffffffffffffffffffffffffffffffffff168152602001908152602001600020905060005b8160020180549050811015611a975782805190602001208260020182815481106119be576119bd61294d565b5b906000526020600020016040516119d59190612b19565b604051809103902003611a845781600201600183600201805490506119fa9190612a46565b81548110611a0b57611a0a61294d565b5b90600052602060002001826002018281548110611a2b57611a2a61294d565b5b90600052602060002001908054611a419061291c565b611a4c929190611f79565b5081600201805480611a6157611a60612b30565b5b600190038181906000526020600020016000611a7d9190612006565b9055611a97565b8080611a8f906129fe565b915050611991565b50505050565b60008290506000829050808203611ab5575050611c3d565b60008560028686611ac69190612c14565b611ad09190612cd7565b86611adb9190612d41565b81518110611aec57611aeb61294d565b5b60200260200101516080015190505b818313611c11575b80868481518110611b1757611b1661294d565b5b6020026020010151608001511115611b3c578280611b3490612dd5565b935050611b03565b5b858281518110611b5057611b4f61294d565b5b602002602001015160800151811115611b76578180611b6e90612e1d565b925050611b3d565b818313611c0c57858281518110611b9057611b8f61294d565b5b6020026020010151868481518110611bab57611baa61294d565b5b6020026020010151878581518110611bc657611bc561294d565b5b60200260200101888581518110611be057611bdf61294d565b5b6020026020010182905282905250508280611bfa90612dd5565b9350508180611c0890612e1d565b9250505b611afb565b81851215611c2557611c24868684611a9d565b5b83831215611c3957611c38868486611a9d565b5b5050505b505050565b6000600282604051611c5491906129b8565b90815260200160405180910390206040518060c0016040529081600082018054611c7d9061291c565b80601f0160208091040260200160405190810160405280929190818152602001828054611ca99061291c565b8015611cf65780601f10611ccb57610100808354040283529160200191611cf6565b820191906000526020600020905b815481529060010190602001808311611cd957829003601f168201915b50505050508152602001600182018054611d0f9061291c565b80601f0160208091040260200160405190810160405280929190818152602001828054611d3b9061291c565b8015611d885780601f10611d5d57610100808354040283529160200191611d88565b820191906000526020600020905b815481529060010190602001808311611d6b57829003601f168201915b50505050508152602001600282018054611da19061291c565b80601f0160208091040260200160405190810160405280929190818152602001828054611dcd9061291c565b8015611e1a5780601f10611def57610100808354040283529160200191611e1a565b820191906000526020600020905b815481529060010190602001808311611dfd57829003601f168201915b50505050508152602001600382015481526020016004820154815260200160058201548152505090506000611e4e83610ef2565b9050600080600090505b8251811015611ea057828181518110611e7457611e7361294d565b5b60200260200101516020015182611e8b9190612e65565b91508080611e98906129fe565b915050611e58565b50815181611eae9190612ebb565b83608001818152505050505050565b6040518060c001604052806060815260200160608152602001606081526020016000815260200160008152602001600081525090565b828054611eff9061291c565b90600052602060002090601f016020900481019282611f215760008555611f68565b82601f10611f3a57805160ff1916838001178555611f68565b82800160010185558215611f68579182015b82811115611f67578251825591602001919060010190611f4c565b5b509050611f759190612046565b5090565b828054611f859061291c565b90600052602060002090601f016020900481019282611fa75760008555611ff5565b82601f10611fb85780548555611ff5565b82800160010185558215611ff557600052602060002091601f016020900482015b82811115611ff4578254825591600101919060010190611fd9565b5b5090506120029190612046565b5090565b5080546120129061291c565b6000825580601f106120245750612043565b601f0160209004906000526020600020908101906120429190612046565b5b50565b5b8082111561205f576000816000905550600101612047565b5090565b6000604051905090565b600080fd5b600080fd5b600073ffffffffffffffffffffffffffffffffffffffff82169050919050565b60006120a282612077565b9050919050565b6120b281612097565b81146120bd57600080fd5b50565b6000813590506120cf816120a9565b92915050565b6000602082840312156120eb576120ea61206d565b5b60006120f9848285016120c0565b91505092915050565b600081519050919050565b600082825260208201905092915050565b6000819050602082019050919050565b600081519050919050565b600082825260208201905092915050565b60005b8381101561216857808201518184015260208101905061214d565b83811115612177576000848401525b50505050565b6000601f19601f8301169050919050565b60006121998261212e565b6121a38185612139565b93506121b381856020860161214a565b6121bc8161217d565b840191505092915050565b6000819050919050565b6121da816121c7565b82525050565b600060c08301600083015184820360008601526121fd828261218e565b91505060208301518482036020860152612217828261218e565b91505060408301518482036040860152612231828261218e565b915050606083015161224660608601826121d1565b50608083015161225960808601826121d1565b5060a083015161226c60a08601826121d1565b508091505092915050565b600061228383836121e0565b905092915050565b6000602082019050919050565b60006122a382612102565b6122ad818561210d565b9350836020820285016122bf8561211e565b8060005b858110156122fb57848403895281516122dc8582612277565b94506122e78361228b565b925060208a019950506001810190506122c3565b50829750879550505050505092915050565b600060208201905081810360008301526123278184612298565b905092915050565b600080fd5b600080fd5b7f4e487b7100000000000000000000000000000000000000000000000000000000600052604160045260246000fd5b6123718261217d565b810181811067ffffffffffffffff821117156123905761238f612339565b5b80604052505050565b60006123a3612063565b90506123af8282612368565b919050565b600067ffffffffffffffff8211156123cf576123ce612339565b5b6123d88261217d565b9050602081019050919050565b82818337600083830152505050565b6000612407612402846123b4565b612399565b90508281526020810184848401111561242357612422612334565b5b61242e8482856123e5565b509392505050565b600082601f83011261244b5761244a61232f565b5b813561245b8482602086016123f4565b91505092915050565b60006020828403121561247a5761247961206d565b5b600082013567ffffffffffffffff81111561249857612497612072565b5b6124a484828501612436565b91505092915050565b600082825260208201905092915050565b60006124c98261212e565b6124d381856124ad565b93506124e381856020860161214a565b6124ec8161217d565b840191505092915050565b612500816121c7565b82525050565b600060c082019050818103600083015261252081896124be565b9050818103602083015261253481886124be565b9050818103604083015261254881876124be565b905061255760608301866124f7565b61256460808301856124f7565b61257160a08301846124f7565b979650505050505050565b600080604083850312156125935761259261206d565b5b60006125a1858286016120c0565b925050602083013567ffffffffffffffff8111156125c2576125c1612072565b5b6125ce85828601612436565b9150509250929050565b600081519050919050565b600082825260208201905092915050565b6000819050602082019050919050565b60006040830160008301518482036000860152612621828261218e565b915050602083015161263660208601826121d1565b508091505092915050565b600061264d8383612604565b905092915050565b6000602082019050919050565b600061266d826125d8565b61267781856125e3565b935083602082028501612689856125f4565b8060005b858110156126c557848403895281516126a68582612641565b94506126b183612655565b925060208a0199505060018101905061268d565b50829750879550505050505092915050565b600060208201905081810360008301526126f18184612662565b905092915050565b6000602082019050818103600083015261271381846124be565b905092915050565b600060208201905061273060008301846124f7565b92915050565b600080fd5b600080fd5b612749816121c7565b811461275457600080fd5b50565b60008135905061276681612740565b92915050565b60006040828403121561278257612781612736565b5b61278c6040612399565b9050600082013567ffffffffffffffff8111156127ac576127ab61273b565b5b6127b884828501612436565b60008301525060206127cc84828501612757565b60208301525092915050565b600080604083850312156127ef576127ee61206d565b5b60006127fd858286016120c0565b925050602083013567ffffffffffffffff81111561281e5761281d612072565b5b61282a8582860161276c565b9150509250929050565b600060c0830160008301518482036000860152612851828261218e565b9150506020830151848203602086015261286b828261218e565b91505060408301518482036040860152612885828261218e565b915050606083015161289a60608601826121d1565b5060808301516128ad60808601826121d1565b5060a08301516128c060a08601826121d1565b508091505092915050565b600060208201905081810360008301526128e58184612834565b905092915050565b7f4e487b7100000000000000000000000000000000000000000000000000000000600052602260045260246000fd5b6000600282049050600182168061293457607f821691505b602082108103612947576129466128ed565b5b50919050565b7f4e487b7100000000000000000000000000000000000000000000000000000000600052603260045260246000fd5b600081905092915050565b60006129928261212e565b61299c818561297c565b93506129ac81856020860161214a565b80840191505092915050565b60006129c48284612987565b915081905092915050565b7f4e487b7100000000000000000000000000000000000000000000000000000000600052601160045260246000fd5b6000612a09826121c7565b91507fffffffffffffffffffffffffffffffffffffffffffffffffffffffffffffffff8203612a3b57612a3a6129cf565b5b600182019050919050565b6000612a51826121c7565b9150612a5c836121c7565b925082821015612a6f57612a6e6129cf565b5b828203905092915050565b600081905092915050565b60008190508160005260206000209050919050565b60008154612aa78161291c565b612ab18186612a7a565b94506001821660008114612acc5760018114612add57612b10565b60ff19831686528186019350612b10565b612ae685612a85565b60005b83811015612b0857815481890152600182019150602081019050612ae9565b838801955050505b50505092915050565b6000612b258284612a9a565b915081905092915050565b7f4e487b7100000000000000000000000000000000000000000000000000000000600052603160045260246000fd5b60008190508160005260206000209050919050565b60008154612b818161291c565b612b8b818661297c565b94506001821660008114612ba65760018114612bb757612bea565b60ff19831686528186019350612bea565b612bc085612b5f565b60005b83811015612be257815481890152600182019150602081019050612bc3565b838801955050505b50505092915050565b6000612bff8284612b74565b915081905092915050565b6000819050919050565b6000612c1f82612c0a565b9150612c2a83612c0a565b9250827f800000000000000000000000000000000000000000000000000000000000000001821260008412151615612c6557612c646129cf565b5b827f7fffffffffffffffffffffffffffffffffffffffffffffffffffffffffffffff018213600084121615612c9d57612c9c6129cf565b5b828203905092915050565b7f4e487b7100000000000000000000000000000000000000000000000000000000600052601260045260246000fd5b6000612ce282612c0a565b9150612ced83612c0a565b925082612cfd57612cfc612ca8565b5b600160000383147f800000000000000000000000000000000000000000000000000000000000000083141615612d3657612d356129cf565b5b828205905092915050565b6000612d4c82612c0a565b9150612d5783612c0a565b9250817f7fffffffffffffffffffffffffffffffffffffffffffffffffffffffffffffff03831360008312151615612d9257612d916129cf565b5b817f8000000000000000000000000000000000000000000000000000000000000000038312600083121615612dca57612dc96129cf565b5b828201905092915050565b6000612de082612c0a565b91507f7fffffffffffffffffffffffffffffffffffffffffffffffffffffffffffffff8203612e1257612e116129cf565b5b600182019050919050565b6000612e2882612c0a565b91507f80000000000000000000000000000000000000000000000000000000000000008203612e5a57612e596129cf565b5b600182039050919050565b6000612e70826121c7565b9150612e7b836121c7565b9250827fffffffffffffffffffffffffffffffffffffffffffffffffffffffffffffffff03821115612eb057612eaf6129cf565b5b828201905092915050565b6000612ec6826121c7565b9150612ed1836121c7565b925082612ee157612ee0612ca8565b5b82820490509291505056fea264697066735822122028648cfa16e88d4356d21ca3ea859a1d4f7d1fc6ce49d93761a583d6b582d23264736f6c634300080d0033496e204765726d616e2d6f6363757069656420506f6c616e6420647572696e6720576f726c64205761722049492c20696e647573747269616c697374204f736b617220536368696e646c6572206772616475616c6c79206265636f6d657320636f6e6365726e656420666f7220686973204a657769736820776f726b666f726365206166746572207769746e657373696e67207468656972207065727365637574696f6e20627920746865204e617a69732e4120626f756e74792068756e74696e67207363616d206a6f696e732074776f206d656e20696e20616e20756e6561737920616c6c69616e636520616761696e7374206120746869726420696e2061207261636520746f2066696e64206120666f7274756e6520696e20676f6c642062757269656420696e20612072656d6f74652063656d65746572792e416e206f7267616e697a6564206372696d652064796e617374792773206167696e6720706174726961726368207472616e736665727320636f6e74726f6c206f662068697320636c616e64657374696e6520656d7069726520746f206869732072656c756374616e7420736f6e2e412074686965662077686f20737465616c7320636f72706f726174652073656372657473207468726f7567682074686520757365206f6620647265616d2d73686172696e6720746563686e6f6c6f677920697320676976656e2074686520696e7665727365207461736b206f6620706c616e74696e6720616e206964656120696e746f20746865206d696e64206f66206120432e452e4f2e47616e64616c6620616e6420417261676f726e206c6561642074686520576f726c64206f66204d656e20616761696e737420536175726f6e27732061726d7920746f2064726177206869732067617a652066726f6d2046726f646f20616e642053616d206173207468657920617070726f616368204d6f756e7420446f6f6d207769746820746865204f6e652052696e672e54776f20696d707269736f6e6564206d656e20626f6e64206f7665722061206e756d626572206f662079656172732c2066696e64696e6720736f6c61636520616e64206576656e7475616c20726564656d7074696f6e207468726f7567682061637473206f6620636f6d6d6f6e20646563656e63792e546865206c69766573206f662074776f206d6f62206869746d656e2c206120626f7865722c20612067616e677374657220616e642068697320776966652c20616e6420612070616972206f662064696e65722062616e6469747320696e7465727477696e6520696e20666f75722074616c6573206f662076696f6c656e636520616e6420726564656d7074696f6e2e546865204c6f7264206f66207468652052696e67733a205468652052657475726e206f6620746865204b696e675468652073746f7279206f662061206d616e20776974682061206c6f772049512077686f206163636f6d706c6973686564206772656174207468696e677320696e20686973206c6966652e5768656e20746865206d656e616365206b6e6f776e20617320746865204a6f6b657220777265616b73206861766f6320616e64206368616f73206f6e207468652070656f706c65206f6620476f7468616d2c204261746d616e206d75737420616363657074206f6e65206f66207468652067726561746573742070737963686f6c6f676963616c20616e6420706879736963616c207465737473206f6620686973206162696c69747920746f20666967687420696e6a7573746963652e41206a75727920686f6c646f757420617474656d70747320746f2070726576656e742061206d69736361727269616765206f66206a75737469636520627920666f7263696e672068697320636f6c6c65616775657320746f207265636f6e7369646572207468652065766964656e63652e",
  "immutableReferences": {},
  "source": "// SPDX-License-Identifier: MIT\n// Tells the Solidity compiler to compile only from v0.8.13 to v0.9.0\npragma solidity ^0.8.13;\n\n// This is just a simple example of a coin-like contract.\n// It is not ERC20 compatible and cannot be expected to talk to other\n// coin/token contracts.\n\ncontract User {\n\tstruct Review {\n\t\tstring idMovie;\n\t\tuint rating;\n\t}\n\n\tstruct UserInfo {\n\t\tstring username;\n\t\tReview[] reviews;\n\t\tstring[] idMoviesToWatch;\n\t}\n\n\tstruct Movie {\n\t\tstring id;\n\t\tstring title;\n\t\tstring description;\n\t\tuint releaseYear;\n\t\tuint averageRating;\n\t\tuint numberOfRatings;\n\t}\n\n\tconstructor() {\n        addMovie(\"1\", Movie(\"1\", \"The Shawshank Redemption\", \"Two imprisoned men bond over a number of years, finding solace and eventual redemption through acts of common decency.\", 1994, 10, 5));\n        addMovie(\"2\", Movie(\"2\", \"The Godfather\", \"An organized crime dynasty's aging patriarch transfers control of his clandestine empire to his reluctant son.\", 1972, 9, 10));\n        addMovie(\"3\", Movie(\"3\", \"The Dark Knight\", \"When the menace known as the Joker wreaks havoc and chaos on the people of Gotham, Batman must accept one of the greatest psychological and physical tests of his ability to fight injustice.\", 2008, 9, 8));\n        addMovie(\"4\", Movie(\"4\", \"12 Angry Men\", \"A jury holdout attempts to prevent a miscarriage of justice by forcing his colleagues to reconsider the evidence.\", 1957, 8, 3));\n        addMovie(\"5\", Movie(\"5\", \"Schindler's List\", \"In German-occupied Poland during World War II, industrialist Oskar Schindler gradually becomes concerned for his Jewish workforce after witnessing their persecution by the Nazis.\", 1993, 8, 5));\n    \taddMovie(\"6\", Movie(\"6\", \"The Lord of the Rings: The Return of the King\", \"Gandalf and Aragorn lead the World of Men against Sauron's army to draw his gaze from Frodo and Sam as they approach Mount Doom with the One Ring.\", 2003, 8, 6));\n        addMovie(\"7\", Movie(\"7\", \"Pulp Fiction\", \"The lives of two mob hitmen, a boxer, a gangster and his wife, and a pair of diner bandits intertwine in four tales of violence and redemption.\", 1994, 8, 6));\n        addMovie(\"8\", Movie(\"8\", \"The Good, the Bad and the Ugly\", \"A bounty hunting scam joins two men in an uneasy alliance against a third in a race to find a fortune in gold buried in a remote cemetery.\", 1966, 8, 6));\n        addMovie(\"9\", Movie(\"9\", \"Forrest Gump\", \"The story of a man with a low IQ who accomplished great things in his life.\", 1994, 8, 6));\n        addMovie(\"10\", Movie(\"10\", \"Inception\", \"A thief who steals corporate secrets through the use of dream-sharing technology is given the inverse task of planting an idea into the mind of a C.E.O.\", 2010, 8, 6));\n\t}\n\n\tmapping (address => UserInfo) public wallets;\n\taddress[] addressArray;\n\tmapping (string => Movie) public movies;\n\tstring[] idArray;\n\n\n\tfunction addUser(address wallet, string memory username) public { // modifi\n\t\twallets[wallet].username = username;\n\t\taddressArray.push(wallet);\n\t}\n\n\tfunction getUsername(address wallet) public view returns(string memory) {\n\t\tstring memory username = wallets[wallet].username;\n\n\t\treturn username;\n\t}\n\n\tfunction addReview(address wallet, Review memory review) public {\n\t\tUserInfo storage user = wallets[wallet];\n\n\t\tfor (uint i = 0; i < user.reviews.length; i++) {\n            if (keccak256(bytes(user.reviews[i].idMovie)) == keccak256(bytes(review.idMovie))) {\n                return;\n            }\n        }\n\n\t\tuser.reviews.push(review);\n\t\tmovies[review.idMovie].numberOfRatings++;\n\t\tcalculateRating(review.idMovie);\n\n\t\tfor (uint i = 0; i < user.idMoviesToWatch.length; i++) {\n\t\t\tif (keccak256(bytes(user.idMoviesToWatch[i])) == keccak256(bytes(review.idMovie))) {\n\t\t\t\tuser.idMoviesToWatch[i] = user.idMoviesToWatch[user.idMoviesToWatch.length - 1];\n\n\t\t\t\tuser.idMoviesToWatch.pop();\n\t\t\t\tbreak;\n\t\t\t}\n\t\t}\n\t}\n\n\tfunction addToWatchlist(address wallet, string memory idMovie) public {\n\t\tUserInfo storage user = wallets[wallet];\n        \n        for (uint i = 0; i < user.reviews.length; i++) {\n            if (keccak256(bytes(user.reviews[i].idMovie)) == keccak256(bytes(idMovie))) {\n                return;\n            }\n        }\n        \n        for (uint i = 0; i < user.idMoviesToWatch.length; i++) {\n            if (keccak256(bytes(user.idMoviesToWatch[i])) == keccak256(bytes(idMovie))) {\n                return;\n            }\n        }\n\n        user.idMoviesToWatch.push(idMovie);\n\t}\n\n\tfunction removeFromWatchlist(address wallet, string memory idMovie) public {\n\t\tUserInfo storage user = wallets[wallet];\n\t\tfor (uint i = 0; i < user.idMoviesToWatch.length; i++) {\n\t\t\tif (keccak256(bytes(user.idMoviesToWatch[i])) == keccak256(bytes(idMovie))) {\n\t\t\t\tuser.idMoviesToWatch[i] = user.idMoviesToWatch[user.idMoviesToWatch.length - 1];\n\t\t\t\tuser.idMoviesToWatch.pop();\n\t\t\t\tbreak;\n\t\t\t}\n\t\t}\n\t}\n\n\tfunction getWatchlist(address wallet) public view returns (Movie[] memory) {\n\t\tUserInfo memory user = wallets[wallet];\n\t\tuint256 watchlistLength = user.idMoviesToWatch.length;\n\t\tMovie[] memory watchlist = new Movie[](watchlistLength);\n\t\t\n\t\tfor (uint256 i = 0; i < watchlistLength; i++) {\n\t\t\twatchlist[i] = movies[user.idMoviesToWatch[i]];\n\t\t}\n\n    \treturn watchlist;\n\t}\n\n\n\tfunction getReviews(address wallet) public view returns(Review[] memory) {\n\t\tReview[] memory reviews = wallets[wallet].reviews;\n\n\t\treturn reviews;\n\t}\n\n\tfunction getReviewsForMovie(string memory movieId) public view returns(Review[] memory) {\n\t\tReview[] memory movieReviews;\n        for (uint256 i = 0; i < addressArray.length; i++) {\n\t\t\tReview[] memory reviews = wallets[addressArray[i]].reviews;\n\t\t\tfor (uint256 j = 0; j < addressArray.length; j++) {\n\t\t\t\tif (keccak256(bytes(movieId)) == keccak256(bytes(reviews[j].idMovie))) {\n\n\t\t\t\t\tmovieReviews[movieReviews.length - 1] = reviews[j];\n\t\t\t\t}\n\t\t\t}\n        }\n\t\treturn movieReviews;\n\t}\n\n\tfunction getMovie(string memory id) public view returns(Movie memory) {\n\t\treturn movies[id];\n\t}\n\n\tfunction getAllMovies() public view returns(Movie[] memory) {\n\t\tMovie[] memory allMovies = new Movie[](idArray.length);\n        for (uint256 i = 0; i < idArray.length; i++) {\n            allMovies[i] = movies[idArray[i]];\n        }\n\t\treturn allMovies;\n\t}\n\n\tfunction getTopRated() public view returns(Movie[] memory){\n\t\tMovie[] memory allMovies = getAllMovies();\n\n\t\tquickSort(allMovies, int(0), int(allMovies.length - 1));\n\n\t\treturn allMovies;\n\t}\n\n\n\tfunction getAverageRating(string memory idMovie) public view returns(uint) {\n\t\tuint averageRating = movies[idMovie].averageRating;\n\n\t\treturn averageRating;\n\t}\n\n\t// The functions below are private and are therefore only used within the context of the contract itself\n\n\tfunction calculateRating(string memory id) private view {\n\t\tMovie memory movie = movies[id];\n\t\tReview[] memory reviews = getReviewsForMovie(id);\n\t\tuint movieRatings;\n\n\t\tfor (uint256 i = 0; i < reviews.length; i++) {\n            movieRatings += reviews[i].rating;\n        }\n\n\t\tmovie.averageRating = movieRatings / reviews.length;\n\t}\n\n\tfunction addMovie(string memory id, Movie memory movie) private {\n\t\tmovies[id] = movie;\n\t\tidArray.push(id);\n\t}\n\n\tfunction deleteMovie(string memory id) private {\n\t\tdelete(movies[id]);\n\t\t    for (uint i = 0; i < idArray.length; i++) {\n\t\t\t\tif (keccak256(bytes(idArray[i])) == keccak256(bytes(id))) {\n\t\t\t\t\tidArray[i] = idArray[idArray.length - 1];\n\t\t\t\t\tidArray.pop();\n\t\t\t\t\tbreak;\n            }\n        }\n\t}\n\n\tfunction quickSort(Movie[] memory arr, int left, int right) internal pure {\n\t\tint i = left;\n\t\tint j = right;\n\t\tif (i == j) return;\n\t\tuint pivot = arr[uint(left + (right - left) / 2)].averageRating;\n\t\twhile (i <= j) {\n\t\t\twhile (arr[uint(i)].averageRating > pivot) i++;\n\t\t\twhile (pivot > arr[uint(j)].averageRating) j--;\n\t\t\tif (i <= j) {\n\t\t\t\t(arr[uint(i)], arr[uint(j)]) = (arr[uint(j)], arr[uint(i)]);\n\t\t\t\ti++;\n\t\t\t\tj--;\n\t\t\t}\n\t\t}\n\t\tif (left < j) quickSort(arr, left, j);\n\t\tif (i < right) quickSort(arr, i, right);\n\t}\n}\n",
  "sourcePath": "/home/mathieu/poly/hackathon/web3/web3-app/backend/contracts/User.sol",
  "compiler": {
    "name": "solc",
    "version": "0.8.13+commit.abaa5c0e.Emscripten.clang"
  },
  "schemaVersion": "3.4.16",
  "updatedAt": "2024-03-31T05:56:33.376Z",
  "networkType": "ethereum",
  "devdoc": {
    "kind": "dev",
    "methods": {},
    "version": 1
  },
  "userdoc": {
    "kind": "user",
    "methods": {},
    "version": 1
  }
}