{
  "contractName": "MetaCoin",
  "abi": [
    {
      "inputs": [],
      "stateMutability": "nonpayable",
      "type": "constructor"
    },
    {
      "anonymous": false,
      "inputs": [
        {
          "indexed": true,
          "internalType": "address",
          "name": "_from",
          "type": "address"
        },
        {
          "indexed": true,
          "internalType": "address",
          "name": "_to",
          "type": "address"
        },
        {
          "indexed": false,
          "internalType": "uint256",
          "name": "_value",
          "type": "uint256"
        }
      ],
      "name": "Transfer",
      "type": "event"
    },
    {
      "inputs": [
        {
          "internalType": "address",
          "name": "receiver",
          "type": "address"
        },
        {
          "internalType": "uint256",
          "name": "amount",
          "type": "uint256"
        }
      ],
      "name": "sendCoin",
      "outputs": [
        {
          "internalType": "bool",
          "name": "sufficient",
          "type": "bool"
        }
      ],
      "stateMutability": "nonpayable",
      "type": "function"
    },
    {
      "inputs": [
        {
          "internalType": "address",
          "name": "addr",
          "type": "address"
        }
      ],
      "name": "getBalanceInEth",
      "outputs": [
        {
          "internalType": "uint256",
          "name": "",
          "type": "uint256"
        }
      ],
      "stateMutability": "view",
      "type": "function",
      "constant": true
    },
    {
      "inputs": [
        {
          "internalType": "address",
          "name": "addr",
          "type": "address"
        }
      ],
      "name": "getBalance",
      "outputs": [
        {
          "internalType": "uint256",
          "name": "",
          "type": "uint256"
        }
      ],
      "stateMutability": "view",
      "type": "function",
      "constant": true
    },
    {
      "inputs": [],
      "name": "test",
      "outputs": [
        {
          "internalType": "string",
          "name": "",
          "type": "string"
        }
      ],
      "stateMutability": "pure",
      "type": "function",
      "constant": true
    }
  ],
  "bytecode": "0x608060405234801561001057600080fd5b506127106000803273ffffffffffffffffffffffffffffffffffffffff1673ffffffffffffffffffffffffffffffffffffffff16815260200190815260200160002081905550610750806100656000396000f3fe608060405234801561001057600080fd5b506004361061004c5760003560e01c80637bd703e81461005157806390b98a1114610081578063f8a8fd6d146100b1578063f8b2cb4f146100cf575b600080fd5b61006b600480360381019061006691906103e4565b6100ff565b604051610078919061042a565b60405180910390f35b61009b60048036038101906100969190610471565b61018b565b6040516100a891906104cc565b60405180910390f35b6100b96102f6565b6040516100c69190610580565b60405180910390f35b6100e960048036038101906100e491906103e4565b610339565b6040516100f6919061042a565b60405180910390f35b600073__ConvertLib____________________________6396e4ee3d61012484610339565b60026040518363ffffffff1660e01b81526004016101439291906105f6565b602060405180830381865af4158015610160573d6000803e3d6000fd5b505050506040513d601f19601f820116820180604052508101906101849190610634565b9050919050565b6000816000803373ffffffffffffffffffffffffffffffffffffffff1673ffffffffffffffffffffffffffffffffffffffff1681526020019081526020016000205410156101dc57600090506102f0565b816000803373ffffffffffffffffffffffffffffffffffffffff1673ffffffffffffffffffffffffffffffffffffffff168152602001908152602001600020600082825461022a9190610690565b92505081905550816000808573ffffffffffffffffffffffffffffffffffffffff1673ffffffffffffffffffffffffffffffffffffffff168152602001908152602001600020600082825461027f91906106c4565b925050819055508273ffffffffffffffffffffffffffffffffffffffff163373ffffffffffffffffffffffffffffffffffffffff167fddf252ad1be2c89b69c2b068fc378daa952ba7f163c4a11628f55a4df523b3ef846040516102e3919061042a565b60405180910390a3600190505b92915050565b606060006040518060400160405280601281526020017f6c6520746f757420666f6e6374696f6e6e65000000000000000000000000000081525090508091505090565b60008060008373ffffffffffffffffffffffffffffffffffffffff1673ffffffffffffffffffffffffffffffffffffffff168152602001908152602001600020549050919050565b600080fd5b600073ffffffffffffffffffffffffffffffffffffffff82169050919050565b60006103b182610386565b9050919050565b6103c1816103a6565b81146103cc57600080fd5b50565b6000813590506103de816103b8565b92915050565b6000602082840312156103fa576103f9610381565b5b6000610408848285016103cf565b91505092915050565b6000819050919050565b61042481610411565b82525050565b600060208201905061043f600083018461041b565b92915050565b61044e81610411565b811461045957600080fd5b50565b60008135905061046b81610445565b92915050565b6000806040838503121561048857610487610381565b5b6000610496858286016103cf565b92505060206104a78582860161045c565b9150509250929050565b60008115159050919050565b6104c6816104b1565b82525050565b60006020820190506104e160008301846104bd565b92915050565b600081519050919050565b600082825260208201905092915050565b60005b83811015610521578082015181840152602081019050610506565b83811115610530576000848401525b50505050565b6000601f19601f8301169050919050565b6000610552826104e7565b61055c81856104f2565b935061056c818560208601610503565b61057581610536565b840191505092915050565b6000602082019050818103600083015261059a8184610547565b905092915050565b6105ab81610411565b82525050565b6000819050919050565b6000819050919050565b60006105e06105db6105d6846105b1565b6105bb565b610411565b9050919050565b6105f0816105c5565b82525050565b600060408201905061060b60008301856105a2565b61061860208301846105e7565b9392505050565b60008151905061062e81610445565b92915050565b60006020828403121561064a57610649610381565b5b60006106588482850161061f565b91505092915050565b7f4e487b7100000000000000000000000000000000000000000000000000000000600052601160045260246000fd5b600061069b82610411565b91506106a683610411565b9250828210156106b9576106b8610661565b5b828203905092915050565b60006106cf82610411565b91506106da83610411565b9250827fffffffffffffffffffffffffffffffffffffffffffffffffffffffffffffffff0382111561070f5761070e610661565b5b82820190509291505056fea264697066735822122020edb124221854ea53ad9430fda64125c98eabbbf1bb66fe18c1d3b1691fcef764736f6c634300080d0033",
  "immutableReferences": {},
  "source": "// SPDX-License-Identifier: MIT\n// Tells the Solidity compiler to compile only from v0.8.13 to v0.9.0\npragma solidity ^0.8.13;\n\nimport \"./ConvertLib.sol\";\n\n// This is just a simple example of a coin-like contract.\n// It is not ERC20 compatible and cannot be expected to talk to other\n// coin/token contracts.\n\ncontract MetaCoin {\n\tmapping (address => uint) balances;\n\n\tevent Transfer(address indexed _from, address indexed _to, uint256 _value);\n\n\tconstructor() {\n\t\tbalances[tx.origin] = 10000;\n\t}\n\n\tfunction sendCoin(address receiver, uint amount) public returns(bool sufficient) {\n\t\tif (balances[msg.sender] < amount) return false;\n\t\tbalances[msg.sender] -= amount;\n\t\tbalances[receiver] += amount;\n\t\temit Transfer(msg.sender, receiver, amount);\n\t\treturn true;\n\t}\n\n\tfunction getBalanceInEth(address addr) public view returns(uint){\n\t\treturn ConvertLib.convert(getBalance(addr),2);\n\t}\n\n\tfunction getBalance(address addr) public view returns(uint) {\n\t\treturn balances[addr];\n\t}\n\n\tfunction test() public pure returns(string memory) {\n\t\tstring memory text = 'le tout fonctionne';\n\n\t\treturn text;\n\t}\n}\n",
  "sourcePath": "/home/mathieu/poly/hackathon/web3/web3-app/backend/contracts/MetaCoin.sol",
  "compiler": {
    "name": "solc",
    "version": "0.8.13+commit.abaa5c0e.Emscripten.clang"
  },
  "schemaVersion": "3.4.16",
  "updatedAt": "2024-03-30T01:32:30.682Z",
  "networkType": "ethereum",
  "devdoc": {
    "kind": "dev",
    "methods": {},
    "version": 1
  },
  "userdoc": {
    "kind": "user",
    "methods": {},
    "version": 1
  }
}