{
  "contractName": "Movies",
  "abi": [
    {
      "inputs": [
        {
          "internalType": "uint256",
          "name": "",
          "type": "uint256"
        }
      ],
      "name": "movies",
      "outputs": [
        {
          "internalType": "uint256",
          "name": "id",
          "type": "uint256"
        },
        {
          "internalType": "string",
          "name": "name",
          "type": "string"
        },
        {
          "internalType": "string",
          "name": "description",
          "type": "string"
        },
        {
          "internalType": "uint256",
          "name": "releaseYear",
          "type": "uint256"
        },
        {
          "internalType": "uint256",
          "name": "averageRating",
          "type": "uint256"
        },
        {
          "internalType": "uint256",
          "name": "numberOfRaitings",
          "type": "uint256"
        }
      ],
      "stateMutability": "view",
      "type": "function"
    },
    {
      "inputs": [
        {
          "internalType": "uint256",
          "name": "id",
          "type": "uint256"
        }
      ],
      "name": "getMovie",
      "outputs": [
        {
          "components": [
            {
              "internalType": "uint256",
              "name": "id",
              "type": "uint256"
            },
            {
              "internalType": "string",
              "name": "name",
              "type": "string"
            },
            {
              "internalType": "string",
              "name": "description",
              "type": "string"
            },
            {
              "internalType": "uint256",
              "name": "releaseYear",
              "type": "uint256"
            },
            {
              "internalType": "uint256",
              "name": "averageRating",
              "type": "uint256"
            },
            {
              "internalType": "uint256",
              "name": "numberOfRaitings",
              "type": "uint256"
            }
          ],
          "internalType": "struct Movies.Movie",
          "name": "",
          "type": "tuple"
        }
      ],
      "stateMutability": "view",
      "type": "function"
    },
    {
      "inputs": [],
      "name": "getAllMovies",
      "outputs": [
        {
          "components": [
            {
              "internalType": "uint256",
              "name": "id",
              "type": "uint256"
            },
            {
              "internalType": "string",
              "name": "name",
              "type": "string"
            },
            {
              "internalType": "string",
              "name": "description",
              "type": "string"
            },
            {
              "internalType": "uint256",
              "name": "releaseYear",
              "type": "uint256"
            },
            {
              "internalType": "uint256",
              "name": "averageRating",
              "type": "uint256"
            },
            {
              "internalType": "uint256",
              "name": "numberOfRaitings",
              "type": "uint256"
            }
          ],
          "internalType": "struct Movies.Movie[]",
          "name": "",
          "type": "tuple[]"
        }
      ],
      "stateMutability": "view",
      "type": "function"
    },
    {
      "inputs": [],
      "name": "getTopRated",
      "outputs": [
        {
          "components": [
            {
              "internalType": "uint256",
              "name": "id",
              "type": "uint256"
            },
            {
              "internalType": "string",
              "name": "name",
              "type": "string"
            },
            {
              "internalType": "string",
              "name": "description",
              "type": "string"
            },
            {
              "internalType": "uint256",
              "name": "releaseYear",
              "type": "uint256"
            },
            {
              "internalType": "uint256",
              "name": "averageRating",
              "type": "uint256"
            },
            {
              "internalType": "uint256",
              "name": "numberOfRaitings",
              "type": "uint256"
            }
          ],
          "internalType": "struct Movies.Movie[]",
          "name": "",
          "type": "tuple[]"
        }
      ],
      "stateMutability": "view",
      "type": "function"
    },
    {
      "inputs": [
        {
          "internalType": "uint256",
          "name": "id",
          "type": "uint256"
        },
        {
          "components": [
            {
              "internalType": "uint256",
              "name": "id",
              "type": "uint256"
            },
            {
              "internalType": "string",
              "name": "name",
              "type": "string"
            },
            {
              "internalType": "string",
              "name": "description",
              "type": "string"
            },
            {
              "internalType": "uint256",
              "name": "releaseYear",
              "type": "uint256"
            },
            {
              "internalType": "uint256",
              "name": "averageRating",
              "type": "uint256"
            },
            {
              "internalType": "uint256",
              "name": "numberOfRaitings",
              "type": "uint256"
            }
          ],
          "internalType": "struct Movies.Movie",
          "name": "movie",
          "type": "tuple"
        }
      ],
      "name": "addMovie",
      "outputs": [],
      "stateMutability": "nonpayable",
      "type": "function"
    },
    {
      "inputs": [
        {
          "internalType": "uint256",
          "name": "id",
          "type": "uint256"
        }
      ],
      "name": "deleteMovie",
      "outputs": [],
      "stateMutability": "nonpayable",
      "type": "function"
    }
  ],
  "bytecode": "0x608060405234801561001057600080fd5b506112f1806100206000396000f3fe608060405234801561001057600080fd5b50600436106100625760003560e01c8063179ffe7614610067578063404ebf6c146100975780636b4f6cb7146100cc5780636f56d381146100e8578063710a21cf14610104578063e16f006514610122575b600080fd5b610081600480360381019061007c9190610aa0565b610140565b60405161008e9190610c05565b60405180910390f35b6100b160048036038101906100ac9190610aa0565b6102b8565b6040516100c396959493929190610c80565b60405180910390f35b6100e660048036038101906100e19190610aa0565b610404565b005b61010260048036038101906100fd9190610f06565b610474565b005b61010c610508565b60405161011991906110b4565b60405180910390f35b61012a610732565b60405161013791906110b4565b60405180910390f35b61014861093d565b6000808381526020019081526020016000206040518060c00160405290816000820154815260200160018201805461017f90611105565b80601f01602080910402602001604051908101604052809291908181526020018280546101ab90611105565b80156101f85780601f106101cd576101008083540402835291602001916101f8565b820191906000526020600020905b8154815290600101906020018083116101db57829003601f168201915b5050505050815260200160028201805461021190611105565b80601f016020809104026020016040519081016040528092919081815260200182805461023d90611105565b801561028a5780601f1061025f5761010080835404028352916020019161028a565b820191906000526020600020905b81548152906001019060200180831161026d57829003601f168201915b5050505050815260200160038201548152602001600482015481526020016005820154815250509050919050565b60006020528060005260406000206000915090508060000154908060010180546102e190611105565b80601f016020809104026020016040519081016040528092919081815260200182805461030d90611105565b801561035a5780601f1061032f5761010080835404028352916020019161035a565b820191906000526020600020905b81548152906001019060200180831161033d57829003601f168201915b50505050509080600201805461036f90611105565b80601f016020809104026020016040519081016040528092919081815260200182805461039b90611105565b80156103e85780601f106103bd576101008083540402835291602001916103e8565b820191906000526020600020905b8154815290600101906020018083116103cb57829003601f168201915b5050505050908060030154908060040154908060050154905086565b60008082815260200190815260200160002060008082016000905560018201600061042f9190610973565b60028201600061043f9190610973565b60038201600090556004820160009055600582016000905550506001600081548092919061046c90611165565b919050555050565b806000808481526020019081526020016000206000820151816000015560208201518160010190805190602001906104ad9291906109b3565b5060408201518160020190805190602001906104ca9291906109b3565b50606082015181600301556080820151816004015560a08201518160050155905050600160008154809291906104ff9061118e565b91905055505050565b606080600080600090505b60015481101561055357600080828152602001908152602001600020600401548261053e91906111d6565b9150808061054b9061118e565b915050610513565b5060015481610562919061125b565b905060005b6001548110156107295760008082815260200190815260200160002060040154821015610716576000808281526020019081526020016000206040518060c0016040529081600082015481526020016001820180546105c590611105565b80601f01602080910402602001604051908101604052809291908181526020018280546105f190611105565b801561063e5780601f106106135761010080835404028352916020019161063e565b820191906000526020600020905b81548152906001019060200180831161062157829003601f168201915b5050505050815260200160028201805461065790611105565b80601f016020809104026020016040519081016040528092919081815260200182805461068390611105565b80156106d05780601f106106a5576101008083540402835291602001916106d0565b820191906000526020600020905b8154815290600101906020018083116106b357829003601f168201915b50505050508152602001600382015481526020016004820154815260200160058201548152505083828151811061070a5761070961128c565b5b60200260200101819052505b80806107219061118e565b915050610567565b50819250505090565b6060600060015467ffffffffffffffff81111561075257610751610cf4565b5b60405190808252806020026020018201604052801561078b57816020015b61077861093d565b8152602001906001900390816107705790505b50905060005b600154811015610935576000808281526020019081526020016000206040518060c0016040529081600082015481526020016001820180546107d290611105565b80601f01602080910402602001604051908101604052809291908181526020018280546107fe90611105565b801561084b5780601f106108205761010080835404028352916020019161084b565b820191906000526020600020905b81548152906001019060200180831161082e57829003601f168201915b5050505050815260200160028201805461086490611105565b80601f016020809104026020016040519081016040528092919081815260200182805461089090611105565b80156108dd5780601f106108b2576101008083540402835291602001916108dd565b820191906000526020600020905b8154815290600101906020018083116108c057829003601f168201915b5050505050815260200160038201548152602001600482015481526020016005820154815250508282815181106109175761091661128c565b5b6020026020010181905250808061092d9061118e565b915050610791565b508091505090565b6040518060c001604052806000815260200160608152602001606081526020016000815260200160008152602001600081525090565b50805461097f90611105565b6000825580601f1061099157506109b0565b601f0160209004906000526020600020908101906109af9190610a39565b5b50565b8280546109bf90611105565b90600052602060002090601f0160209004810192826109e15760008555610a28565b82601f106109fa57805160ff1916838001178555610a28565b82800160010185558215610a28579182015b82811115610a27578251825591602001919060010190610a0c565b5b509050610a359190610a39565b5090565b5b80821115610a52576000816000905550600101610a3a565b5090565b6000604051905090565b600080fd5b600080fd5b6000819050919050565b610a7d81610a6a565b8114610a8857600080fd5b50565b600081359050610a9a81610a74565b92915050565b600060208284031215610ab657610ab5610a60565b5b6000610ac484828501610a8b565b91505092915050565b610ad681610a6a565b82525050565b600081519050919050565b600082825260208201905092915050565b60005b83811015610b16578082015181840152602081019050610afb565b83811115610b25576000848401525b50505050565b6000601f19601f8301169050919050565b6000610b4782610adc565b610b518185610ae7565b9350610b61818560208601610af8565b610b6a81610b2b565b840191505092915050565b600060c083016000830151610b8d6000860182610acd565b5060208301518482036020860152610ba58282610b3c565b91505060408301518482036040860152610bbf8282610b3c565b9150506060830151610bd46060860182610acd565b506080830151610be76080860182610acd565b5060a0830151610bfa60a0860182610acd565b508091505092915050565b60006020820190508181036000830152610c1f8184610b75565b905092915050565b610c3081610a6a565b82525050565b600082825260208201905092915050565b6000610c5282610adc565b610c5c8185610c36565b9350610c6c818560208601610af8565b610c7581610b2b565b840191505092915050565b600060c082019050610c956000830189610c27565b8181036020830152610ca78188610c47565b90508181036040830152610cbb8187610c47565b9050610cca6060830186610c27565b610cd76080830185610c27565b610ce460a0830184610c27565b979650505050505050565b600080fd5b7f4e487b7100000000000000000000000000000000000000000000000000000000600052604160045260246000fd5b610d2c82610b2b565b810181811067ffffffffffffffff82111715610d4b57610d4a610cf4565b5b80604052505050565b6000610d5e610a56565b9050610d6a8282610d23565b919050565b600080fd5b600080fd5b600080fd5b600067ffffffffffffffff821115610d9957610d98610cf4565b5b610da282610b2b565b9050602081019050919050565b82818337600083830152505050565b6000610dd1610dcc84610d7e565b610d54565b905082815260208101848484011115610ded57610dec610d79565b5b610df8848285610daf565b509392505050565b600082601f830112610e1557610e14610d74565b5b8135610e25848260208601610dbe565b91505092915050565b600060c08284031215610e4457610e43610cef565b5b610e4e60c0610d54565b90506000610e5e84828501610a8b565b600083015250602082013567ffffffffffffffff811115610e8257610e81610d6f565b5b610e8e84828501610e00565b602083015250604082013567ffffffffffffffff811115610eb257610eb1610d6f565b5b610ebe84828501610e00565b6040830152506060610ed284828501610a8b565b6060830152506080610ee684828501610a8b565b60808301525060a0610efa84828501610a8b565b60a08301525092915050565b60008060408385031215610f1d57610f1c610a60565b5b6000610f2b85828601610a8b565b925050602083013567ffffffffffffffff811115610f4c57610f4b610a65565b5b610f5885828601610e2e565b9150509250929050565b600081519050919050565b600082825260208201905092915050565b6000819050602082019050919050565b600060c083016000830151610fa66000860182610acd565b5060208301518482036020860152610fbe8282610b3c565b91505060408301518482036040860152610fd88282610b3c565b9150506060830151610fed6060860182610acd565b5060808301516110006080860182610acd565b5060a083015161101360a0860182610acd565b508091505092915050565b600061102a8383610f8e565b905092915050565b6000602082019050919050565b600061104a82610f62565b6110548185610f6d565b93508360208202850161106685610f7e565b8060005b858110156110a25784840389528151611083858261101e565b945061108e83611032565b925060208a0199505060018101905061106a565b50829750879550505050505092915050565b600060208201905081810360008301526110ce818461103f565b905092915050565b7f4e487b7100000000000000000000000000000000000000000000000000000000600052602260045260246000fd5b6000600282049050600182168061111d57607f821691505b6020821081036111305761112f6110d6565b5b50919050565b7f4e487b7100000000000000000000000000000000000000000000000000000000600052601160045260246000fd5b600061117082610a6a565b91506000820361118357611182611136565b5b600182039050919050565b600061119982610a6a565b91507fffffffffffffffffffffffffffffffffffffffffffffffffffffffffffffffff82036111cb576111ca611136565b5b600182019050919050565b60006111e182610a6a565b91506111ec83610a6a565b9250827fffffffffffffffffffffffffffffffffffffffffffffffffffffffffffffffff0382111561122157611220611136565b5b828201905092915050565b7f4e487b7100000000000000000000000000000000000000000000000000000000600052601260045260246000fd5b600061126682610a6a565b915061127183610a6a565b9250826112815761128061122c565b5b828204905092915050565b7f4e487b7100000000000000000000000000000000000000000000000000000000600052603260045260246000fdfea26469706673582212200e203c61759a254d4c5085e48870c3047fb922aa9e63b16bfc16cc522ffbe14764736f6c634300080d0033",
  "immutableReferences": {},
  "source": "// SPDX-License-Identifier: MIT\r\n// Tells the Solidity compiler to compile only from v0.8.13 to v0.9.0\r\npragma solidity ^0.8.13;\r\n// This is just a simple example of a coin-like contract.\r\n// It is not ERC20 compatible and cannot be expected to talk to other\r\n// coin/token contracts.\r\n\r\ncontract Movies {\r\n\r\n\tstruct Movie {\r\n\t\tuint id;\r\n\t\tstring name;\r\n\t\tstring description;\r\n\t\tuint releaseYear;\r\n\t\tuint averageRating;\r\n\t\tuint numberOfRaitings;\r\n\t}\r\n\r\n\tmapping (uint => Movie) public movies;\r\n\tuint moviesLenght;\r\n\r\n\r\n\tfunction getMovie(uint id) public view returns(Movie memory) {\r\n\t\treturn movies[id];\r\n\t}\r\n\r\n\tfunction getAllMovies() public view returns(Movie[] memory) {\r\n\t\tMovie[] memory allMovies = new Movie[](moviesLenght);\r\n        for (uint256 i = 0; i < moviesLenght; i++) {\r\n            allMovies[i] = movies[i];\r\n        }\r\n\t\treturn allMovies;\r\n\t}\r\n\r\n\tfunction getTopRated() public view returns(Movie[] memory){\r\n\t\tMovie[] memory topRated;\r\n\t\tuint totalRatings;\r\n        for (uint256 i = 0; i < moviesLenght; i++) {\r\n            totalRatings += movies[i].averageRating;\r\n        }\r\n\t\ttotalRatings /=\tmoviesLenght;\r\n\t\tfor (uint256 i = 0; i < moviesLenght; i++) {\r\n            if(totalRatings < movies[i].averageRating){\r\n\t\t\t\ttopRated[i] = movies[i];\r\n\t\t\t}\r\n        }\r\n\t\treturn topRated;\r\n\t}\r\n\r\n\tfunction addMovie(uint id, Movie memory movie) public {\r\n\t\tmovies[id] = movie;\r\n\t\tmoviesLenght++;\r\n\t}\r\n\r\n\tfunction deleteMovie(uint id) public {\r\n\t\tdelete(movies[id]);\r\n\t\tmoviesLenght--;\r\n\t}\r\n}\r\n",
  "sourcePath": "C:\\Users\\Yassi\\Projects\\Hackathon\\web3-app\\backend\\contracts\\Movies.sol",
  "compiler": {
    "name": "solc",
    "version": "0.8.13+commit.abaa5c0e.Emscripten.clang"
  },
  "schemaVersion": "3.4.16",
  "updatedAt": "2024-03-30T21:44:19.016Z",
  "devdoc": {
    "kind": "dev",
    "methods": {},
    "version": 1
  },
  "userdoc": {
    "kind": "user",
    "methods": {},
    "version": 1
  }
}