{
  "contractName": "User",
  "abi": [
    {
      "inputs": [
        {
          "internalType": "address",
          "name": "",
          "type": "address"
        }
      ],
      "name": "wallets",
      "outputs": [
        {
          "internalType": "string",
          "name": "username",
          "type": "string"
        }
      ],
      "stateMutability": "view",
      "type": "function",
      "constant": true
    },
    {
      "inputs": [
        {
          "internalType": "address",
          "name": "wallet",
          "type": "address"
        },
        {
          "internalType": "string",
          "name": "username",
          "type": "string"
        }
      ],
      "name": "saveUser",
      "outputs": [],
      "stateMutability": "nonpayable",
      "type": "function"
    },
    {
      "inputs": [
        {
          "internalType": "address",
          "name": "wallet",
          "type": "address"
        }
      ],
      "name": "getUsername",
      "outputs": [
        {
          "internalType": "string",
          "name": "",
          "type": "string"
        }
      ],
      "stateMutability": "view",
      "type": "function",
      "constant": true
    }
  ],
  "bytecode": "0x608060405234801561001057600080fd5b506106bf806100206000396000f3fe608060405234801561001057600080fd5b50600436106100415760003560e01c806389b08f1114610046578063ce43c03214610076578063e258a5d3146100a6575b600080fd5b610060600480360381019061005b91906103b0565b6100c2565b60405161006d9190610476565b60405180910390f35b610090600480360381019061008b91906103b0565b610168565b60405161009d9190610476565b60405180910390f35b6100c060048036038101906100bb91906105cd565b610241565b005b60006020528060005260406000206000915090508060000180546100e590610658565b80601f016020809104026020016040519081016040528092919081815260200182805461011190610658565b801561015e5780601f106101335761010080835404028352916020019161015e565b820191906000526020600020905b81548152906001019060200180831161014157829003601f168201915b5050505050905081565b606060008060008473ffffffffffffffffffffffffffffffffffffffff1673ffffffffffffffffffffffffffffffffffffffff16815260200190815260200160002060000180546101b890610658565b80601f01602080910402602001604051908101604052809291908181526020018280546101e490610658565b80156102315780601f1061020657610100808354040283529160200191610231565b820191906000526020600020905b81548152906001019060200180831161021457829003601f168201915b5050505050905080915050919050565b806000808473ffffffffffffffffffffffffffffffffffffffff1673ffffffffffffffffffffffffffffffffffffffff168152602001908152602001600020600001908051906020019061029692919061029b565b505050565b8280546102a790610658565b90600052602060002090601f0160209004810192826102c95760008555610310565b82601f106102e257805160ff1916838001178555610310565b82800160010185558215610310579182015b8281111561030f5782518255916020019190600101906102f4565b5b50905061031d9190610321565b5090565b5b8082111561033a576000816000905550600101610322565b5090565b6000604051905090565b600080fd5b600080fd5b600073ffffffffffffffffffffffffffffffffffffffff82169050919050565b600061037d82610352565b9050919050565b61038d81610372565b811461039857600080fd5b50565b6000813590506103aa81610384565b92915050565b6000602082840312156103c6576103c5610348565b5b60006103d48482850161039b565b91505092915050565b600081519050919050565b600082825260208201905092915050565b60005b838110156104175780820151818401526020810190506103fc565b83811115610426576000848401525b50505050565b6000601f19601f8301169050919050565b6000610448826103dd565b61045281856103e8565b93506104628185602086016103f9565b61046b8161042c565b840191505092915050565b60006020820190508181036000830152610490818461043d565b905092915050565b600080fd5b600080fd5b7f4e487b7100000000000000000000000000000000000000000000000000000000600052604160045260246000fd5b6104da8261042c565b810181811067ffffffffffffffff821117156104f9576104f86104a2565b5b80604052505050565b600061050c61033e565b905061051882826104d1565b919050565b600067ffffffffffffffff821115610538576105376104a2565b5b6105418261042c565b9050602081019050919050565b82818337600083830152505050565b600061057061056b8461051d565b610502565b90508281526020810184848401111561058c5761058b61049d565b5b61059784828561054e565b509392505050565b600082601f8301126105b4576105b3610498565b5b81356105c484826020860161055d565b91505092915050565b600080604083850312156105e4576105e3610348565b5b60006105f28582860161039b565b925050602083013567ffffffffffffffff8111156106135761061261034d565b5b61061f8582860161059f565b9150509250929050565b7f4e487b7100000000000000000000000000000000000000000000000000000000600052602260045260246000fd5b6000600282049050600182168061067057607f821691505b60208210810361068357610682610629565b5b5091905056fea264697066735822122090a1786104021f683a41cf79bb6c2785fdb5d8c83df486be95d316df46dbedcc64736f6c634300080d0033",
  "immutableReferences": {},
  "source": "// SPDX-License-Identifier: MIT\n// Tells the Solidity compiler to compile only from v0.8.13 to v0.9.0\npragma solidity ^0.8.13;\n\n// This is just a simple example of a coin-like contract.\n// It is not ERC20 compatible and cannot be expected to talk to other\n// coin/token contracts.\n\ncontract User {\n\n\tstruct Review {\n\t\tstring mediaName;\n\t\tuint rating;\n\t}\n\n\tstruct UserInfo {\n\t\tstring username;\n\t\tReview[] reviews;\n\t}\n\n\tmapping (address => UserInfo) public wallets;\n\n\tfunction saveUser(address wallet, string memory username) public {\n\t\twallets[wallet].username = username;\n\t}\n\n\tfunction getUsername(address wallet) public view returns(string memory) {\n\t\tstring memory username = wallets[wallet].username;\n\n\t\treturn username;\n\t}\n}\n",
  "sourcePath": "C:\\Users\\Admin\\Documents\\Gnie_Logiciel\\Hackathon\\web3-app\\backend\\contracts\\User.sol",
  "compiler": {
    "name": "solc",
    "version": "0.8.13+commit.abaa5c0e.Emscripten.clang"
  },
  "schemaVersion": "3.4.16",
  "updatedAt": "2024-03-30T18:39:31.241Z",
  "networkType": "ethereum",
  "devdoc": {
    "kind": "dev",
    "methods": {},
    "version": 1
  },
  "userdoc": {
    "kind": "user",
    "methods": {},
    "version": 1
  }
}