{
  "contractName": "User",
  "abi": [
    {
      "inputs": [
        {
          "internalType": "address",
          "name": "",
          "type": "address"
        }
      ],
      "name": "wallets",
      "outputs": [
        {
          "internalType": "string",
          "name": "username",
          "type": "string"
        }
      ],
      "stateMutability": "view",
      "type": "function",
      "constant": true
    },
    {
      "inputs": [
        {
          "internalType": "address",
          "name": "wallet",
          "type": "address"
        },
        {
          "internalType": "string",
          "name": "username",
          "type": "string"
        }
      ],
      "name": "addUser",
      "outputs": [],
      "stateMutability": "nonpayable",
      "type": "function"
    },
    {
      "inputs": [
        {
          "internalType": "address",
          "name": "wallet",
          "type": "address"
        }
      ],
      "name": "getUsername",
      "outputs": [
        {
          "internalType": "string",
          "name": "",
          "type": "string"
        }
      ],
      "stateMutability": "view",
      "type": "function",
      "constant": true
    },
    {
      "inputs": [
        {
          "internalType": "address",
          "name": "wallet",
          "type": "address"
        },
        {
          "components": [
            {
              "internalType": "string",
              "name": "idMovie",
              "type": "string"
            },
            {
              "internalType": "uint256",
              "name": "rating",
              "type": "uint256"
            }
          ],
          "internalType": "struct User.Review",
          "name": "review",
          "type": "tuple"
        }
      ],
      "name": "addReview",
      "outputs": [],
      "stateMutability": "nonpayable",
      "type": "function"
    },
    {
      "inputs": [
        {
          "internalType": "address",
          "name": "wallet",
          "type": "address"
        },
        {
          "internalType": "string",
          "name": "idMovie",
          "type": "string"
        }
      ],
      "name": "addToWatchlist",
      "outputs": [],
      "stateMutability": "nonpayable",
      "type": "function"
    },
    {
      "inputs": [
        {
          "internalType": "address",
          "name": "wallet",
          "type": "address"
        }
      ],
      "name": "getWatchlist",
      "outputs": [
        {
          "internalType": "string[]",
          "name": "",
          "type": "string[]"
        }
      ],
      "stateMutability": "view",
      "type": "function",
      "constant": true
    },
    {
      "inputs": [
        {
          "internalType": "address",
          "name": "wallet",
          "type": "address"
        }
      ],
      "name": "getReviews",
      "outputs": [
        {
          "components": [
            {
              "internalType": "string",
              "name": "idMovie",
              "type": "string"
            },
            {
              "internalType": "uint256",
              "name": "rating",
              "type": "uint256"
            }
          ],
          "internalType": "struct User.Review[]",
          "name": "",
          "type": "tuple[]"
        }
      ],
      "stateMutability": "view",
      "type": "function",
      "constant": true
    }
  ],
  "bytecode": "0x608060405234801561001057600080fd5b50611379806100206000396000f3fe608060405234801561001057600080fd5b506004361061007d5760003560e01c806389b08f111161005b57806389b08f11146100fe578063b1f6b18b1461012e578063ce43c0321461014a578063d790f3761461017a5761007d565b8063173759d6146100825780634b68d431146100b25780634ef5a017146100ce575b600080fd5b61009c60048036038101906100979190610b45565b610196565b6040516100a99190610ccd565b60405180910390f35b6100cc60048036038101906100c79190610e24565b6102b6565b005b6100e860048036038101906100e39190610b45565b610310565b6040516100f59190610f98565b60405180910390f35b61011860048036038101906101139190610b45565b610452565b6040516101259190611004565b60405180910390f35b61014860048036038101906101439190610e24565b6104f8565b005b610164600480360381019061015f9190610b45565b610663565b6040516101719190611004565b60405180910390f35b610194600480360381019061018f91906110c8565b61073c565b005b606060008060008473ffffffffffffffffffffffffffffffffffffffff1673ffffffffffffffffffffffffffffffffffffffff168152602001908152602001600020600201805480602002602001604051908101604052809291908181526020016000905b828210156102a757838290600052602060002001805461021a90611153565b80601f016020809104026020016040519081016040528092919081815260200182805461024690611153565b80156102935780601f1061026857610100808354040283529160200191610293565b820191906000526020600020905b81548152906001019060200180831161027657829003601f168201915b5050505050815260200190600101906101fb565b50505050905080915050919050565b806000808473ffffffffffffffffffffffffffffffffffffffff1673ffffffffffffffffffffffffffffffffffffffff168152602001908152602001600020600001908051906020019061030b929190610963565b505050565b606060008060008473ffffffffffffffffffffffffffffffffffffffff1673ffffffffffffffffffffffffffffffffffffffff168152602001908152602001600020600101805480602002602001604051908101604052809291908181526020016000905b8282101561044357838290600052602060002090600202016040518060400160405290816000820180546103a890611153565b80601f01602080910402602001604051908101604052809291908181526020018280546103d490611153565b80156104215780601f106103f657610100808354040283529160200191610421565b820191906000526020600020905b81548152906001019060200180831161040457829003601f168201915b5050505050815260200160018201548152505081526020019060010190610375565b50505050905080915050919050565b600060205280600052604060002060009150905080600001805461047590611153565b80601f01602080910402602001604051908101604052809291908181526020018280546104a190611153565b80156104ee5780601f106104c3576101008083540402835291602001916104ee565b820191906000526020600020905b8154815290600101906020018083116104d157829003601f168201915b5050505050905081565b60008060008473ffffffffffffffffffffffffffffffffffffffff1673ffffffffffffffffffffffffffffffffffffffff168152602001908152602001600020905060005b81600101805490508110156105af57828051906020012082600101828154811061056a57610569611184565b5b90600052602060002090600202016000016040516105889190611252565b60405180910390200361059c57505061065f565b80806105a790611298565b91505061053d565b5060005b816002018054905081101561061e5782805190602001208260020182815481106105e0576105df611184565b5b906000526020600020016040516105f79190611252565b60405180910390200361060b57505061065f565b808061061690611298565b9150506105b3565b50806002018290806001815401808255809150506001900390600052602060002001600090919091909150908051906020019061065c929190610963565b50505b5050565b606060008060008473ffffffffffffffffffffffffffffffffffffffff1673ffffffffffffffffffffffffffffffffffffffff16815260200190815260200160002060000180546106b390611153565b80601f01602080910402602001604051908101604052809291908181526020018280546106df90611153565b801561072c5780601f106107015761010080835404028352916020019161072c565b820191906000526020600020905b81548152906001019060200180831161070f57829003601f168201915b5050505050905080915050919050565b60008060008473ffffffffffffffffffffffffffffffffffffffff1673ffffffffffffffffffffffffffffffffffffffff168152602001908152602001600020905060005b81600101805490508110156107f7578260000151805190602001208260010182815481106107b2576107b1611184565b5b90600052602060002090600202016000016040516107d09190611252565b6040518091039020036107e457505061095f565b80806107ef90611298565b915050610781565b50806001018290806001815401808255809150506001900390600052602060002090600202016000909190919091506000820151816000019080519060200190610842929190610963565b5060208201518160010155505060005b816002018054905081101561095c5782600001518051906020012082600201828154811061088357610882611184565b5b9060005260206000200160405161089a9190611252565b6040518091039020036109495781600201600183600201805490506108bf91906112e0565b815481106108d0576108cf611184565b5b906000526020600020018260020182815481106108f0576108ef611184565b5b9060005260206000200190805461090690611153565b6109119291906109e9565b508160020180548061092657610925611314565b5b6001900381819060005260206000200160006109429190610a76565b905561095c565b808061095490611298565b915050610852565b50505b5050565b82805461096f90611153565b90600052602060002090601f01602090048101928261099157600085556109d8565b82601f106109aa57805160ff19168380011785556109d8565b828001600101855582156109d8579182015b828111156109d75782518255916020019190600101906109bc565b5b5090506109e59190610ab6565b5090565b8280546109f590611153565b90600052602060002090601f016020900481019282610a175760008555610a65565b82601f10610a285780548555610a65565b82800160010185558215610a6557600052602060002091601f016020900482015b82811115610a64578254825591600101919060010190610a49565b5b509050610a729190610ab6565b5090565b508054610a8290611153565b6000825580601f10610a945750610ab3565b601f016020900490600052602060002090810190610ab29190610ab6565b5b50565b5b80821115610acf576000816000905550600101610ab7565b5090565b6000604051905090565b600080fd5b600080fd5b600073ffffffffffffffffffffffffffffffffffffffff82169050919050565b6000610b1282610ae7565b9050919050565b610b2281610b07565b8114610b2d57600080fd5b50565b600081359050610b3f81610b19565b92915050565b600060208284031215610b5b57610b5a610add565b5b6000610b6984828501610b30565b91505092915050565b600081519050919050565b600082825260208201905092915050565b6000819050602082019050919050565b600081519050919050565b600082825260208201905092915050565b60005b83811015610bd8578082015181840152602081019050610bbd565b83811115610be7576000848401525b50505050565b6000601f19601f8301169050919050565b6000610c0982610b9e565b610c138185610ba9565b9350610c23818560208601610bba565b610c2c81610bed565b840191505092915050565b6000610c438383610bfe565b905092915050565b6000602082019050919050565b6000610c6382610b72565b610c6d8185610b7d565b935083602082028501610c7f85610b8e565b8060005b85811015610cbb5784840389528151610c9c8582610c37565b9450610ca783610c4b565b925060208a01995050600181019050610c83565b50829750879550505050505092915050565b60006020820190508181036000830152610ce78184610c58565b905092915050565b600080fd5b600080fd5b7f4e487b7100000000000000000000000000000000000000000000000000000000600052604160045260246000fd5b610d3182610bed565b810181811067ffffffffffffffff82111715610d5057610d4f610cf9565b5b80604052505050565b6000610d63610ad3565b9050610d6f8282610d28565b919050565b600067ffffffffffffffff821115610d8f57610d8e610cf9565b5b610d9882610bed565b9050602081019050919050565b82818337600083830152505050565b6000610dc7610dc284610d74565b610d59565b905082815260208101848484011115610de357610de2610cf4565b5b610dee848285610da5565b509392505050565b600082601f830112610e0b57610e0a610cef565b5b8135610e1b848260208601610db4565b91505092915050565b60008060408385031215610e3b57610e3a610add565b5b6000610e4985828601610b30565b925050602083013567ffffffffffffffff811115610e6a57610e69610ae2565b5b610e7685828601610df6565b9150509250929050565b600081519050919050565b600082825260208201905092915050565b6000819050602082019050919050565b6000819050919050565b610ebf81610eac565b82525050565b60006040830160008301518482036000860152610ee28282610bfe565b9150506020830151610ef76020860182610eb6565b508091505092915050565b6000610f0e8383610ec5565b905092915050565b6000602082019050919050565b6000610f2e82610e80565b610f388185610e8b565b935083602082028501610f4a85610e9c565b8060005b85811015610f865784840389528151610f678582610f02565b9450610f7283610f16565b925060208a01995050600181019050610f4e565b50829750879550505050505092915050565b60006020820190508181036000830152610fb28184610f23565b905092915050565b600082825260208201905092915050565b6000610fd682610b9e565b610fe08185610fba565b9350610ff0818560208601610bba565b610ff981610bed565b840191505092915050565b6000602082019050818103600083015261101e8184610fcb565b905092915050565b600080fd5b600080fd5b61103981610eac565b811461104457600080fd5b50565b60008135905061105681611030565b92915050565b60006040828403121561107257611071611026565b5b61107c6040610d59565b9050600082013567ffffffffffffffff81111561109c5761109b61102b565b5b6110a884828501610df6565b60008301525060206110bc84828501611047565b60208301525092915050565b600080604083850312156110df576110de610add565b5b60006110ed85828601610b30565b925050602083013567ffffffffffffffff81111561110e5761110d610ae2565b5b61111a8582860161105c565b9150509250929050565b7f4e487b7100000000000000000000000000000000000000000000000000000000600052602260045260246000fd5b6000600282049050600182168061116b57607f821691505b60208210810361117e5761117d611124565b5b50919050565b7f4e487b7100000000000000000000000000000000000000000000000000000000600052603260045260246000fd5b600081905092915050565b60008190508160005260206000209050919050565b600081546111e081611153565b6111ea81866111b3565b94506001821660008114611205576001811461121657611249565b60ff19831686528186019350611249565b61121f856111be565b60005b8381101561124157815481890152600182019150602081019050611222565b838801955050505b50505092915050565b600061125e82846111d3565b915081905092915050565b7f4e487b7100000000000000000000000000000000000000000000000000000000600052601160045260246000fd5b60006112a382610eac565b91507fffffffffffffffffffffffffffffffffffffffffffffffffffffffffffffffff82036112d5576112d4611269565b5b600182019050919050565b60006112eb82610eac565b91506112f683610eac565b92508282101561130957611308611269565b5b828203905092915050565b7f4e487b7100000000000000000000000000000000000000000000000000000000600052603160045260246000fdfea26469706673582212205dd119e0ae3efedb1a563863996902f3797095b7513fe92f79f9da5c1e924db764736f6c634300080d0033",
  "immutableReferences": {},
  "source": "// SPDX-License-Identifier: MIT\n// Tells the Solidity compiler to compile only from v0.8.13 to v0.9.0\npragma solidity ^0.8.13;\n\n// This is just a simple example of a coin-like contract.\n// It is not ERC20 compatible and cannot be expected to talk to other\n// coin/token contracts.\n\ncontract User {\n\tstruct Review {\n\t\tstring idMovie;\n\t\tuint rating;\n\t}\n\n\tstruct UserInfo {\n\t\tstring username;\n\t\tReview[] reviews;\n\t\tstring[] idMoviesToWatch;\n\t}\n\n\tmapping (address => UserInfo) public wallets;\n\n\tfunction addUser(address wallet, string memory username) public {\n\t\twallets[wallet].username = username;\n\t}\n\n\tfunction getUsername(address wallet) public view returns(string memory) {\n\t\tstring memory username = wallets[wallet].username;\n\n\t\treturn username;\n\t}\n\n\tfunction addReview(address wallet, Review memory review) public {\n\t\tUserInfo storage user = wallets[wallet];\n\n\t\t// use revert instead?\n\t\tfor (uint i = 0; i < user.reviews.length; i++) {\n            if (keccak256(bytes(user.reviews[i].idMovie)) == keccak256(bytes(review.idMovie))) {\n                return;\n            }\n        }\n\n\t\tuser.reviews.push(review);\n\n\t\tfor (uint i = 0; i < user.idMoviesToWatch.length; i++) {\n\t\t\tif (keccak256(bytes(user.idMoviesToWatch[i])) == keccak256(bytes(review.idMovie))) {\n\t\t\t\tuser.idMoviesToWatch[i] = user.idMoviesToWatch[user.idMoviesToWatch.length - 1];\n\n\t\t\t\tuser.idMoviesToWatch.pop();\n\t\t\t\tbreak;\n\t\t\t}\n\t\t}\n\t}\n\n\tfunction addToWatchlist(address wallet, string memory idMovie) public {\n\t\tUserInfo storage user = wallets[wallet];\n        \n        for (uint i = 0; i < user.reviews.length; i++) {\n            if (keccak256(bytes(user.reviews[i].idMovie)) == keccak256(bytes(idMovie))) {\n                return;\n            }\n        }\n        \n        for (uint i = 0; i < user.idMoviesToWatch.length; i++) {\n            if (keccak256(bytes(user.idMoviesToWatch[i])) == keccak256(bytes(idMovie))) {\n                return;\n            }\n        }\n\n        user.idMoviesToWatch.push(idMovie);\n\t}\n\n\tfunction getWatchlist(address wallet) public view returns(string[] memory) {\n\t\tstring[] memory watchlist = wallets[wallet].idMoviesToWatch;\n\n\t\treturn watchlist;\n\t}\n\n\tfunction getReviews(address wallet) public view returns(Review[] memory) {\n\t\tReview[] memory reviews = wallets[wallet].reviews;\n\n\t\treturn reviews;\n\t}\n}\n",
  "sourcePath": "/home/mathieu/poly/hackathon/web3/web3-app/backend/contracts/User.sol",
  "compiler": {
    "name": "solc",
    "version": "0.8.13+commit.abaa5c0e.Emscripten.clang"
  },
  "schemaVersion": "3.4.16",
  "updatedAt": "2024-03-30T19:16:15.482Z",
  "networkType": "ethereum",
  "devdoc": {
    "kind": "dev",
    "methods": {},
    "version": 1
  },
  "userdoc": {
    "kind": "user",
    "methods": {},
    "version": 1
  }
}