{
  "contractName": "User",
  "abi": [
    {
      "inputs": [],
      "stateMutability": "nonpayable",
      "type": "constructor"
    },
    {
      "inputs": [
        {
          "internalType": "string",
          "name": "",
          "type": "string"
        }
      ],
      "name": "movies",
      "outputs": [
        {
          "internalType": "string",
          "name": "id",
          "type": "string"
        },
        {
          "internalType": "string",
          "name": "title",
          "type": "string"
        },
        {
          "internalType": "string",
          "name": "description",
          "type": "string"
        },
        {
          "internalType": "uint256",
          "name": "releaseYear",
          "type": "uint256"
        },
        {
          "internalType": "uint256",
          "name": "averageRating",
          "type": "uint256"
        },
        {
          "internalType": "uint256",
          "name": "numberOfRatings",
          "type": "uint256"
        }
      ],
      "stateMutability": "view",
      "type": "function",
      "constant": true
    },
    {
      "inputs": [
        {
          "internalType": "address",
          "name": "",
          "type": "address"
        }
      ],
      "name": "wallets",
      "outputs": [
        {
          "internalType": "string",
          "name": "username",
          "type": "string"
        }
      ],
      "stateMutability": "view",
      "type": "function",
      "constant": true
    },
    {
      "inputs": [
        {
          "internalType": "address",
          "name": "wallet",
          "type": "address"
        },
        {
          "internalType": "string",
          "name": "username",
          "type": "string"
        }
      ],
      "name": "addUser",
      "outputs": [],
      "stateMutability": "nonpayable",
      "type": "function"
    },
    {
      "inputs": [
        {
          "internalType": "address",
          "name": "wallet",
          "type": "address"
        }
      ],
      "name": "getUsername",
      "outputs": [
        {
          "internalType": "string",
          "name": "",
          "type": "string"
        }
      ],
      "stateMutability": "view",
      "type": "function",
      "constant": true
    },
    {
      "inputs": [
        {
          "internalType": "address",
          "name": "wallet",
          "type": "address"
        },
        {
          "components": [
            {
              "internalType": "string",
              "name": "idMovie",
              "type": "string"
            },
            {
              "internalType": "uint256",
              "name": "rating",
              "type": "uint256"
            }
          ],
          "internalType": "struct User.Review",
          "name": "review",
          "type": "tuple"
        }
      ],
      "name": "addReview",
      "outputs": [],
      "stateMutability": "nonpayable",
      "type": "function"
    },
    {
      "inputs": [
        {
          "internalType": "address",
          "name": "wallet",
          "type": "address"
        },
        {
          "internalType": "string",
          "name": "idMovie",
          "type": "string"
        }
      ],
      "name": "addToWatchlist",
      "outputs": [],
      "stateMutability": "nonpayable",
      "type": "function"
    },
    {
      "inputs": [
        {
          "internalType": "address",
          "name": "wallet",
          "type": "address"
        }
      ],
      "name": "getWatchlist",
      "outputs": [
        {
          "internalType": "string[]",
          "name": "",
          "type": "string[]"
        }
      ],
      "stateMutability": "view",
      "type": "function",
      "constant": true
    },
    {
      "inputs": [
        {
          "internalType": "address",
          "name": "wallet",
          "type": "address"
        }
      ],
      "name": "getReviews",
      "outputs": [
        {
          "components": [
            {
              "internalType": "string",
              "name": "idMovie",
              "type": "string"
            },
            {
              "internalType": "uint256",
              "name": "rating",
              "type": "uint256"
            }
          ],
          "internalType": "struct User.Review[]",
          "name": "",
          "type": "tuple[]"
        }
      ],
      "stateMutability": "view",
      "type": "function",
      "constant": true
    },
    {
      "inputs": [
        {
          "internalType": "string",
          "name": "movieId",
          "type": "string"
        }
      ],
      "name": "getReviewsForMovie",
      "outputs": [
        {
          "components": [
            {
              "internalType": "string",
              "name": "idMovie",
              "type": "string"
            },
            {
              "internalType": "uint256",
              "name": "rating",
              "type": "uint256"
            }
          ],
          "internalType": "struct User.Review[]",
          "name": "",
          "type": "tuple[]"
        }
      ],
      "stateMutability": "view",
      "type": "function",
      "constant": true
    },
    {
      "inputs": [
        {
          "internalType": "string",
          "name": "id",
          "type": "string"
        }
      ],
      "name": "getMovie",
      "outputs": [
        {
          "components": [
            {
              "internalType": "string",
              "name": "id",
              "type": "string"
            },
            {
              "internalType": "string",
              "name": "title",
              "type": "string"
            },
            {
              "internalType": "string",
              "name": "description",
              "type": "string"
            },
            {
              "internalType": "uint256",
              "name": "releaseYear",
              "type": "uint256"
            },
            {
              "internalType": "uint256",
              "name": "averageRating",
              "type": "uint256"
            },
            {
              "internalType": "uint256",
              "name": "numberOfRatings",
              "type": "uint256"
            }
          ],
          "internalType": "struct User.Movie",
          "name": "",
          "type": "tuple"
        }
      ],
      "stateMutability": "view",
      "type": "function",
      "constant": true
    },
    {
      "inputs": [],
      "name": "getAllMovies",
      "outputs": [
        {
          "components": [
            {
              "internalType": "string",
              "name": "id",
              "type": "string"
            },
            {
              "internalType": "string",
              "name": "title",
              "type": "string"
            },
            {
              "internalType": "string",
              "name": "description",
              "type": "string"
            },
            {
              "internalType": "uint256",
              "name": "releaseYear",
              "type": "uint256"
            },
            {
              "internalType": "uint256",
              "name": "averageRating",
              "type": "uint256"
            },
            {
              "internalType": "uint256",
              "name": "numberOfRatings",
              "type": "uint256"
            }
          ],
          "internalType": "struct User.Movie[]",
          "name": "",
          "type": "tuple[]"
        }
      ],
      "stateMutability": "view",
      "type": "function",
      "constant": true
    },
    {
      "inputs": [],
      "name": "getTopRated",
      "outputs": [
        {
          "components": [
            {
              "internalType": "string",
              "name": "id",
              "type": "string"
            },
            {
              "internalType": "string",
              "name": "title",
              "type": "string"
            },
            {
              "internalType": "string",
              "name": "description",
              "type": "string"
            },
            {
              "internalType": "uint256",
              "name": "releaseYear",
              "type": "uint256"
            },
            {
              "internalType": "uint256",
              "name": "averageRating",
              "type": "uint256"
            },
            {
              "internalType": "uint256",
              "name": "numberOfRatings",
              "type": "uint256"
            }
          ],
          "internalType": "struct User.Movie[]",
          "name": "",
          "type": "tuple[]"
        }
      ],
      "stateMutability": "view",
      "type": "function",
      "constant": true
    },
    {
      "inputs": [
        {
          "internalType": "string",
          "name": "idMovie",
          "type": "string"
        }
      ],
      "name": "getAverageRating",
      "outputs": [
        {
          "internalType": "uint256",
          "name": "",
          "type": "uint256"
        }
      ],
      "stateMutability": "view",
      "type": "function",
      "constant": true
    }
  ],
  "bytecode": "0x60806040523480156200001157600080fd5b506200010c6040518060400160405280600181526020017f31000000000000000000000000000000000000000000000000000000000000008152506040518060c001604052806040518060400160405280600181526020017f310000000000000000000000000000000000000000000000000000000000000081525081526020016040518060400160405280601881526020017f54686520536861777368616e6b20526564656d7074696f6e000000000000000081525081526020016040518060a00160405280607681526020016200395b6076913981526020016107ca8152602001600a81526020016005815250620009c260201b60201c565b620002086040518060400160405280600181526020017f32000000000000000000000000000000000000000000000000000000000000008152506040518060c001604052806040518060400160405280600181526020017f320000000000000000000000000000000000000000000000000000000000000081525081526020016040518060400160405280600d81526020017f54686520476f646661746865720000000000000000000000000000000000000081525081526020016040518060a00160405280606e8152602001620037c3606e913981526020016107b481526020016009815260200162176547815250620009c260201b60201c565b620003026040518060400160405280600181526020017f33000000000000000000000000000000000000000000000000000000000000008152506040518060c001604052806040518060400160405280600181526020017f330000000000000000000000000000000000000000000000000000000000000081525081526020016040518060400160405280600f81526020017f546865204461726b204b6e69676874000000000000000000000000000000000081525081526020016040518060e0016040528060bd815260200162003ad860bd913981526020016107d88152602001600981526020016008815250620009c260201b60201c565b620003fc6040518060400160405280600181526020017f34000000000000000000000000000000000000000000000000000000000000008152506040518060c001604052806040518060400160405280600181526020017f340000000000000000000000000000000000000000000000000000000000000081525081526020016040518060400160405280600c81526020017f313220416e677279204d656e000000000000000000000000000000000000000081525081526020016040518060a001604052806071815260200162003b956071913981526020016107a58152602001600881526020016003815250620009c260201b60201c565b620004f66040518060400160405280600181526020017f35000000000000000000000000000000000000000000000000000000000000008152506040518060c001604052806040518060400160405280600181526020017f350000000000000000000000000000000000000000000000000000000000000081525081526020016040518060400160405280601081526020017f536368696e646c65722773204c6973740000000000000000000000000000000081525081526020016040518060e0016040528060b281526020016200368760b2913981526020016107c98152602001600881526020016005815250620009c260201b60201c565b620005d46040518060400160405280600181526020017f36000000000000000000000000000000000000000000000000000000000000008152506040518060c001604052806040518060400160405280600181526020017f360000000000000000000000000000000000000000000000000000000000000081525081526020016040518060600160405280602d815260200162003a60602d913981526020016040518060c0016040528060928152602001620038c96092913981526020016107d38152602001600881526020016006815250620009c260201b60201c565b620006ce6040518060400160405280600181526020017f37000000000000000000000000000000000000000000000000000000000000008152506040518060c001604052806040518060400160405280600181526020017f370000000000000000000000000000000000000000000000000000000000000081525081526020016040518060400160405280600c81526020017f50756c702046696374696f6e000000000000000000000000000000000000000081525081526020016040518060c00160405280608f8152602001620039d1608f913981526020016107ca8152602001600881526020016006815250620009c260201b60201c565b620007c86040518060400160405280600181526020017f38000000000000000000000000000000000000000000000000000000000000008152506040518060c001604052806040518060400160405280600181526020017f380000000000000000000000000000000000000000000000000000000000000081525081526020016040518060400160405280601e81526020017f54686520476f6f642c207468652042616420616e64207468652055676c79000081525081526020016040518060c00160405280608a815260200162003739608a913981526020016107ae8152602001600881526020016006815250620009c260201b60201c565b620008c26040518060400160405280600181526020017f39000000000000000000000000000000000000000000000000000000000000008152506040518060c001604052806040518060400160405280600181526020017f390000000000000000000000000000000000000000000000000000000000000081525081526020016040518060400160405280600c81526020017f466f72726573742047756d70000000000000000000000000000000000000000081525081526020016040518060800160405280604b815260200162003a8d604b913981526020016107ca8152602001600881526020016006815250620009c260201b60201c565b620009bc6040518060400160405280600281526020017f31300000000000000000000000000000000000000000000000000000000000008152506040518060c001604052806040518060400160405280600281526020017f313000000000000000000000000000000000000000000000000000000000000081525081526020016040518060400160405280600981526020017f496e63657074696f6e000000000000000000000000000000000000000000000081525081526020016040518060c0016040528060988152602001620038316098913981526020016107da8152602001600881526020016006815250620009c260201b60201c565b62000c53565b80600283604051620009d5919062000bd6565b9081526020016040518091039020600082015181600001908051906020019062000a0192919062000aa3565b50602082015181600101908051906020019062000a2092919062000aa3565b50604082015181600201908051906020019062000a3f92919062000aa3565b50606082015181600301556080820151816004015560a0820151816005015590505060038290806001815401808255809150506001900390600052602060002001600090919091909150908051906020019062000a9e92919062000aa3565b505050565b82805462000ab19062000c1e565b90600052602060002090601f01602090048101928262000ad5576000855562000b21565b82601f1062000af057805160ff191683800117855562000b21565b8280016001018555821562000b21579182015b8281111562000b2057825182559160200191906001019062000b03565b5b50905062000b30919062000b34565b5090565b5b8082111562000b4f57600081600090555060010162000b35565b5090565b600081519050919050565b600081905092915050565b60005b8381101562000b8957808201518184015260208101905062000b6c565b8381111562000b99576000848401525b50505050565b600062000bac8262000b53565b62000bb8818562000b5e565b935062000bca81856020860162000b69565b80840191505092915050565b600062000be4828462000b9f565b915081905092915050565b7f4e487b7100000000000000000000000000000000000000000000000000000000600052602260045260246000fd5b6000600282049050600182168062000c3757607f821691505b60208210810362000c4d5762000c4c62000bef565b5b50919050565b612a248062000c636000396000f3fe608060405234801561001057600080fd5b50600436106100cf5760003560e01c8063998863fd1161008c578063ce43c03211610066578063ce43c0321461024f578063d790f3761461027f578063e16f00651461029b578063e3aaf617146102b9576100cf565b8063998863fd146101d3578063b1f6b18b14610203578063ca3e22bd1461021f576100cf565b8063173759d6146100d45780632d304caf146101045780634b68d431146101395780634ef5a01714610155578063710a21cf1461018557806389b08f11146101a3575b600080fd5b6100ee60048036038101906100e99190611af3565b6102e9565b6040516100fb9190611c7b565b60405180910390f35b61011e60048036038101906101199190611dd2565b610409565b60405161013096959493929190611e7e565b60405180910390f35b610153600480360381019061014e9190611ef4565b6105f3565b005b61016f600480360381019061016a9190611af3565b6106b0565b60405161017c919061205e565b60405180910390f35b61018d6107f2565b60405161019a91906121d9565b60405180910390f35b6101bd60048036038101906101b89190611af3565b610820565b6040516101ca91906121fb565b60405180910390f35b6101ed60048036038101906101e89190611dd2565b6108c6565b6040516101fa919061221d565b60405180910390f35b61021d60048036038101906102189190611ef4565b6108f6565b005b61023960048036038101906102349190611dd2565b610a61565b604051610246919061205e565b60405180910390f35b61026960048036038101906102649190611af3565b610ca5565b60405161027691906121fb565b60405180910390f35b610299600480360381019061029491906122da565b610d7e565b005b6102a3610fed565b6040516102b091906121d9565b60405180910390f35b6102d360048036038101906102ce9190611dd2565b6112af565b6040516102e091906123cd565b60405180910390f35b606060008060008473ffffffffffffffffffffffffffffffffffffffff1673ffffffffffffffffffffffffffffffffffffffff168152602001908152602001600020600201805480602002602001604051908101604052809291908181526020016000905b828210156103fa57838290600052602060002001805461036d9061241e565b80601f01602080910402602001604051908101604052809291908181526020018280546103999061241e565b80156103e65780601f106103bb576101008083540402835291602001916103e6565b820191906000526020600020905b8154815290600101906020018083116103c957829003601f168201915b50505050508152602001906001019061034e565b50505050905080915050919050565b6002818051602081018201805184825260208301602085012081835280955050505050506000915090508060000180546104429061241e565b80601f016020809104026020016040519081016040528092919081815260200182805461046e9061241e565b80156104bb5780601f10610490576101008083540402835291602001916104bb565b820191906000526020600020905b81548152906001019060200180831161049e57829003601f168201915b5050505050908060010180546104d09061241e565b80601f01602080910402602001604051908101604052809291908181526020018280546104fc9061241e565b80156105495780601f1061051e57610100808354040283529160200191610549565b820191906000526020600020905b81548152906001019060200180831161052c57829003601f168201915b50505050509080600201805461055e9061241e565b80601f016020809104026020016040519081016040528092919081815260200182805461058a9061241e565b80156105d75780601f106105ac576101008083540402835291602001916105d7565b820191906000526020600020905b8154815290600101906020018083116105ba57829003601f168201915b5050505050908060030154908060040154908060050154905086565b806000808473ffffffffffffffffffffffffffffffffffffffff1673ffffffffffffffffffffffffffffffffffffffff16815260200190815260200160002060000190805190602001906106489291906118db565b506001829080600181540180825580915050600190039060005260206000200160009091909190916101000a81548173ffffffffffffffffffffffffffffffffffffffff021916908373ffffffffffffffffffffffffffffffffffffffff1602179055505050565b606060008060008473ffffffffffffffffffffffffffffffffffffffff1673ffffffffffffffffffffffffffffffffffffffff168152602001908152602001600020600101805480602002602001604051908101604052809291908181526020016000905b828210156107e357838290600052602060002090600202016040518060400160405290816000820180546107489061241e565b80601f01602080910402602001604051908101604052809291908181526020018280546107749061241e565b80156107c15780601f10610796576101008083540402835291602001916107c1565b820191906000526020600020905b8154815290600101906020018083116107a457829003601f168201915b5050505050815260200160018201548152505081526020019060010190610715565b50505050905080915050919050565b606060006107fe610fed565b905061081981600060018451610814919061247e565b6114bb565b8091505090565b60006020528060005260406000206000915090508060000180546108439061241e565b80601f016020809104026020016040519081016040528092919081815260200182805461086f9061241e565b80156108bc5780601f10610891576101008083540402835291602001916108bc565b820191906000526020600020905b81548152906001019060200180831161089f57829003601f168201915b5050505050905081565b6000806002836040516108d991906124ee565b908152602001604051809103902060040154905080915050919050565b60008060008473ffffffffffffffffffffffffffffffffffffffff1673ffffffffffffffffffffffffffffffffffffffff168152602001908152602001600020905060005b81600101805490508110156109ad57828051906020012082600101828154811061096857610967612505565b5b906000526020600020906002020160000160405161098691906125d3565b60405180910390200361099a575050610a5d565b80806109a5906125ea565b91505061093b565b5060005b8160020180549050811015610a1c5782805190602001208260020182815481106109de576109dd612505565b5b906000526020600020016040516109f591906125d3565b604051809103902003610a09575050610a5d565b8080610a14906125ea565b9150506109b1565b508060020182908060018154018082558091505060019003906000526020600020016000909190919091509080519060200190610a5a9291906118db565b50505b5050565b60608060005b600180549050811015610c9b57600080600060018481548110610a8d57610a8c612505565b5b9060005260206000200160009054906101000a900473ffffffffffffffffffffffffffffffffffffffff1673ffffffffffffffffffffffffffffffffffffffff1673ffffffffffffffffffffffffffffffffffffffff168152602001908152602001600020600101805480602002602001604051908101604052809291908181526020016000905b82821015610be35783829060005260206000209060020201604051806040016040529081600082018054610b489061241e565b80601f0160208091040260200160405190810160405280929190818152602001828054610b749061241e565b8015610bc15780601f10610b9657610100808354040283529160200191610bc1565b820191906000526020600020905b815481529060010190602001808311610ba457829003601f168201915b5050505050815260200160018201548152505081526020019060010190610b15565b50505050905060005b600180549050811015610c8657818181518110610c0c57610c0b612505565b5b60200260200101516000015180519060200120868051906020012003610c7357818181518110610c3f57610c3e612505565b5b60200260200101518460018651610c56919061247e565b81518110610c6757610c66612505565b5b60200260200101819052505b8080610c7e906125ea565b915050610bec565b50508080610c93906125ea565b915050610a67565b5080915050919050565b606060008060008473ffffffffffffffffffffffffffffffffffffffff1673ffffffffffffffffffffffffffffffffffffffff1681526020019081526020016000206000018054610cf59061241e565b80601f0160208091040260200160405190810160405280929190818152602001828054610d219061241e565b8015610d6e5780601f10610d4357610100808354040283529160200191610d6e565b820191906000526020600020905b815481529060010190602001808311610d5157829003601f168201915b5050505050905080915050919050565b60008060008473ffffffffffffffffffffffffffffffffffffffff1673ffffffffffffffffffffffffffffffffffffffff168152602001908152602001600020905060005b8160010180549050811015610e3957826000015180519060200120826001018281548110610df457610df3612505565b5b9060005260206000209060020201600001604051610e1291906125d3565b604051809103902003610e26575050610fe9565b8080610e31906125ea565b915050610dc3565b50806001018290806001815401808255809150506001900390600052602060002090600202016000909190919091506000820151816000019080519060200190610e849291906118db565b5060208201518160010155505060028260000151604051610ea591906124ee565b90815260200160405180910390206005016000815480929190610ec7906125ea565b9190505550610ed98260000151611660565b60005b8160020180549050811015610fe657826000015180519060200120826002018281548110610f0d57610f0c612505565b5b90600052602060002001604051610f2491906125d3565b604051809103902003610fd3578160020160018360020180549050610f49919061247e565b81548110610f5a57610f59612505565b5b90600052602060002001826002018281548110610f7a57610f79612505565b5b90600052602060002001908054610f909061241e565b610f9b929190611961565b5081600201805480610fb057610faf612632565b5b600190038181906000526020600020016000610fcc91906119ee565b9055610fe6565b8080610fde906125ea565b915050610edc565b50505b5050565b6060600060038054905067ffffffffffffffff8111156110105761100f611ca7565b5b60405190808252806020026020018201604052801561104957816020015b611036611a2e565b81526020019060019003908161102e5790505b50905060005b6003805490508110156112a75760026003828154811061107257611071612505565b5b9060005260206000200160405161108991906126f5565b90815260200160405180910390206040518060c00160405290816000820180546110b29061241e565b80601f01602080910402602001604051908101604052809291908181526020018280546110de9061241e565b801561112b5780601f106111005761010080835404028352916020019161112b565b820191906000526020600020905b81548152906001019060200180831161110e57829003601f168201915b505050505081526020016001820180546111449061241e565b80601f01602080910402602001604051908101604052809291908181526020018280546111709061241e565b80156111bd5780601f10611192576101008083540402835291602001916111bd565b820191906000526020600020905b8154815290600101906020018083116111a057829003601f168201915b505050505081526020016002820180546111d69061241e565b80601f01602080910402602001604051908101604052809291908181526020018280546112029061241e565b801561124f5780601f106112245761010080835404028352916020019161124f565b820191906000526020600020905b81548152906001019060200180831161123257829003601f168201915b50505050508152602001600382015481526020016004820154815260200160058201548152505082828151811061128957611288612505565b5b6020026020010181905250808061129f906125ea565b91505061104f565b508091505090565b6112b7611a2e565b6002826040516112c791906124ee565b90815260200160405180910390206040518060c00160405290816000820180546112f09061241e565b80601f016020809104026020016040519081016040528092919081815260200182805461131c9061241e565b80156113695780601f1061133e57610100808354040283529160200191611369565b820191906000526020600020905b81548152906001019060200180831161134c57829003601f168201915b505050505081526020016001820180546113829061241e565b80601f01602080910402602001604051908101604052809291908181526020018280546113ae9061241e565b80156113fb5780601f106113d0576101008083540402835291602001916113fb565b820191906000526020600020905b8154815290600101906020018083116113de57829003601f168201915b505050505081526020016002820180546114149061241e565b80601f01602080910402602001604051908101604052809291908181526020018280546114409061241e565b801561148d5780601f106114625761010080835404028352916020019161148d565b820191906000526020600020905b81548152906001019060200180831161147057829003601f168201915b5050505050815260200160038201548152602001600482015481526020016005820154815250509050919050565b600082905060008290508082036114d357505061165b565b600085600286866114e49190612716565b6114ee91906127d9565b866114f99190612843565b8151811061150a57611509612505565b5b60200260200101516080015190505b81831361162f575b8086848151811061153557611534612505565b5b602002602001015160800151111561155a578280611552906128d7565b935050611521565b5b85828151811061156e5761156d612505565b5b60200260200101516080015181111561159457818061158c9061291f565b92505061155b565b81831361162a578582815181106115ae576115ad612505565b5b60200260200101518684815181106115c9576115c8612505565b5b60200260200101518785815181106115e4576115e3612505565b5b602002602001018885815181106115fe576115fd612505565b5b6020026020010182905282905250508280611618906128d7565b93505081806116269061291f565b9250505b611519565b81851215611643576116428686846114bb565b5b83831215611657576116568684866114bb565b5b5050505b505050565b600060028260405161167291906124ee565b90815260200160405180910390206040518060c001604052908160008201805461169b9061241e565b80601f01602080910402602001604051908101604052809291908181526020018280546116c79061241e565b80156117145780601f106116e957610100808354040283529160200191611714565b820191906000526020600020905b8154815290600101906020018083116116f757829003601f168201915b5050505050815260200160018201805461172d9061241e565b80601f01602080910402602001604051908101604052809291908181526020018280546117599061241e565b80156117a65780601f1061177b576101008083540402835291602001916117a6565b820191906000526020600020905b81548152906001019060200180831161178957829003601f168201915b505050505081526020016002820180546117bf9061241e565b80601f01602080910402602001604051908101604052809291908181526020018280546117eb9061241e565b80156118385780601f1061180d57610100808354040283529160200191611838565b820191906000526020600020905b81548152906001019060200180831161181b57829003601f168201915b5050505050815260200160038201548152602001600482015481526020016005820154815250509050600061186c83610a61565b9050600080600090505b82518110156118be5782818151811061189257611891612505565b5b602002602001015160200151826118a99190612967565b915080806118b6906125ea565b915050611876565b508151816118cc91906129bd565b83608001818152505050505050565b8280546118e79061241e565b90600052602060002090601f0160209004810192826119095760008555611950565b82601f1061192257805160ff1916838001178555611950565b82800160010185558215611950579182015b8281111561194f578251825591602001919060010190611934565b5b50905061195d9190611a64565b5090565b82805461196d9061241e565b90600052602060002090601f01602090048101928261198f57600085556119dd565b82601f106119a057805485556119dd565b828001600101855582156119dd57600052602060002091601f016020900482015b828111156119dc5782548255916001019190600101906119c1565b5b5090506119ea9190611a64565b5090565b5080546119fa9061241e565b6000825580601f10611a0c5750611a2b565b601f016020900490600052602060002090810190611a2a9190611a64565b5b50565b6040518060c001604052806060815260200160608152602001606081526020016000815260200160008152602001600081525090565b5b80821115611a7d576000816000905550600101611a65565b5090565b6000604051905090565b600080fd5b600080fd5b600073ffffffffffffffffffffffffffffffffffffffff82169050919050565b6000611ac082611a95565b9050919050565b611ad081611ab5565b8114611adb57600080fd5b50565b600081359050611aed81611ac7565b92915050565b600060208284031215611b0957611b08611a8b565b5b6000611b1784828501611ade565b91505092915050565b600081519050919050565b600082825260208201905092915050565b6000819050602082019050919050565b600081519050919050565b600082825260208201905092915050565b60005b83811015611b86578082015181840152602081019050611b6b565b83811115611b95576000848401525b50505050565b6000601f19601f8301169050919050565b6000611bb782611b4c565b611bc18185611b57565b9350611bd1818560208601611b68565b611bda81611b9b565b840191505092915050565b6000611bf18383611bac565b905092915050565b6000602082019050919050565b6000611c1182611b20565b611c1b8185611b2b565b935083602082028501611c2d85611b3c565b8060005b85811015611c695784840389528151611c4a8582611be5565b9450611c5583611bf9565b925060208a01995050600181019050611c31565b50829750879550505050505092915050565b60006020820190508181036000830152611c958184611c06565b905092915050565b600080fd5b600080fd5b7f4e487b7100000000000000000000000000000000000000000000000000000000600052604160045260246000fd5b611cdf82611b9b565b810181811067ffffffffffffffff82111715611cfe57611cfd611ca7565b5b80604052505050565b6000611d11611a81565b9050611d1d8282611cd6565b919050565b600067ffffffffffffffff821115611d3d57611d3c611ca7565b5b611d4682611b9b565b9050602081019050919050565b82818337600083830152505050565b6000611d75611d7084611d22565b611d07565b905082815260208101848484011115611d9157611d90611ca2565b5b611d9c848285611d53565b509392505050565b600082601f830112611db957611db8611c9d565b5b8135611dc9848260208601611d62565b91505092915050565b600060208284031215611de857611de7611a8b565b5b600082013567ffffffffffffffff811115611e0657611e05611a90565b5b611e1284828501611da4565b91505092915050565b600082825260208201905092915050565b6000611e3782611b4c565b611e418185611e1b565b9350611e51818560208601611b68565b611e5a81611b9b565b840191505092915050565b6000819050919050565b611e7881611e65565b82525050565b600060c0820190508181036000830152611e988189611e2c565b90508181036020830152611eac8188611e2c565b90508181036040830152611ec08187611e2c565b9050611ecf6060830186611e6f565b611edc6080830185611e6f565b611ee960a0830184611e6f565b979650505050505050565b60008060408385031215611f0b57611f0a611a8b565b5b6000611f1985828601611ade565b925050602083013567ffffffffffffffff811115611f3a57611f39611a90565b5b611f4685828601611da4565b9150509250929050565b600081519050919050565b600082825260208201905092915050565b6000819050602082019050919050565b611f8581611e65565b82525050565b60006040830160008301518482036000860152611fa88282611bac565b9150506020830151611fbd6020860182611f7c565b508091505092915050565b6000611fd48383611f8b565b905092915050565b6000602082019050919050565b6000611ff482611f50565b611ffe8185611f5b565b93508360208202850161201085611f6c565b8060005b8581101561204c578484038952815161202d8582611fc8565b945061203883611fdc565b925060208a01995050600181019050612014565b50829750879550505050505092915050565b600060208201905081810360008301526120788184611fe9565b905092915050565b600081519050919050565b600082825260208201905092915050565b6000819050602082019050919050565b600060c08301600083015184820360008601526120c98282611bac565b915050602083015184820360208601526120e38282611bac565b915050604083015184820360408601526120fd8282611bac565b91505060608301516121126060860182611f7c565b5060808301516121256080860182611f7c565b5060a083015161213860a0860182611f7c565b508091505092915050565b600061214f83836120ac565b905092915050565b6000602082019050919050565b600061216f82612080565b612179818561208b565b93508360208202850161218b8561209c565b8060005b858110156121c757848403895281516121a88582612143565b94506121b383612157565b925060208a0199505060018101905061218f565b50829750879550505050505092915050565b600060208201905081810360008301526121f38184612164565b905092915050565b600060208201905081810360008301526122158184611e2c565b905092915050565b60006020820190506122326000830184611e6f565b92915050565b600080fd5b600080fd5b61224b81611e65565b811461225657600080fd5b50565b60008135905061226881612242565b92915050565b60006040828403121561228457612283612238565b5b61228e6040611d07565b9050600082013567ffffffffffffffff8111156122ae576122ad61223d565b5b6122ba84828501611da4565b60008301525060206122ce84828501612259565b60208301525092915050565b600080604083850312156122f1576122f0611a8b565b5b60006122ff85828601611ade565b925050602083013567ffffffffffffffff8111156123205761231f611a90565b5b61232c8582860161226e565b9150509250929050565b600060c08301600083015184820360008601526123538282611bac565b9150506020830151848203602086015261236d8282611bac565b915050604083015184820360408601526123878282611bac565b915050606083015161239c6060860182611f7c565b5060808301516123af6080860182611f7c565b5060a08301516123c260a0860182611f7c565b508091505092915050565b600060208201905081810360008301526123e78184612336565b905092915050565b7f4e487b7100000000000000000000000000000000000000000000000000000000600052602260045260246000fd5b6000600282049050600182168061243657607f821691505b602082108103612449576124486123ef565b5b50919050565b7f4e487b7100000000000000000000000000000000000000000000000000000000600052601160045260246000fd5b600061248982611e65565b915061249483611e65565b9250828210156124a7576124a661244f565b5b828203905092915050565b600081905092915050565b60006124c882611b4c565b6124d281856124b2565b93506124e2818560208601611b68565b80840191505092915050565b60006124fa82846124bd565b915081905092915050565b7f4e487b7100000000000000000000000000000000000000000000000000000000600052603260045260246000fd5b600081905092915050565b60008190508160005260206000209050919050565b600081546125618161241e565b61256b8186612534565b945060018216600081146125865760018114612597576125ca565b60ff198316865281860193506125ca565b6125a08561253f565b60005b838110156125c2578154818901526001820191506020810190506125a3565b838801955050505b50505092915050565b60006125df8284612554565b915081905092915050565b60006125f582611e65565b91507fffffffffffffffffffffffffffffffffffffffffffffffffffffffffffffffff82036126275761262661244f565b5b600182019050919050565b7f4e487b7100000000000000000000000000000000000000000000000000000000600052603160045260246000fd5b60008190508160005260206000209050919050565b600081546126838161241e565b61268d81866124b2565b945060018216600081146126a857600181146126b9576126ec565b60ff198316865281860193506126ec565b6126c285612661565b60005b838110156126e4578154818901526001820191506020810190506126c5565b838801955050505b50505092915050565b60006127018284612676565b915081905092915050565b6000819050919050565b60006127218261270c565b915061272c8361270c565b9250827f8000000000000000000000000000000000000000000000000000000000000000018212600084121516156127675761276661244f565b5b827f7fffffffffffffffffffffffffffffffffffffffffffffffffffffffffffffff01821360008412161561279f5761279e61244f565b5b828203905092915050565b7f4e487b7100000000000000000000000000000000000000000000000000000000600052601260045260246000fd5b60006127e48261270c565b91506127ef8361270c565b9250826127ff576127fe6127aa565b5b600160000383147f8000000000000000000000000000000000000000000000000000000000000000831416156128385761283761244f565b5b828205905092915050565b600061284e8261270c565b91506128598361270c565b9250817f7fffffffffffffffffffffffffffffffffffffffffffffffffffffffffffffff038313600083121516156128945761289361244f565b5b817f80000000000000000000000000000000000000000000000000000000000000000383126000831216156128cc576128cb61244f565b5b828201905092915050565b60006128e28261270c565b91507f7fffffffffffffffffffffffffffffffffffffffffffffffffffffffffffffff82036129145761291361244f565b5b600182019050919050565b600061292a8261270c565b91507f8000000000000000000000000000000000000000000000000000000000000000820361295c5761295b61244f565b5b600182039050919050565b600061297282611e65565b915061297d83611e65565b9250827fffffffffffffffffffffffffffffffffffffffffffffffffffffffffffffffff038211156129b2576129b161244f565b5b828201905092915050565b60006129c882611e65565b91506129d383611e65565b9250826129e3576129e26127aa565b5b82820490509291505056fea26469706673582212200e8ecce478ad66493a2f04dac5b9ba64cb714937c661254f09decaa8ed4f317e64736f6c634300080d0033496e204765726d616e2d6f6363757069656420506f6c616e6420647572696e6720576f726c64205761722049492c20696e647573747269616c697374204f736b617220536368696e646c6572206772616475616c6c79206265636f6d657320636f6e6365726e656420666f7220686973204a657769736820776f726b666f726365206166746572207769746e657373696e67207468656972207065727365637574696f6e20627920746865204e617a69732e4120626f756e74792068756e74696e67207363616d206a6f696e732074776f206d656e20696e20616e20756e6561737920616c6c69616e636520616761696e7374206120746869726420696e2061207261636520746f2066696e64206120666f7274756e6520696e20676f6c642062757269656420696e20612072656d6f74652063656d65746572792e416e206f7267616e697a6564206372696d652064796e617374792773206167696e6720706174726961726368207472616e736665727320636f6e74726f6c206f662068697320636c616e64657374696e6520656d7069726520746f206869732072656c756374616e7420736f6e2e412074686965662077686f20737465616c7320636f72706f726174652073656372657473207468726f7567682074686520757365206f6620647265616d2d73686172696e6720746563686e6f6c6f677920697320676976656e2074686520696e7665727365207461736b206f6620706c616e74696e6720616e206964656120696e746f20746865206d696e64206f66206120432e452e4f2e47616e64616c6620616e6420417261676f726e206c6561642074686520576f726c64206f66204d656e20616761696e737420536175726f6e27732061726d7920746f2064726177206869732067617a652066726f6d2046726f646f20616e642053616d206173207468657920617070726f616368204d6f756e7420446f6f6d207769746820746865204f6e652052696e672e54776f20696d707269736f6e6564206d656e20626f6e64206f7665722061206e756d626572206f662079656172732c2066696e64696e6720736f6c61636520616e64206576656e7475616c20726564656d7074696f6e207468726f7567682061637473206f6620636f6d6d6f6e20646563656e63792e546865206c69766573206f662074776f206d6f62206869746d656e2c206120626f7865722c20612067616e677374657220616e642068697320776966652c20616e6420612070616972206f662064696e65722062616e6469747320696e7465727477696e6520696e20666f75722074616c6573206f662076696f6c656e636520616e6420726564656d7074696f6e2e546865204c6f7264206f66207468652052696e67733a205468652052657475726e206f6620746865204b696e675468652073746f7279206f662061206d616e20776974682061206c6f772049512077686f206163636f6d706c6973686564206772656174207468696e677320696e20686973206c6966652e5768656e20746865206d656e616365206b6e6f776e20617320746865204a6f6b657220777265616b73206861766f6320616e64206368616f73206f6e207468652070656f706c65206f6620476f7468616d2c204261746d616e206d75737420616363657074206f6e65206f66207468652067726561746573742070737963686f6c6f676963616c20616e6420706879736963616c207465737473206f6620686973206162696c69747920746f20666967687420696e6a7573746963652e41206a75727920686f6c646f757420617474656d70747320746f2070726576656e742061206d69736361727269616765206f66206a75737469636520627920666f7263696e672068697320636f6c6c65616775657320746f207265636f6e7369646572207468652065766964656e63652e",
  "immutableReferences": {},
  "source": "// SPDX-License-Identifier: MIT\n// Tells the Solidity compiler to compile only from v0.8.13 to v0.9.0\npragma solidity ^0.8.13;\n\n// This is just a simple example of a coin-like contract.\n// It is not ERC20 compatible and cannot be expected to talk to other\n// coin/token contracts.\n\ncontract User {\n\tstruct Review {\n\t\tstring idMovie;\n\t\tuint rating;\n\t}\n\n\tstruct UserInfo {\n\t\tstring username;\n\t\tReview[] reviews;\n\t\tstring[] idMoviesToWatch;\n\t}\n\n\tstruct Movie {\n\t\tstring id;\n\t\tstring title;\n\t\tstring description;\n\t\tuint releaseYear;\n\t\tuint averageRating;\n\t\tuint numberOfRatings;\n\t}\n\n\tconstructor() {\n        addMovie(\"1\", Movie(\"1\", \"The Shawshank Redemption\", \"Two imprisoned men bond over a number of years, finding solace and eventual redemption through acts of common decency.\", 1994, 10, 5));\n        addMovie(\"2\", Movie(\"2\", \"The Godfather\", \"An organized crime dynasty's aging patriarch transfers control of his clandestine empire to his reluctant son.\", 1972, 9, 1533255));\n        addMovie(\"3\", Movie(\"3\", \"The Dark Knight\", \"When the menace known as the Joker wreaks havoc and chaos on the people of Gotham, Batman must accept one of the greatest psychological and physical tests of his ability to fight injustice.\", 2008, 9, 8));\n        addMovie(\"4\", Movie(\"4\", \"12 Angry Men\", \"A jury holdout attempts to prevent a miscarriage of justice by forcing his colleagues to reconsider the evidence.\", 1957, 8, 3));\n        addMovie(\"5\", Movie(\"5\", \"Schindler's List\", \"In German-occupied Poland during World War II, industrialist Oskar Schindler gradually becomes concerned for his Jewish workforce after witnessing their persecution by the Nazis.\", 1993, 8, 5));\n    \taddMovie(\"6\", Movie(\"6\", \"The Lord of the Rings: The Return of the King\", \"Gandalf and Aragorn lead the World of Men against Sauron's army to draw his gaze from Frodo and Sam as they approach Mount Doom with the One Ring.\", 2003, 8, 6));\n        addMovie(\"7\", Movie(\"7\", \"Pulp Fiction\", \"The lives of two mob hitmen, a boxer, a gangster and his wife, and a pair of diner bandits intertwine in four tales of violence and redemption.\", 1994, 8, 6));\n        addMovie(\"8\", Movie(\"8\", \"The Good, the Bad and the Ugly\", \"A bounty hunting scam joins two men in an uneasy alliance against a third in a race to find a fortune in gold buried in a remote cemetery.\", 1966, 8, 6));\n        addMovie(\"9\", Movie(\"9\", \"Forrest Gump\", \"The story of a man with a low IQ who accomplished great things in his life.\", 1994, 8, 6));\n        addMovie(\"10\", Movie(\"10\", \"Inception\", \"A thief who steals corporate secrets through the use of dream-sharing technology is given the inverse task of planting an idea into the mind of a C.E.O.\", 2010, 8, 6));\n\t}\n\n\tmapping (address => UserInfo) public wallets;\n\taddress[] addressArray;\n\tmapping (string => Movie) public movies;\n\tstring[] idArray;\n\n\n\tfunction addUser(address wallet, string memory username) public { // modifi\n\t\twallets[wallet].username = username;\n\t\taddressArray.push(wallet);\n\t}\n\n\tfunction getUsername(address wallet) public view returns(string memory) {\n\t\tstring memory username = wallets[wallet].username;\n\n\t\treturn username;\n\t}\n\n\tfunction addReview(address wallet, Review memory review) public {\n\t\tUserInfo storage user = wallets[wallet];\n\n\t\t// use revert instead?\n\t\tfor (uint i = 0; i < user.reviews.length; i++) {\n            if (keccak256(bytes(user.reviews[i].idMovie)) == keccak256(bytes(review.idMovie))) {\n                return;\n            }\n        }\n\n\t\tuser.reviews.push(review);\n\t\tmovies[review.idMovie].numberOfRatings++;\n\t\tcalculateRating(review.idMovie);\n\n\t\tfor (uint i = 0; i < user.idMoviesToWatch.length; i++) {\n\t\t\tif (keccak256(bytes(user.idMoviesToWatch[i])) == keccak256(bytes(review.idMovie))) {\n\t\t\t\tuser.idMoviesToWatch[i] = user.idMoviesToWatch[user.idMoviesToWatch.length - 1];\n\n\t\t\t\tuser.idMoviesToWatch.pop();\n\t\t\t\tbreak;\n\t\t\t}\n\t\t}\n\t}\n\n\tfunction addToWatchlist(address wallet, string memory idMovie) public {\n\t\tUserInfo storage user = wallets[wallet];\n        \n        for (uint i = 0; i < user.reviews.length; i++) {\n            if (keccak256(bytes(user.reviews[i].idMovie)) == keccak256(bytes(idMovie))) {\n                return;\n            }\n        }\n        \n        for (uint i = 0; i < user.idMoviesToWatch.length; i++) {\n            if (keccak256(bytes(user.idMoviesToWatch[i])) == keccak256(bytes(idMovie))) {\n                return;\n            }\n        }\n\n        user.idMoviesToWatch.push(idMovie);\n\t}\n\n\tfunction getWatchlist(address wallet) public view returns(string[] memory) {\n\t\tstring[] memory watchlist = wallets[wallet].idMoviesToWatch;\n\n\t\treturn watchlist;\n\t}\n\n\tfunction getReviews(address wallet) public view returns(Review[] memory) {\n\t\tReview[] memory reviews = wallets[wallet].reviews;\n\n\t\treturn reviews;\n\t}\n\n\tfunction getReviewsForMovie(string memory movieId) public view returns(Review[] memory) {\n\t\tReview[] memory movieReviews;\n        for (uint256 i = 0; i < addressArray.length; i++) {\n\t\t\tReview[] memory reviews = wallets[addressArray[i]].reviews;\n\t\t\tfor (uint256 j = 0; j < addressArray.length; j++) {\n\t\t\t\tif (keccak256(bytes(movieId)) == keccak256(bytes(reviews[j].idMovie))) {\n\n\t\t\t\t\tmovieReviews[movieReviews.length - 1] = reviews[j];\n\t\t\t\t}\n\t\t\t}\n        }\n\t\treturn movieReviews;\n\t}\n\n\tfunction getMovie(string memory id) public view returns(Movie memory) {\n\t\treturn movies[id];\n\t}\n\n\tfunction getAllMovies() public view returns(Movie[] memory) {\n\t\tMovie[] memory allMovies = new Movie[](idArray.length);\n        for (uint256 i = 0; i < idArray.length; i++) {\n            allMovies[i] = movies[idArray[i]];\n        }\n\t\treturn allMovies;\n\t}\n\n\tfunction getTopRated() public view returns(Movie[] memory){\n\t\tMovie[] memory allMovies = getAllMovies();\n\n\t\tquickSort(allMovies, int(0), int(allMovies.length - 1));\n\n\t\treturn allMovies;\n\t}\n\n\n\tfunction getAverageRating(string memory idMovie) public view returns(uint) {\n\t\tuint averageRating = movies[idMovie].averageRating;\n\n\t\treturn averageRating;\n\t}\n\n\t// The functions below are private and are therefore only used within the context of the contract itself\n\n\tfunction calculateRating(string memory id) private view {\n\t\tMovie memory movie = movies[id];\n\t\tReview[] memory reviews = getReviewsForMovie(id);\n\t\tuint movieRatings;\n\n\t\tfor (uint256 i = 0; i < reviews.length; i++) {\n            movieRatings += reviews[i].rating;\n        }\n\n\t\tmovie.averageRating = movieRatings / reviews.length;\n\t}\n\n\tfunction addMovie(string memory id, Movie memory movie) private {\n\t\tmovies[id] = movie;\n\t\tidArray.push(id);\n\t}\n\n\tfunction deleteMovie(string memory id) private {\n\t\tdelete(movies[id]);\n\t\t    for (uint i = 0; i < idArray.length; i++) {\n\t\t\t\tif (keccak256(bytes(idArray[i])) == keccak256(bytes(id))) {\n\t\t\t\t\tidArray[i] = idArray[idArray.length - 1];\n\t\t\t\t\tidArray.pop();\n\t\t\t\t\tbreak;\n            }\n        }\n\t}\n\n\tfunction quickSort(Movie[] memory arr, int left, int right) internal pure {\n\t\tint i = left;\n\t\tint j = right;\n\t\tif (i == j) return;\n\t\tuint pivot = arr[uint(left + (right - left) / 2)].averageRating;\n\t\twhile (i <= j) {\n\t\t\twhile (arr[uint(i)].averageRating > pivot) i++;\n\t\t\twhile (pivot > arr[uint(j)].averageRating) j--;\n\t\t\tif (i <= j) {\n\t\t\t\t(arr[uint(i)], arr[uint(j)]) = (arr[uint(j)], arr[uint(i)]);\n\t\t\t\ti++;\n\t\t\t\tj--;\n\t\t\t}\n\t\t}\n\t\tif (left < j) quickSort(arr, left, j);\n\t\tif (i < right) quickSort(arr, i, right);\n\t}\n}\n",
  "sourcePath": "/home/mathieu/poly/hackathon/web3/web3-app/backend/contracts/User.sol",
  "compiler": {
    "name": "solc",
    "version": "0.8.13+commit.abaa5c0e.Emscripten.clang"
  },
  "schemaVersion": "3.4.16",
  "updatedAt": "2024-03-31T05:23:25.027Z",
  "networkType": "ethereum",
  "devdoc": {
    "kind": "dev",
    "methods": {},
    "version": 1
  },
  "userdoc": {
    "kind": "user",
    "methods": {},
    "version": 1
  }
}