{
  "contractName": "User",
  "abi": [
    {
      "inputs": [
        {
          "internalType": "address",
          "name": "",
          "type": "address"
        },
        {
          "internalType": "string",
          "name": "",
          "type": "string"
        }
      ],
      "name": "reviewedMovies",
      "outputs": [
        {
          "internalType": "bool",
          "name": "",
          "type": "bool"
        }
      ],
      "stateMutability": "view",
      "type": "function",
      "constant": true
    },
    {
      "inputs": [
        {
          "internalType": "address",
          "name": "",
          "type": "address"
        }
      ],
      "name": "wallets",
      "outputs": [
        {
          "internalType": "string",
          "name": "username",
          "type": "string"
        }
      ],
      "stateMutability": "view",
      "type": "function",
      "constant": true
    },
    {
      "inputs": [
        {
          "internalType": "address",
          "name": "wallet",
          "type": "address"
        },
        {
          "internalType": "string",
          "name": "username",
          "type": "string"
        }
      ],
      "name": "addUser",
      "outputs": [],
      "stateMutability": "nonpayable",
      "type": "function"
    },
    {
      "inputs": [
        {
          "internalType": "address",
          "name": "wallet",
          "type": "address"
        }
      ],
      "name": "getUsername",
      "outputs": [
        {
          "internalType": "string",
          "name": "",
          "type": "string"
        }
      ],
      "stateMutability": "view",
      "type": "function",
      "constant": true
    },
    {
      "inputs": [
        {
          "internalType": "address",
          "name": "wallet",
          "type": "address"
        },
        {
          "components": [
            {
              "internalType": "string",
              "name": "idMovie",
              "type": "string"
            },
            {
              "internalType": "uint256",
              "name": "rating",
              "type": "uint256"
            }
          ],
          "internalType": "struct User.Review",
          "name": "review",
          "type": "tuple"
        }
      ],
      "name": "addReview",
      "outputs": [],
      "stateMutability": "nonpayable",
      "type": "function"
    },
    {
      "inputs": [
        {
          "internalType": "address",
          "name": "wallet",
          "type": "address"
        },
        {
          "internalType": "string",
          "name": "idMovie",
          "type": "string"
        }
      ],
      "name": "addToWatchlist",
      "outputs": [],
      "stateMutability": "nonpayable",
      "type": "function"
    },
    {
      "inputs": [
        {
          "internalType": "address",
          "name": "wallet",
          "type": "address"
        }
      ],
      "name": "getWatchlist",
      "outputs": [
        {
          "internalType": "string[]",
          "name": "",
          "type": "string[]"
        }
      ],
      "stateMutability": "view",
      "type": "function",
      "constant": true
    },
    {
      "inputs": [
        {
          "internalType": "address",
          "name": "wallet",
          "type": "address"
        }
      ],
      "name": "getReviews",
      "outputs": [
        {
          "components": [
            {
              "internalType": "string",
              "name": "idMovie",
              "type": "string"
            },
            {
              "internalType": "uint256",
              "name": "rating",
              "type": "uint256"
            }
          ],
          "internalType": "struct User.Review[]",
          "name": "",
          "type": "tuple[]"
        }
      ],
      "stateMutability": "view",
      "type": "function",
      "constant": true
    }
  ],
  "bytecode": "0x608060405234801561001057600080fd5b5061142f806100206000396000f3fe608060405234801561001057600080fd5b50600436106100885760003560e01c806389b08f111161005b57806389b08f1114610139578063b1f6b18b14610169578063ce43c03214610185578063d790f376146101b557610088565b8063173759d61461008d57806322bb7e87146100bd5780634b68d431146100ed5780634ef5a01714610109575b600080fd5b6100a760048036038101906100a29190610bc5565b6101d1565b6040516100b49190610d4d565b60405180910390f35b6100d760048036038101906100d29190610ea4565b6102f1565b6040516100e49190610f1b565b60405180910390f35b61010760048036038101906101029190610ea4565b610336565b005b610123600480360381019061011e9190610bc5565b610390565b604051610130919061104e565b60405180910390f35b610153600480360381019061014e9190610bc5565b6104d2565b60405161016091906110ba565b60405180910390f35b610183600480360381019061017e9190610ea4565b610578565b005b61019f600480360381019061019a9190610bc5565b6106e3565b6040516101ac91906110ba565b60405180910390f35b6101cf60048036038101906101ca919061117e565b6107bc565b005b606060008060008473ffffffffffffffffffffffffffffffffffffffff1673ffffffffffffffffffffffffffffffffffffffff168152602001908152602001600020600201805480602002602001604051908101604052809291908181526020016000905b828210156102e257838290600052602060002001805461025590611209565b80601f016020809104026020016040519081016040528092919081815260200182805461028190611209565b80156102ce5780601f106102a3576101008083540402835291602001916102ce565b820191906000526020600020905b8154815290600101906020018083116102b157829003601f168201915b505050505081526020019060010190610236565b50505050905080915050919050565b6001602052816000526040600020818051602081018201805184825260208301602085012081835280955050505050506000915091509054906101000a900460ff1681565b806000808473ffffffffffffffffffffffffffffffffffffffff1673ffffffffffffffffffffffffffffffffffffffff168152602001908152602001600020600001908051906020019061038b9291906109e3565b505050565b606060008060008473ffffffffffffffffffffffffffffffffffffffff1673ffffffffffffffffffffffffffffffffffffffff168152602001908152602001600020600101805480602002602001604051908101604052809291908181526020016000905b828210156104c3578382906000526020600020906002020160405180604001604052908160008201805461042890611209565b80601f016020809104026020016040519081016040528092919081815260200182805461045490611209565b80156104a15780601f10610476576101008083540402835291602001916104a1565b820191906000526020600020905b81548152906001019060200180831161048457829003601f168201915b50505050508152602001600182015481525050815260200190600101906103f5565b50505050905080915050919050565b60006020528060005260406000206000915090508060000180546104f590611209565b80601f016020809104026020016040519081016040528092919081815260200182805461052190611209565b801561056e5780601f106105435761010080835404028352916020019161056e565b820191906000526020600020905b81548152906001019060200180831161055157829003601f168201915b5050505050905081565b60008060008473ffffffffffffffffffffffffffffffffffffffff1673ffffffffffffffffffffffffffffffffffffffff168152602001908152602001600020905060005b816001018054905081101561062f5782805190602001208260010182815481106105ea576105e961123a565b5b90600052602060002090600202016000016040516106089190611308565b60405180910390200361061c5750506106df565b80806106279061134e565b9150506105bd565b5060005b816002018054905081101561069e5782805190602001208260020182815481106106605761065f61123a565b5b906000526020600020016040516106779190611308565b60405180910390200361068b5750506106df565b80806106969061134e565b915050610633565b5080600201829080600181540180825580915050600190039060005260206000200160009091909190915090805190602001906106dc9291906109e3565b50505b5050565b606060008060008473ffffffffffffffffffffffffffffffffffffffff1673ffffffffffffffffffffffffffffffffffffffff168152602001908152602001600020600001805461073390611209565b80601f016020809104026020016040519081016040528092919081815260200182805461075f90611209565b80156107ac5780601f10610781576101008083540402835291602001916107ac565b820191906000526020600020905b81548152906001019060200180831161078f57829003601f168201915b5050505050905080915050919050565b60008060008473ffffffffffffffffffffffffffffffffffffffff1673ffffffffffffffffffffffffffffffffffffffff168152602001908152602001600020905060005b8160010180549050811015610877578260000151805190602001208260010182815481106108325761083161123a565b5b90600052602060002090600202016000016040516108509190611308565b6040518091039020036108645750506109df565b808061086f9061134e565b915050610801565b508060010182908060018154018082558091505060019003906000526020600020906002020160009091909190915060008201518160000190805190602001906108c29291906109e3565b5060208201518160010155505060005b81600201805490508110156109dc578260000151805190602001208260020182815481106109035761090261123a565b5b9060005260206000200160405161091a9190611308565b6040518091039020036109c957816002016001836002018054905061093f9190611396565b815481106109505761094f61123a565b5b906000526020600020018260020182815481106109705761096f61123a565b5b9060005260206000200190805461098690611209565b610991929190610a69565b50816002018054806109a6576109a56113ca565b5b6001900381819060005260206000200160006109c29190610af6565b90556109dc565b80806109d49061134e565b9150506108d2565b50505b5050565b8280546109ef90611209565b90600052602060002090601f016020900481019282610a115760008555610a58565b82601f10610a2a57805160ff1916838001178555610a58565b82800160010185558215610a58579182015b82811115610a57578251825591602001919060010190610a3c565b5b509050610a659190610b36565b5090565b828054610a7590611209565b90600052602060002090601f016020900481019282610a975760008555610ae5565b82601f10610aa85780548555610ae5565b82800160010185558215610ae557600052602060002091601f016020900482015b82811115610ae4578254825591600101919060010190610ac9565b5b509050610af29190610b36565b5090565b508054610b0290611209565b6000825580601f10610b145750610b33565b601f016020900490600052602060002090810190610b329190610b36565b5b50565b5b80821115610b4f576000816000905550600101610b37565b5090565b6000604051905090565b600080fd5b600080fd5b600073ffffffffffffffffffffffffffffffffffffffff82169050919050565b6000610b9282610b67565b9050919050565b610ba281610b87565b8114610bad57600080fd5b50565b600081359050610bbf81610b99565b92915050565b600060208284031215610bdb57610bda610b5d565b5b6000610be984828501610bb0565b91505092915050565b600081519050919050565b600082825260208201905092915050565b6000819050602082019050919050565b600081519050919050565b600082825260208201905092915050565b60005b83811015610c58578082015181840152602081019050610c3d565b83811115610c67576000848401525b50505050565b6000601f19601f8301169050919050565b6000610c8982610c1e565b610c938185610c29565b9350610ca3818560208601610c3a565b610cac81610c6d565b840191505092915050565b6000610cc38383610c7e565b905092915050565b6000602082019050919050565b6000610ce382610bf2565b610ced8185610bfd565b935083602082028501610cff85610c0e565b8060005b85811015610d3b5784840389528151610d1c8582610cb7565b9450610d2783610ccb565b925060208a01995050600181019050610d03565b50829750879550505050505092915050565b60006020820190508181036000830152610d678184610cd8565b905092915050565b600080fd5b600080fd5b7f4e487b7100000000000000000000000000000000000000000000000000000000600052604160045260246000fd5b610db182610c6d565b810181811067ffffffffffffffff82111715610dd057610dcf610d79565b5b80604052505050565b6000610de3610b53565b9050610def8282610da8565b919050565b600067ffffffffffffffff821115610e0f57610e0e610d79565b5b610e1882610c6d565b9050602081019050919050565b82818337600083830152505050565b6000610e47610e4284610df4565b610dd9565b905082815260208101848484011115610e6357610e62610d74565b5b610e6e848285610e25565b509392505050565b600082601f830112610e8b57610e8a610d6f565b5b8135610e9b848260208601610e34565b91505092915050565b60008060408385031215610ebb57610eba610b5d565b5b6000610ec985828601610bb0565b925050602083013567ffffffffffffffff811115610eea57610ee9610b62565b5b610ef685828601610e76565b9150509250929050565b60008115159050919050565b610f1581610f00565b82525050565b6000602082019050610f306000830184610f0c565b92915050565b600081519050919050565b600082825260208201905092915050565b6000819050602082019050919050565b6000819050919050565b610f7581610f62565b82525050565b60006040830160008301518482036000860152610f988282610c7e565b9150506020830151610fad6020860182610f6c565b508091505092915050565b6000610fc48383610f7b565b905092915050565b6000602082019050919050565b6000610fe482610f36565b610fee8185610f41565b93508360208202850161100085610f52565b8060005b8581101561103c578484038952815161101d8582610fb8565b945061102883610fcc565b925060208a01995050600181019050611004565b50829750879550505050505092915050565b600060208201905081810360008301526110688184610fd9565b905092915050565b600082825260208201905092915050565b600061108c82610c1e565b6110968185611070565b93506110a6818560208601610c3a565b6110af81610c6d565b840191505092915050565b600060208201905081810360008301526110d48184611081565b905092915050565b600080fd5b600080fd5b6110ef81610f62565b81146110fa57600080fd5b50565b60008135905061110c816110e6565b92915050565b600060408284031215611128576111276110dc565b5b6111326040610dd9565b9050600082013567ffffffffffffffff811115611152576111516110e1565b5b61115e84828501610e76565b6000830152506020611172848285016110fd565b60208301525092915050565b6000806040838503121561119557611194610b5d565b5b60006111a385828601610bb0565b925050602083013567ffffffffffffffff8111156111c4576111c3610b62565b5b6111d085828601611112565b9150509250929050565b7f4e487b7100000000000000000000000000000000000000000000000000000000600052602260045260246000fd5b6000600282049050600182168061122157607f821691505b602082108103611234576112336111da565b5b50919050565b7f4e487b7100000000000000000000000000000000000000000000000000000000600052603260045260246000fd5b600081905092915050565b60008190508160005260206000209050919050565b6000815461129681611209565b6112a08186611269565b945060018216600081146112bb57600181146112cc576112ff565b60ff198316865281860193506112ff565b6112d585611274565b60005b838110156112f7578154818901526001820191506020810190506112d8565b838801955050505b50505092915050565b60006113148284611289565b915081905092915050565b7f4e487b7100000000000000000000000000000000000000000000000000000000600052601160045260246000fd5b600061135982610f62565b91507fffffffffffffffffffffffffffffffffffffffffffffffffffffffffffffffff820361138b5761138a61131f565b5b600182019050919050565b60006113a182610f62565b91506113ac83610f62565b9250828210156113bf576113be61131f565b5b828203905092915050565b7f4e487b7100000000000000000000000000000000000000000000000000000000600052603160045260246000fdfea2646970667358221220575768962bd63ebb1896909ff7d42a840ccbd624908248aa0e380a4b48037b4d64736f6c634300080d0033",
  "immutableReferences": {},
  "source": "// SPDX-License-Identifier: MIT\n// Tells the Solidity compiler to compile only from v0.8.13 to v0.9.0\npragma solidity ^0.8.13;\n\n// This is just a simple example of a coin-like contract.\n// It is not ERC20 compatible and cannot be expected to talk to other\n// coin/token contracts.\n\ncontract User {\n\tstruct Review {\n\t\tstring idMovie;\n\t\tuint rating;\n\t}\n\n\tstruct UserInfo {\n\t\tstring username;\n\t\tReview[] reviews;\n\t\tstring[] idMoviesToWatch;\n\t}\n\n\tmapping (address => UserInfo) public wallets;\n\tmapping (address => mapping(string => bool)) public reviewedMovies;\n\n\n\tfunction addUser(address wallet, string memory username) public {\n\t\twallets[wallet].username = username;\n\t}\n\n\tfunction getUsername(address wallet) public view returns(string memory) {\n\t\tstring memory username = wallets[wallet].username;\n\n\t\treturn username;\n\t}\n\n\tfunction addReview(address wallet, Review memory review) public {\n\t\tUserInfo storage user = wallets[wallet];\n\n\t\t// use revert instead?\n\t\tfor (uint i = 0; i < user.reviews.length; i++) {\n            if (keccak256(bytes(user.reviews[i].idMovie)) == keccak256(bytes(review.idMovie))) {\n                return;\n            }\n        }\n\n\t\tuser.reviews.push(review);\n\n\t\tfor (uint i = 0; i < user.idMoviesToWatch.length; i++) {\n\t\t\tif (keccak256(bytes(user.idMoviesToWatch[i])) == keccak256(bytes(review.idMovie))) {\n\t\t\t\tuser.idMoviesToWatch[i] = user.idMoviesToWatch[user.idMoviesToWatch.length - 1];\n\n\t\t\t\tuser.idMoviesToWatch.pop();\n\t\t\t\tbreak;\n\t\t\t}\n\t\t}\n\t}\n\n\tfunction addToWatchlist(address wallet, string memory idMovie) public {\n\t\tUserInfo storage user = wallets[wallet];\n        \n        for (uint i = 0; i < user.reviews.length; i++) {\n            if (keccak256(bytes(user.reviews[i].idMovie)) == keccak256(bytes(idMovie))) {\n                return;\n            }\n        }\n        \n        for (uint i = 0; i < user.idMoviesToWatch.length; i++) {\n            if (keccak256(bytes(user.idMoviesToWatch[i])) == keccak256(bytes(idMovie))) {\n                return;\n            }\n        }\n\n        user.idMoviesToWatch.push(idMovie);\n\t}\n\n\tfunction getWatchlist(address wallet) public view returns(string[] memory) {\n\t\tstring[] memory watchlist = wallets[wallet].idMoviesToWatch;\n\n\t\treturn watchlist;\n\t}\n\n\tfunction getReviews(address wallet) public view returns(Review[] memory) {\n\t\tReview[] memory reviews = wallets[wallet].reviews;\n\n\t\treturn reviews;\n\t}\n}\n",
  "sourcePath": "C:\\Users\\Admin\\OneDrive\\Bureau\\WEB3-HACK\\web3-app\\backend\\contracts\\User.sol",
  "compiler": {
    "name": "solc",
    "version": "0.8.13+commit.abaa5c0e.Emscripten.clang"
  },
  "schemaVersion": "3.4.16",
  "updatedAt": "2024-03-30T21:04:14.962Z",
  "networkType": "ethereum",
  "devdoc": {
    "kind": "dev",
    "methods": {},
    "version": 1
  },
  "userdoc": {
    "kind": "user",
    "methods": {},
    "version": 1
  }
}