{
  "contractName": "User",
  "abi": [
    {
      "inputs": [],
      "stateMutability": "nonpayable",
      "type": "constructor"
    },
    {
      "inputs": [
        {
          "internalType": "string",
          "name": "",
          "type": "string"
        }
      ],
      "name": "movies",
      "outputs": [
        {
          "internalType": "string",
          "name": "id",
          "type": "string"
        },
        {
          "internalType": "string",
          "name": "title",
          "type": "string"
        },
        {
          "internalType": "string",
          "name": "description",
          "type": "string"
        },
        {
          "internalType": "uint256",
          "name": "releaseYear",
          "type": "uint256"
        },
        {
          "internalType": "uint256",
          "name": "averageRating",
          "type": "uint256"
        }
      ],
      "stateMutability": "view",
      "type": "function",
      "constant": true
    },
    {
      "inputs": [
        {
          "internalType": "address",
          "name": "",
          "type": "address"
        }
      ],
      "name": "wallets",
      "outputs": [
        {
          "internalType": "string",
          "name": "username",
          "type": "string"
        }
      ],
      "stateMutability": "view",
      "type": "function",
      "constant": true
    },
    {
      "inputs": [
        {
          "internalType": "address",
          "name": "wallet",
          "type": "address"
        },
        {
          "internalType": "string",
          "name": "username",
          "type": "string"
        }
      ],
      "name": "addUser",
      "outputs": [],
      "stateMutability": "nonpayable",
      "type": "function"
    },
    {
      "inputs": [
        {
          "internalType": "address",
          "name": "wallet",
          "type": "address"
        }
      ],
      "name": "getUsername",
      "outputs": [
        {
          "internalType": "string",
          "name": "",
          "type": "string"
        }
      ],
      "stateMutability": "view",
      "type": "function",
      "constant": true
    },
    {
      "inputs": [
        {
          "internalType": "address",
          "name": "wallet",
          "type": "address"
        },
        {
          "components": [
            {
              "internalType": "string",
              "name": "idMovie",
              "type": "string"
            },
            {
              "internalType": "uint256",
              "name": "rating",
              "type": "uint256"
            }
          ],
          "internalType": "struct User.Review",
          "name": "review",
          "type": "tuple"
        }
      ],
      "name": "addReview",
      "outputs": [],
      "stateMutability": "nonpayable",
      "type": "function"
    },
    {
      "inputs": [
        {
          "internalType": "address",
          "name": "wallet",
          "type": "address"
        },
        {
          "internalType": "string",
          "name": "idMovie",
          "type": "string"
        }
      ],
      "name": "addToWatchlist",
      "outputs": [],
      "stateMutability": "nonpayable",
      "type": "function"
    },
    {
      "inputs": [
        {
          "internalType": "address",
          "name": "wallet",
          "type": "address"
        },
        {
          "internalType": "string",
          "name": "idMovie",
          "type": "string"
        }
      ],
      "name": "removeFromWatchlist",
      "outputs": [],
      "stateMutability": "nonpayable",
      "type": "function"
    },
    {
      "inputs": [
        {
          "internalType": "address",
          "name": "wallet",
          "type": "address"
        }
      ],
      "name": "getWatchlist",
      "outputs": [
        {
          "components": [
            {
              "internalType": "string",
              "name": "id",
              "type": "string"
            },
            {
              "internalType": "string",
              "name": "title",
              "type": "string"
            },
            {
              "internalType": "string",
              "name": "description",
              "type": "string"
            },
            {
              "internalType": "uint256",
              "name": "releaseYear",
              "type": "uint256"
            },
            {
              "internalType": "uint256",
              "name": "averageRating",
              "type": "uint256"
            }
          ],
          "internalType": "struct User.Movie[]",
          "name": "",
          "type": "tuple[]"
        }
      ],
      "stateMutability": "view",
      "type": "function",
      "constant": true
    },
    {
      "inputs": [
        {
          "internalType": "address",
          "name": "wallet",
          "type": "address"
        }
      ],
      "name": "getReviews",
      "outputs": [
        {
          "components": [
            {
              "internalType": "string",
              "name": "id",
              "type": "string"
            },
            {
              "internalType": "string",
              "name": "title",
              "type": "string"
            },
            {
              "internalType": "string",
              "name": "description",
              "type": "string"
            },
            {
              "internalType": "uint256",
              "name": "releaseYear",
              "type": "uint256"
            },
            {
              "internalType": "uint256",
              "name": "averageRating",
              "type": "uint256"
            },
            {
              "internalType": "uint256",
              "name": "rating",
              "type": "uint256"
            }
          ],
          "internalType": "struct User.MovieWithRating[]",
          "name": "",
          "type": "tuple[]"
        }
      ],
      "stateMutability": "view",
      "type": "function",
      "constant": true
    },
    {
      "inputs": [
        {
          "internalType": "string",
          "name": "movieId",
          "type": "string"
        }
      ],
      "name": "getReviewsForMovie",
      "outputs": [
        {
          "components": [
            {
              "internalType": "string",
              "name": "idMovie",
              "type": "string"
            },
            {
              "internalType": "uint256",
              "name": "rating",
              "type": "uint256"
            }
          ],
          "internalType": "struct User.Review[]",
          "name": "",
          "type": "tuple[]"
        }
      ],
      "stateMutability": "view",
      "type": "function",
      "constant": true
    },
    {
      "inputs": [
        {
          "internalType": "string",
          "name": "id",
          "type": "string"
        }
      ],
      "name": "getMovie",
      "outputs": [
        {
          "components": [
            {
              "internalType": "string",
              "name": "id",
              "type": "string"
            },
            {
              "internalType": "string",
              "name": "title",
              "type": "string"
            },
            {
              "internalType": "string",
              "name": "description",
              "type": "string"
            },
            {
              "internalType": "uint256",
              "name": "releaseYear",
              "type": "uint256"
            },
            {
              "internalType": "uint256",
              "name": "averageRating",
              "type": "uint256"
            }
          ],
          "internalType": "struct User.Movie",
          "name": "",
          "type": "tuple"
        }
      ],
      "stateMutability": "view",
      "type": "function",
      "constant": true
    },
    {
      "inputs": [],
      "name": "getAllMovies",
      "outputs": [
        {
          "components": [
            {
              "internalType": "string",
              "name": "id",
              "type": "string"
            },
            {
              "internalType": "string",
              "name": "title",
              "type": "string"
            },
            {
              "internalType": "string",
              "name": "description",
              "type": "string"
            },
            {
              "internalType": "uint256",
              "name": "releaseYear",
              "type": "uint256"
            },
            {
              "internalType": "uint256",
              "name": "averageRating",
              "type": "uint256"
            }
          ],
          "internalType": "struct User.Movie[]",
          "name": "",
          "type": "tuple[]"
        }
      ],
      "stateMutability": "view",
      "type": "function",
      "constant": true
    },
    {
      "inputs": [],
      "name": "getTopRated",
      "outputs": [
        {
          "components": [
            {
              "internalType": "string",
              "name": "id",
              "type": "string"
            },
            {
              "internalType": "string",
              "name": "title",
              "type": "string"
            },
            {
              "internalType": "string",
              "name": "description",
              "type": "string"
            },
            {
              "internalType": "uint256",
              "name": "releaseYear",
              "type": "uint256"
            },
            {
              "internalType": "uint256",
              "name": "averageRating",
              "type": "uint256"
            }
          ],
          "internalType": "struct User.Movie[]",
          "name": "",
          "type": "tuple[]"
        }
      ],
      "stateMutability": "view",
      "type": "function",
      "constant": true
    },
    {
      "inputs": [
        {
          "internalType": "string",
          "name": "idMovie",
          "type": "string"
        }
      ],
      "name": "getAverageRating",
      "outputs": [
        {
          "internalType": "uint256",
          "name": "",
          "type": "uint256"
        }
      ],
      "stateMutability": "view",
      "type": "function",
      "constant": true
    }
  ],
  "bytecode": "0x60806040523480156200001157600080fd5b50620001056040518060400160405280600181526020017f31000000000000000000000000000000000000000000000000000000000000008152506040518060a001604052806040518060400160405280600181526020017f310000000000000000000000000000000000000000000000000000000000000081525081526020016040518060400160405280601881526020017f54686520536861777368616e6b20526564656d7074696f6e000000000000000081525081526020016040518060a0016040528060768152602001620045036076913981526020016107ca8152602001600a8152506200097a60201b60201c565b620001f86040518060400160405280600181526020017f32000000000000000000000000000000000000000000000000000000000000008152506040518060a001604052806040518060400160405280600181526020017f320000000000000000000000000000000000000000000000000000000000000081525081526020016040518060400160405280600d81526020017f54686520476f646661746865720000000000000000000000000000000000000081525081526020016040518060a00160405280606e81526020016200436b606e913981526020016107b4815260200160098152506200097a60201b60201c565b620002eb6040518060400160405280600181526020017f33000000000000000000000000000000000000000000000000000000000000008152506040518060a001604052806040518060400160405280600181526020017f330000000000000000000000000000000000000000000000000000000000000081525081526020016040518060400160405280600f81526020017f546865204461726b204b6e69676874000000000000000000000000000000000081525081526020016040518060e0016040528060bd81526020016200468060bd913981526020016107d8815260200160098152506200097a60201b60201c565b620003de6040518060400160405280600181526020017f34000000000000000000000000000000000000000000000000000000000000008152506040518060a001604052806040518060400160405280600181526020017f340000000000000000000000000000000000000000000000000000000000000081525081526020016040518060400160405280600c81526020017f313220416e677279204d656e000000000000000000000000000000000000000081525081526020016040518060a00160405280607181526020016200473d6071913981526020016107a5815260200160088152506200097a60201b60201c565b620004d16040518060400160405280600181526020017f35000000000000000000000000000000000000000000000000000000000000008152506040518060a001604052806040518060400160405280600181526020017f350000000000000000000000000000000000000000000000000000000000000081525081526020016040518060400160405280601081526020017f536368696e646c65722773204c6973740000000000000000000000000000000081525081526020016040518060e0016040528060b281526020016200422f60b2913981526020016107c9815260200160088152506200097a60201b60201c565b620005a86040518060400160405280600181526020017f36000000000000000000000000000000000000000000000000000000000000008152506040518060a001604052806040518060400160405280600181526020017f360000000000000000000000000000000000000000000000000000000000000081525081526020016040518060600160405280602d815260200162004608602d913981526020016040518060c0016040528060928152602001620044716092913981526020016107d3815260200160088152506200097a60201b60201c565b6200069b6040518060400160405280600181526020017f37000000000000000000000000000000000000000000000000000000000000008152506040518060a001604052806040518060400160405280600181526020017f370000000000000000000000000000000000000000000000000000000000000081525081526020016040518060400160405280600c81526020017f50756c702046696374696f6e000000000000000000000000000000000000000081525081526020016040518060c00160405280608f815260200162004579608f913981526020016107ca815260200160088152506200097a60201b60201c565b6200078e6040518060400160405280600181526020017f38000000000000000000000000000000000000000000000000000000000000008152506040518060a001604052806040518060400160405280600181526020017f380000000000000000000000000000000000000000000000000000000000000081525081526020016040518060400160405280601e81526020017f54686520476f6f642c207468652042616420616e64207468652055676c79000081525081526020016040518060c00160405280608a8152602001620042e1608a913981526020016107ae815260200160088152506200097a60201b60201c565b620008816040518060400160405280600181526020017f39000000000000000000000000000000000000000000000000000000000000008152506040518060a001604052806040518060400160405280600181526020017f390000000000000000000000000000000000000000000000000000000000000081525081526020016040518060400160405280600c81526020017f466f72726573742047756d70000000000000000000000000000000000000000081525081526020016040518060800160405280604b815260200162004635604b913981526020016107ca815260200160088152506200097a60201b60201c565b620009746040518060400160405280600281526020017f31300000000000000000000000000000000000000000000000000000000000008152506040518060a001604052806040518060400160405280600281526020017f313000000000000000000000000000000000000000000000000000000000000081525081526020016040518060400160405280600981526020017f496e63657074696f6e000000000000000000000000000000000000000000000081525081526020016040518060c0016040528060988152602001620043d96098913981526020016107da815260200160088152506200097a60201b60201c565b62000c01565b806002836040516200098d919062000b84565b90815260200160405180910390206000820151816000019080519060200190620009b992919062000a51565b506020820151816001019080519060200190620009d892919062000a51565b506040820151816002019080519060200190620009f792919062000a51565b50606082015181600301556080820151816004015590505060038290806001815401808255809150506001900390600052602060002001600090919091909150908051906020019062000a4c92919062000a51565b505050565b82805462000a5f9062000bcc565b90600052602060002090601f01602090048101928262000a83576000855562000acf565b82601f1062000a9e57805160ff191683800117855562000acf565b8280016001018555821562000acf579182015b8281111562000ace57825182559160200191906001019062000ab1565b5b50905062000ade919062000ae2565b5090565b5b8082111562000afd57600081600090555060010162000ae3565b5090565b600081519050919050565b600081905092915050565b60005b8381101562000b3757808201518184015260208101905062000b1a565b8381111562000b47576000848401525b50505050565b600062000b5a8262000b01565b62000b66818562000b0c565b935062000b7881856020860162000b17565b80840191505092915050565b600062000b92828462000b4d565b915081905092915050565b7f4e487b7100000000000000000000000000000000000000000000000000000000600052602260045260246000fd5b6000600282049050600182168062000be557607f821691505b60208210810362000bfb5762000bfa62000b9d565b5b50919050565b61361e8062000c116000396000f3fe608060405234801561001057600080fd5b50600436106100ea5760003560e01c8063b1f6b18b1161008c578063d790f37611610066578063d790f37614610299578063e16f0065146102b5578063e3aaf617146102d3578063feee2e4c14610303576100ea565b8063b1f6b18b1461021d578063ca3e22bd14610239578063ce43c03214610269576100ea565b80634ef5a017116100c85780634ef5a0171461016f578063710a21cf1461019f57806389b08f11146101bd578063998863fd146101ed576100ea565b8063173759d6146100ef5780632d304caf1461011f5780634b68d43114610153575b600080fd5b6101096004803603810190610104919061268a565b61031f565b60405161011691906128af565b60405180910390f35b61013960048036038101906101349190612a06565b61088f565b60405161014a959493929190612aa8565b60405180910390f35b61016d60048036038101906101689190612b10565b610a73565b005b6101896004803603810190610184919061268a565b610bcc565b6040516101969190612cc5565b60405180910390f35b6101a761118f565b6040516101b491906128af565b60405180910390f35b6101d760048036038101906101d2919061268a565b6111bd565b6040516101e49190612ce7565b60405180910390f35b61020760048036038101906102029190612a06565b611263565b6040516102149190612d09565b60405180910390f35b61023760048036038101906102329190612b10565b611293565b005b610253600480360381019061024e9190612a06565b6113fe565b6040516102609190612e23565b60405180910390f35b610283600480360381019061027e919061268a565b611896565b6040516102909190612ce7565b60405180910390f35b6102b360048036038101906102ae9190612ee7565b61196f565b005b6102bd611be2565b6040516102ca91906128af565b60405180910390f35b6102ed60048036038101906102e89190612a06565b611e9a565b6040516102fa9190612fc7565b60405180910390f35b61031d60048036038101906103189190612b10565b61209c565b005b606060008060008473ffffffffffffffffffffffffffffffffffffffff1673ffffffffffffffffffffffffffffffffffffffff16815260200190815260200160002060405180606001604052908160008201805461037c90613018565b80601f01602080910402602001604051908101604052809291908181526020018280546103a890613018565b80156103f55780601f106103ca576101008083540402835291602001916103f5565b820191906000526020600020905b8154815290600101906020018083116103d857829003601f168201915b5050505050815260200160018201805480602002602001604051908101604052809291908181526020016000905b828210156104f1578382906000526020600020906002020160405180604001604052908160008201805461045690613018565b80601f016020809104026020016040519081016040528092919081815260200182805461048290613018565b80156104cf5780601f106104a4576101008083540402835291602001916104cf565b820191906000526020600020905b8154815290600101906020018083116104b257829003601f168201915b5050505050815260200160018201548152505081526020019060010190610423565b50505050815260200160028201805480602002602001604051908101604052809291908181526020016000905b828210156105ca57838290600052602060002001805461053d90613018565b80601f016020809104026020016040519081016040528092919081815260200182805461056990613018565b80156105b65780601f1061058b576101008083540402835291602001916105b6565b820191906000526020600020905b81548152906001019060200180831161059957829003601f168201915b50505050508152602001906001019061051e565b505050508152505090506000816040015151905060008167ffffffffffffffff8111156105fa576105f96128db565b5b60405190808252806020026020018201604052801561063357816020015b610620612429565b8152602001906001900390816106185790505b50905060005b828110156108835760028460400151828151811061065a57610659613049565b5b602002602001015160405161066f91906130b4565b90815260200160405180910390206040518060a001604052908160008201805461069890613018565b80601f01602080910402602001604051908101604052809291908181526020018280546106c490613018565b80156107115780601f106106e657610100808354040283529160200191610711565b820191906000526020600020905b8154815290600101906020018083116106f457829003601f168201915b5050505050815260200160018201805461072a90613018565b80601f016020809104026020016040519081016040528092919081815260200182805461075690613018565b80156107a35780601f10610778576101008083540402835291602001916107a3565b820191906000526020600020905b81548152906001019060200180831161078657829003601f168201915b505050505081526020016002820180546107bc90613018565b80601f01602080910402602001604051908101604052809291908181526020018280546107e890613018565b80156108355780601f1061080a57610100808354040283529160200191610835565b820191906000526020600020905b81548152906001019060200180831161081857829003601f168201915b505050505081526020016003820154815260200160048201548152505082828151811061086557610864613049565b5b6020026020010181905250808061087b906130fa565b915050610639565b50809350505050919050565b6002818051602081018201805184825260208301602085012081835280955050505050506000915090508060000180546108c890613018565b80601f01602080910402602001604051908101604052809291908181526020018280546108f490613018565b80156109415780601f1061091657610100808354040283529160200191610941565b820191906000526020600020905b81548152906001019060200180831161092457829003601f168201915b50505050509080600101805461095690613018565b80601f016020809104026020016040519081016040528092919081815260200182805461098290613018565b80156109cf5780601f106109a4576101008083540402835291602001916109cf565b820191906000526020600020905b8154815290600101906020018083116109b257829003601f168201915b5050505050908060020180546109e490613018565b80601f0160208091040260200160405190810160405280929190818152602001828054610a1090613018565b8015610a5d5780601f10610a3257610100808354040283529160200191610a5d565b820191906000526020600020905b815481529060010190602001808311610a4057829003601f168201915b5050505050908060030154908060040154905085565b60005b600180549050811015610b0d578273ffffffffffffffffffffffffffffffffffffffff1660018281548110610aae57610aad613049565b5b9060005260206000200160009054906101000a900473ffffffffffffffffffffffffffffffffffffffff1673ffffffffffffffffffffffffffffffffffffffff1603610afa5750610bc8565b8080610b05906130fa565b915050610a76565b50806000808473ffffffffffffffffffffffffffffffffffffffff1673ffffffffffffffffffffffffffffffffffffffff1681526020019081526020016000206000019080519060200190610b63929190612458565b506001829080600181540180825580915050600190039060005260206000200160009091909190916101000a81548173ffffffffffffffffffffffffffffffffffffffff021916908373ffffffffffffffffffffffffffffffffffffffff1602179055505b5050565b606060008060008473ffffffffffffffffffffffffffffffffffffffff1673ffffffffffffffffffffffffffffffffffffffff168152602001908152602001600020604051806060016040529081600082018054610c2990613018565b80601f0160208091040260200160405190810160405280929190818152602001828054610c5590613018565b8015610ca25780601f10610c7757610100808354040283529160200191610ca2565b820191906000526020600020905b815481529060010190602001808311610c8557829003601f168201915b5050505050815260200160018201805480602002602001604051908101604052809291908181526020016000905b82821015610d9e5783829060005260206000209060020201604051806040016040529081600082018054610d0390613018565b80601f0160208091040260200160405190810160405280929190818152602001828054610d2f90613018565b8015610d7c5780601f10610d5157610100808354040283529160200191610d7c565b820191906000526020600020905b815481529060010190602001808311610d5f57829003601f168201915b5050505050815260200160018201548152505081526020019060010190610cd0565b50505050815260200160028201805480602002602001604051908101604052809291908181526020016000905b82821015610e77578382906000526020600020018054610dea90613018565b80601f0160208091040260200160405190810160405280929190818152602001828054610e1690613018565b8015610e635780601f10610e3857610100808354040283529160200191610e63565b820191906000526020600020905b815481529060010190602001808311610e4657829003601f168201915b505050505081526020019060010190610dcb565b50505050815250509050600081602001515167ffffffffffffffff811115610ea257610ea16128db565b5b604051908082528060200260200182016040528015610edb57816020015b610ec86124de565b815260200190600190039081610ec05790505b50905060005b82602001515181101561118457600083602001518281518110610f0757610f06613049565b5b60200260200101519050600060028260000151604051610f2791906130b4565b90815260200160405180910390206040518060a0016040529081600082018054610f5090613018565b80601f0160208091040260200160405190810160405280929190818152602001828054610f7c90613018565b8015610fc95780601f10610f9e57610100808354040283529160200191610fc9565b820191906000526020600020905b815481529060010190602001808311610fac57829003601f168201915b50505050508152602001600182018054610fe290613018565b80601f016020809104026020016040519081016040528092919081815260200182805461100e90613018565b801561105b5780601f106110305761010080835404028352916020019161105b565b820191906000526020600020905b81548152906001019060200180831161103e57829003601f168201915b5050505050815260200160028201805461107490613018565b80601f01602080910402602001604051908101604052809291908181526020018280546110a090613018565b80156110ed5780601f106110c2576101008083540402835291602001916110ed565b820191906000526020600020905b8154815290600101906020018083116110d057829003601f168201915b505050505081526020016003820154815260200160048201548152505090506040518060c001604052808260000151815260200182602001518152602001826040015181526020018260600151815260200182608001518152602001836020015181525084848151811061116457611163613049565b5b60200260200101819052505050808061117c906130fa565b915050610ee1565b508092505050919050565b6060600061119b611be2565b90506111b6816000600184516111b19190613142565b6121ed565b8091505090565b60006020528060005260406000206000915090508060000180546111e090613018565b80601f016020809104026020016040519081016040528092919081815260200182805461120c90613018565b80156112595780601f1061122e57610100808354040283529160200191611259565b820191906000526020600020905b81548152906001019060200180831161123c57829003601f168201915b5050505050905081565b60008060028360405161127691906130b4565b908152602001604051809103902060040154905080915050919050565b60008060008473ffffffffffffffffffffffffffffffffffffffff1673ffffffffffffffffffffffffffffffffffffffff168152602001908152602001600020905060005b816001018054905081101561134a57828051906020012082600101828154811061130557611304613049565b5b90600052602060002090600202016000016040516113239190613215565b6040518091039020036113375750506113fa565b8080611342906130fa565b9150506112d8565b5060005b81600201805490508110156113b957828051906020012082600201828154811061137b5761137a613049565b5b906000526020600020016040516113929190613215565b6040518091039020036113a65750506113fa565b80806113b1906130fa565b91505061134e565b5080600201829080600181540180825580915050600190039060005260206000200160009091909190915090805190602001906113f7929190612458565b50505b5050565b60606000805b6001805490508110156115fc5760008060006001848154811061142a57611429613049565b5b9060005260206000200160009054906101000a900473ffffffffffffffffffffffffffffffffffffffff1673ffffffffffffffffffffffffffffffffffffffff1673ffffffffffffffffffffffffffffffffffffffff168152602001908152602001600020600101805480602002602001604051908101604052809291908181526020016000905b8282101561158057838290600052602060002090600202016040518060400160405290816000820180546114e590613018565b80601f016020809104026020016040519081016040528092919081815260200182805461151190613018565b801561155e5780601f106115335761010080835404028352916020019161155e565b820191906000526020600020905b81548152906001019060200180831161154157829003601f168201915b50505050508152602001600182015481525050815260200190600101906114b2565b50505050905060005b81518110156115e7578181815181106115a5576115a4613049565b5b602002602001015160000151805190602001208680519060200120036115d45783806115d0906130fa565b9450505b80806115df906130fa565b915050611589565b505080806115f4906130fa565b915050611404565b5060008167ffffffffffffffff811115611619576116186128db565b5b60405190808252806020026020018201604052801561165257816020015b61163f612514565b8152602001906001900390816116375790505b5090506000805b60018054905081101561188a5760008060006001848154811061167f5761167e613049565b5b9060005260206000200160009054906101000a900473ffffffffffffffffffffffffffffffffffffffff1673ffffffffffffffffffffffffffffffffffffffff1673ffffffffffffffffffffffffffffffffffffffff168152602001908152602001600020600101805480602002602001604051908101604052809291908181526020016000905b828210156117d5578382906000526020600020906002020160405180604001604052908160008201805461173a90613018565b80601f016020809104026020016040519081016040528092919081815260200182805461176690613018565b80156117b35780601f10611788576101008083540402835291602001916117b3565b820191906000526020600020905b81548152906001019060200180831161179657829003601f168201915b5050505050815260200160018201548152505081526020019060010190611707565b50505050905060005b8151811015611875578181815181106117fa576117f9613049565b5b602002602001015160000151805190602001208880519060200120036118625781818151811061182d5761182c613049565b5b602002602001015185858151811061184857611847613049565b5b6020026020010181905250838061185e906130fa565b9450505b808061186d906130fa565b9150506117de565b50508080611882906130fa565b915050611659565b50819350505050919050565b606060008060008473ffffffffffffffffffffffffffffffffffffffff1673ffffffffffffffffffffffffffffffffffffffff16815260200190815260200160002060000180546118e690613018565b80601f016020809104026020016040519081016040528092919081815260200182805461191290613018565b801561195f5780601f106119345761010080835404028352916020019161195f565b820191906000526020600020905b81548152906001019060200180831161194257829003601f168201915b5050505050905080915050919050565b6119ae826040518060400160405280600781526020017f6d61746869657500000000000000000000000000000000000000000000000000815250610a73565b60008060008473ffffffffffffffffffffffffffffffffffffffff1673ffffffffffffffffffffffffffffffffffffffff168152602001908152602001600020905060005b8160010180549050811015611a6957826000015180519060200120826001018281548110611a2457611a23613049565b5b9060005260206000209060020201600001604051611a429190613215565b604051809103902003611a56575050611bde565b8080611a61906130fa565b9150506119f3565b50806001018290806001815401808255809150506001900390600052602060002090600202016000909190919091506000820151816000019080519060200190611ab4929190612458565b50602082015181600101555050611ace8260000151612392565b60005b8160020180549050811015611bdb57826000015180519060200120826002018281548110611b0257611b01613049565b5b90600052602060002001604051611b199190613215565b604051809103902003611bc8578160020160018360020180549050611b3e9190613142565b81548110611b4f57611b4e613049565b5b90600052602060002001826002018281548110611b6f57611b6e613049565b5b90600052602060002001908054611b8590613018565b611b9092919061252e565b5081600201805480611ba557611ba461322c565b5b600190038181906000526020600020016000611bc191906125bb565b9055611bdb565b8080611bd3906130fa565b915050611ad1565b50505b5050565b6060600060038054905067ffffffffffffffff811115611c0557611c046128db565b5b604051908082528060200260200182016040528015611c3e57816020015b611c2b612429565b815260200190600190039081611c235790505b50905060005b600380549050811015611e9257600260038281548110611c6757611c66613049565b5b90600052602060002001604051611c7e91906132ef565b90815260200160405180910390206040518060a0016040529081600082018054611ca790613018565b80601f0160208091040260200160405190810160405280929190818152602001828054611cd390613018565b8015611d205780601f10611cf557610100808354040283529160200191611d20565b820191906000526020600020905b815481529060010190602001808311611d0357829003601f168201915b50505050508152602001600182018054611d3990613018565b80601f0160208091040260200160405190810160405280929190818152602001828054611d6590613018565b8015611db25780601f10611d8757610100808354040283529160200191611db2565b820191906000526020600020905b815481529060010190602001808311611d9557829003601f168201915b50505050508152602001600282018054611dcb90613018565b80601f0160208091040260200160405190810160405280929190818152602001828054611df790613018565b8015611e445780601f10611e1957610100808354040283529160200191611e44565b820191906000526020600020905b815481529060010190602001808311611e2757829003601f168201915b5050505050815260200160038201548152602001600482015481525050828281518110611e7457611e73613049565b5b60200260200101819052508080611e8a906130fa565b915050611c44565b508091505090565b611ea2612429565b600282604051611eb291906130b4565b90815260200160405180910390206040518060a0016040529081600082018054611edb90613018565b80601f0160208091040260200160405190810160405280929190818152602001828054611f0790613018565b8015611f545780601f10611f2957610100808354040283529160200191611f54565b820191906000526020600020905b815481529060010190602001808311611f3757829003601f168201915b50505050508152602001600182018054611f6d90613018565b80601f0160208091040260200160405190810160405280929190818152602001828054611f9990613018565b8015611fe65780601f10611fbb57610100808354040283529160200191611fe6565b820191906000526020600020905b815481529060010190602001808311611fc957829003601f168201915b50505050508152602001600282018054611fff90613018565b80601f016020809104026020016040519081016040528092919081815260200182805461202b90613018565b80156120785780601f1061204d57610100808354040283529160200191612078565b820191906000526020600020905b81548152906001019060200180831161205b57829003601f168201915b50505050508152602001600382015481526020016004820154815250509050919050565b60008060008473ffffffffffffffffffffffffffffffffffffffff1673ffffffffffffffffffffffffffffffffffffffff168152602001908152602001600020905060005b81600201805490508110156121e757828051906020012082600201828154811061210e5761210d613049565b5b906000526020600020016040516121259190613215565b6040518091039020036121d457816002016001836002018054905061214a9190613142565b8154811061215b5761215a613049565b5b9060005260206000200182600201828154811061217b5761217a613049565b5b9060005260206000200190805461219190613018565b61219c92919061252e565b50816002018054806121b1576121b061322c565b5b6001900381819060005260206000200160006121cd91906125bb565b90556121e7565b80806121df906130fa565b9150506120e1565b50505050565b6000829050600082905080820361220557505061238d565b600085600286866122169190613310565b61222091906133d3565b8661222b919061343d565b8151811061223c5761223b613049565b5b60200260200101516080015190505b818313612361575b8086848151811061226757612266613049565b5b602002602001015160800151111561228c578280612284906134d1565b935050612253565b5b8582815181106122a05761229f613049565b5b6020026020010151608001518111156122c65781806122be90613519565b92505061228d565b81831361235c578582815181106122e0576122df613049565b5b60200260200101518684815181106122fb576122fa613049565b5b602002602001015187858151811061231657612315613049565b5b602002602001018885815181106123305761232f613049565b5b602002602001018290528290525050828061234a906134d1565b935050818061235890613519565b9250505b61224b565b81851215612375576123748686846121ed565b5b83831215612389576123888684866121ed565b5b5050505b505050565b60006002826040516123a491906130b4565b9081526020016040518091039020905060006123bf836113fe565b90506000805b825181101561240d578281815181106123e1576123e0613049565b5b602002602001015160200151826123f89190613561565b91508080612405906130fa565b9150506123c5565b5081518161241b91906135b7565b836004018190555050505050565b6040518060a0016040528060608152602001606081526020016060815260200160008152602001600081525090565b82805461246490613018565b90600052602060002090601f01602090048101928261248657600085556124cd565b82601f1061249f57805160ff19168380011785556124cd565b828001600101855582156124cd579182015b828111156124cc5782518255916020019190600101906124b1565b5b5090506124da91906125fb565b5090565b6040518060c001604052806060815260200160608152602001606081526020016000815260200160008152602001600081525090565b604051806040016040528060608152602001600081525090565b82805461253a90613018565b90600052602060002090601f01602090048101928261255c57600085556125aa565b82601f1061256d57805485556125aa565b828001600101855582156125aa57600052602060002091601f016020900482015b828111156125a957825482559160010191906001019061258e565b5b5090506125b791906125fb565b5090565b5080546125c790613018565b6000825580601f106125d957506125f8565b601f0160209004906000526020600020908101906125f791906125fb565b5b50565b5b808211156126145760008160009055506001016125fc565b5090565b6000604051905090565b600080fd5b600080fd5b600073ffffffffffffffffffffffffffffffffffffffff82169050919050565b60006126578261262c565b9050919050565b6126678161264c565b811461267257600080fd5b50565b6000813590506126848161265e565b92915050565b6000602082840312156126a05761269f612622565b5b60006126ae84828501612675565b91505092915050565b600081519050919050565b600082825260208201905092915050565b6000819050602082019050919050565b600081519050919050565b600082825260208201905092915050565b60005b8381101561271d578082015181840152602081019050612702565b8381111561272c576000848401525b50505050565b6000601f19601f8301169050919050565b600061274e826126e3565b61275881856126ee565b93506127688185602086016126ff565b61277181612732565b840191505092915050565b6000819050919050565b61278f8161277c565b82525050565b600060a08301600083015184820360008601526127b28282612743565b915050602083015184820360208601526127cc8282612743565b915050604083015184820360408601526127e68282612743565b91505060608301516127fb6060860182612786565b50608083015161280e6080860182612786565b508091505092915050565b60006128258383612795565b905092915050565b6000602082019050919050565b6000612845826126b7565b61284f81856126c2565b935083602082028501612861856126d3565b8060005b8581101561289d578484038952815161287e8582612819565b94506128898361282d565b925060208a01995050600181019050612865565b50829750879550505050505092915050565b600060208201905081810360008301526128c9818461283a565b905092915050565b600080fd5b600080fd5b7f4e487b7100000000000000000000000000000000000000000000000000000000600052604160045260246000fd5b61291382612732565b810181811067ffffffffffffffff82111715612932576129316128db565b5b80604052505050565b6000612945612618565b9050612951828261290a565b919050565b600067ffffffffffffffff821115612971576129706128db565b5b61297a82612732565b9050602081019050919050565b82818337600083830152505050565b60006129a96129a484612956565b61293b565b9050828152602081018484840111156129c5576129c46128d6565b5b6129d0848285612987565b509392505050565b600082601f8301126129ed576129ec6128d1565b5b81356129fd848260208601612996565b91505092915050565b600060208284031215612a1c57612a1b612622565b5b600082013567ffffffffffffffff811115612a3a57612a39612627565b5b612a46848285016129d8565b91505092915050565b600082825260208201905092915050565b6000612a6b826126e3565b612a758185612a4f565b9350612a858185602086016126ff565b612a8e81612732565b840191505092915050565b612aa28161277c565b82525050565b600060a0820190508181036000830152612ac28188612a60565b90508181036020830152612ad68187612a60565b90508181036040830152612aea8186612a60565b9050612af96060830185612a99565b612b066080830184612a99565b9695505050505050565b60008060408385031215612b2757612b26612622565b5b6000612b3585828601612675565b925050602083013567ffffffffffffffff811115612b5657612b55612627565b5b612b62858286016129d8565b9150509250929050565b600081519050919050565b600082825260208201905092915050565b6000819050602082019050919050565b600060c0830160008301518482036000860152612bb58282612743565b91505060208301518482036020860152612bcf8282612743565b91505060408301518482036040860152612be98282612743565b9150506060830151612bfe6060860182612786565b506080830151612c116080860182612786565b5060a0830151612c2460a0860182612786565b508091505092915050565b6000612c3b8383612b98565b905092915050565b6000602082019050919050565b6000612c5b82612b6c565b612c658185612b77565b935083602082028501612c7785612b88565b8060005b85811015612cb35784840389528151612c948582612c2f565b9450612c9f83612c43565b925060208a01995050600181019050612c7b565b50829750879550505050505092915050565b60006020820190508181036000830152612cdf8184612c50565b905092915050565b60006020820190508181036000830152612d018184612a60565b905092915050565b6000602082019050612d1e6000830184612a99565b92915050565b600081519050919050565b600082825260208201905092915050565b6000819050602082019050919050565b60006040830160008301518482036000860152612d6d8282612743565b9150506020830151612d826020860182612786565b508091505092915050565b6000612d998383612d50565b905092915050565b6000602082019050919050565b6000612db982612d24565b612dc38185612d2f565b935083602082028501612dd585612d40565b8060005b85811015612e115784840389528151612df28582612d8d565b9450612dfd83612da1565b925060208a01995050600181019050612dd9565b50829750879550505050505092915050565b60006020820190508181036000830152612e3d8184612dae565b905092915050565b600080fd5b600080fd5b612e588161277c565b8114612e6357600080fd5b50565b600081359050612e7581612e4f565b92915050565b600060408284031215612e9157612e90612e45565b5b612e9b604061293b565b9050600082013567ffffffffffffffff811115612ebb57612eba612e4a565b5b612ec7848285016129d8565b6000830152506020612edb84828501612e66565b60208301525092915050565b60008060408385031215612efe57612efd612622565b5b6000612f0c85828601612675565b925050602083013567ffffffffffffffff811115612f2d57612f2c612627565b5b612f3985828601612e7b565b9150509250929050565b600060a0830160008301518482036000860152612f608282612743565b91505060208301518482036020860152612f7a8282612743565b91505060408301518482036040860152612f948282612743565b9150506060830151612fa96060860182612786565b506080830151612fbc6080860182612786565b508091505092915050565b60006020820190508181036000830152612fe18184612f43565b905092915050565b7f4e487b7100000000000000000000000000000000000000000000000000000000600052602260045260246000fd5b6000600282049050600182168061303057607f821691505b60208210810361304357613042612fe9565b5b50919050565b7f4e487b7100000000000000000000000000000000000000000000000000000000600052603260045260246000fd5b600081905092915050565b600061308e826126e3565b6130988185613078565b93506130a88185602086016126ff565b80840191505092915050565b60006130c08284613083565b915081905092915050565b7f4e487b7100000000000000000000000000000000000000000000000000000000600052601160045260246000fd5b60006131058261277c565b91507fffffffffffffffffffffffffffffffffffffffffffffffffffffffffffffffff8203613137576131366130cb565b5b600182019050919050565b600061314d8261277c565b91506131588361277c565b92508282101561316b5761316a6130cb565b5b828203905092915050565b600081905092915050565b60008190508160005260206000209050919050565b600081546131a381613018565b6131ad8186613176565b945060018216600081146131c857600181146131d95761320c565b60ff1983168652818601935061320c565b6131e285613181565b60005b83811015613204578154818901526001820191506020810190506131e5565b838801955050505b50505092915050565b60006132218284613196565b915081905092915050565b7f4e487b7100000000000000000000000000000000000000000000000000000000600052603160045260246000fd5b60008190508160005260206000209050919050565b6000815461327d81613018565b6132878186613078565b945060018216600081146132a257600181146132b3576132e6565b60ff198316865281860193506132e6565b6132bc8561325b565b60005b838110156132de578154818901526001820191506020810190506132bf565b838801955050505b50505092915050565b60006132fb8284613270565b915081905092915050565b6000819050919050565b600061331b82613306565b915061332683613306565b9250827f800000000000000000000000000000000000000000000000000000000000000001821260008412151615613361576133606130cb565b5b827f7fffffffffffffffffffffffffffffffffffffffffffffffffffffffffffffff018213600084121615613399576133986130cb565b5b828203905092915050565b7f4e487b7100000000000000000000000000000000000000000000000000000000600052601260045260246000fd5b60006133de82613306565b91506133e983613306565b9250826133f9576133f86133a4565b5b600160000383147f800000000000000000000000000000000000000000000000000000000000000083141615613432576134316130cb565b5b828205905092915050565b600061344882613306565b915061345383613306565b9250817f7fffffffffffffffffffffffffffffffffffffffffffffffffffffffffffffff0383136000831215161561348e5761348d6130cb565b5b817f80000000000000000000000000000000000000000000000000000000000000000383126000831216156134c6576134c56130cb565b5b828201905092915050565b60006134dc82613306565b91507f7fffffffffffffffffffffffffffffffffffffffffffffffffffffffffffffff820361350e5761350d6130cb565b5b600182019050919050565b600061352482613306565b91507f80000000000000000000000000000000000000000000000000000000000000008203613556576135556130cb565b5b600182039050919050565b600061356c8261277c565b91506135778361277c565b9250827fffffffffffffffffffffffffffffffffffffffffffffffffffffffffffffffff038211156135ac576135ab6130cb565b5b828201905092915050565b60006135c28261277c565b91506135cd8361277c565b9250826135dd576135dc6133a4565b5b82820490509291505056fea2646970667358221220553791d24b8eba59342e0572b5be2fc2985485de6ec7be1ec905115326e86e8164736f6c634300080d0033496e204765726d616e2d6f6363757069656420506f6c616e6420647572696e6720576f726c64205761722049492c20696e647573747269616c697374204f736b617220536368696e646c6572206772616475616c6c79206265636f6d657320636f6e6365726e656420666f7220686973204a657769736820776f726b666f726365206166746572207769746e657373696e67207468656972207065727365637574696f6e20627920746865204e617a69732e4120626f756e74792068756e74696e67207363616d206a6f696e732074776f206d656e20696e20616e20756e6561737920616c6c69616e636520616761696e7374206120746869726420696e2061207261636520746f2066696e64206120666f7274756e6520696e20676f6c642062757269656420696e20612072656d6f74652063656d65746572792e416e206f7267616e697a6564206372696d652064796e617374792773206167696e6720706174726961726368207472616e736665727320636f6e74726f6c206f662068697320636c616e64657374696e6520656d7069726520746f206869732072656c756374616e7420736f6e2e412074686965662077686f20737465616c7320636f72706f726174652073656372657473207468726f7567682074686520757365206f6620647265616d2d73686172696e6720746563686e6f6c6f677920697320676976656e2074686520696e7665727365207461736b206f6620706c616e74696e6720616e206964656120696e746f20746865206d696e64206f66206120432e452e4f2e47616e64616c6620616e6420417261676f726e206c6561642074686520576f726c64206f66204d656e20616761696e737420536175726f6e27732061726d7920746f2064726177206869732067617a652066726f6d2046726f646f20616e642053616d206173207468657920617070726f616368204d6f756e7420446f6f6d207769746820746865204f6e652052696e672e54776f20696d707269736f6e6564206d656e20626f6e64206f7665722061206e756d626572206f662079656172732c2066696e64696e6720736f6c61636520616e64206576656e7475616c20726564656d7074696f6e207468726f7567682061637473206f6620636f6d6d6f6e20646563656e63792e546865206c69766573206f662074776f206d6f62206869746d656e2c206120626f7865722c20612067616e677374657220616e642068697320776966652c20616e6420612070616972206f662064696e65722062616e6469747320696e7465727477696e6520696e20666f75722074616c6573206f662076696f6c656e636520616e6420726564656d7074696f6e2e546865204c6f7264206f66207468652052696e67733a205468652052657475726e206f6620746865204b696e675468652073746f7279206f662061206d616e20776974682061206c6f772049512077686f206163636f6d706c6973686564206772656174207468696e677320696e20686973206c6966652e5768656e20746865206d656e616365206b6e6f776e20617320746865204a6f6b657220777265616b73206861766f6320616e64206368616f73206f6e207468652070656f706c65206f6620476f7468616d2c204261746d616e206d75737420616363657074206f6e65206f66207468652067726561746573742070737963686f6c6f676963616c20616e6420706879736963616c207465737473206f6620686973206162696c69747920746f20666967687420696e6a7573746963652e41206a75727920686f6c646f757420617474656d70747320746f2070726576656e742061206d69736361727269616765206f66206a75737469636520627920666f7263696e672068697320636f6c6c65616775657320746f207265636f6e7369646572207468652065766964656e63652e",
  "immutableReferences": {},
  "source": "// SPDX-License-Identifier: MIT\n// Tells the Solidity compiler to compile only from v0.8.13 to v0.9.0\npragma solidity ^0.8.13;\n\n// This is just a simple example of a coin-like contract.\n// It is not ERC20 compatible and cannot be expected to talk to other\n// coin/token contracts.\n\ncontract User {\n\tstruct Review {\n\t\tstring idMovie;\n\t\tuint rating;\n\t}\n\n\tstruct UserInfo {\n\t\tstring username;\n\t\tReview[] reviews;\n\t\tstring[] idMoviesToWatch;\n\t}\n\n\tstruct Movie {\n\t\tstring id;\n\t\tstring title;\n\t\tstring description;\n\t\tuint releaseYear;\n\t\tuint averageRating;\n\t}\n\n\tstruct MovieWithRating {\n        string id;\n        string title;\n        string description;\n        uint releaseYear;\n        uint averageRating;\n        uint rating;\n    }\n\n\tconstructor() {\n        addMovie(\"1\", Movie(\"1\", \"The Shawshank Redemption\", \"Two imprisoned men bond over a number of years, finding solace and eventual redemption through acts of common decency.\", 1994, 10));\n        addMovie(\"2\", Movie(\"2\", \"The Godfather\", \"An organized crime dynasty's aging patriarch transfers control of his clandestine empire to his reluctant son.\", 1972, 9));\n        addMovie(\"3\", Movie(\"3\", \"The Dark Knight\", \"When the menace known as the Joker wreaks havoc and chaos on the people of Gotham, Batman must accept one of the greatest psychological and physical tests of his ability to fight injustice.\", 2008, 9));\n        addMovie(\"4\", Movie(\"4\", \"12 Angry Men\", \"A jury holdout attempts to prevent a miscarriage of justice by forcing his colleagues to reconsider the evidence.\", 1957, 8));\n        addMovie(\"5\", Movie(\"5\", \"Schindler's List\", \"In German-occupied Poland during World War II, industrialist Oskar Schindler gradually becomes concerned for his Jewish workforce after witnessing their persecution by the Nazis.\", 1993, 8));\n    \taddMovie(\"6\", Movie(\"6\", \"The Lord of the Rings: The Return of the King\", \"Gandalf and Aragorn lead the World of Men against Sauron's army to draw his gaze from Frodo and Sam as they approach Mount Doom with the One Ring.\", 2003, 8));\n        addMovie(\"7\", Movie(\"7\", \"Pulp Fiction\", \"The lives of two mob hitmen, a boxer, a gangster and his wife, and a pair of diner bandits intertwine in four tales of violence and redemption.\", 1994, 8));\n        addMovie(\"8\", Movie(\"8\", \"The Good, the Bad and the Ugly\", \"A bounty hunting scam joins two men in an uneasy alliance against a third in a race to find a fortune in gold buried in a remote cemetery.\", 1966, 8));\n        addMovie(\"9\", Movie(\"9\", \"Forrest Gump\", \"The story of a man with a low IQ who accomplished great things in his life.\", 1994, 8));\n        addMovie(\"10\", Movie(\"10\", \"Inception\", \"A thief who steals corporate secrets through the use of dream-sharing technology is given the inverse task of planting an idea into the mind of a C.E.O.\", 2010, 8));\n\t}\n\n\tmapping (address => UserInfo) public wallets;\n\taddress[] addressArray;\n\tmapping (string => Movie) public movies;\n\tstring[] idArray;\n\n\n\tfunction addUser(address wallet, string memory username) public {\n\t\tfor (uint i = 0; i < addressArray.length; i++) {\n\t\t\tif (addressArray[i] == wallet) {\n\t\t\t\treturn;\n\t\t\t}\n\t\t}\n\n\t\twallets[wallet].username = username;\n\t\taddressArray.push(wallet);\n\t}\n\n\tfunction getUsername(address wallet) public view returns(string memory) {\n\t\tstring memory username = wallets[wallet].username;\n\n\t\treturn username;\n\t}\n\n\tfunction addReview(address wallet, Review memory review) public {\n\t\taddUser(wallet, 'mathieu');\n\n\t\tUserInfo storage user = wallets[wallet];\n\n\t\tfor (uint i = 0; i < user.reviews.length; i++) {\n            if (keccak256(bytes(user.reviews[i].idMovie)) == keccak256(bytes(review.idMovie))) {\n                return;\n            }\n        }\n\n\t\tuser.reviews.push(review);\n\t\tcalculateRating(review.idMovie);\n\n\t\tfor (uint i = 0; i < user.idMoviesToWatch.length; i++) {\n\t\t\tif (keccak256(bytes(user.idMoviesToWatch[i])) == keccak256(bytes(review.idMovie))) {\n\t\t\t\tuser.idMoviesToWatch[i] = user.idMoviesToWatch[user.idMoviesToWatch.length - 1];\n\n\t\t\t\tuser.idMoviesToWatch.pop();\n\t\t\t\tbreak;\n\t\t\t}\n\t\t}\n\t}\n\n\tfunction addToWatchlist(address wallet, string memory idMovie) public {\n\t\tUserInfo storage user = wallets[wallet];\n        \n        for (uint i = 0; i < user.reviews.length; i++) {\n            if (keccak256(bytes(user.reviews[i].idMovie)) == keccak256(bytes(idMovie))) {\n                return;\n            }\n        }\n        \n        for (uint i = 0; i < user.idMoviesToWatch.length; i++) {\n            if (keccak256(bytes(user.idMoviesToWatch[i])) == keccak256(bytes(idMovie))) {\n                return;\n            }\n        }\n\n        user.idMoviesToWatch.push(idMovie);\n\t}\n\n\tfunction removeFromWatchlist(address wallet, string memory idMovie) public {\n\t\tUserInfo storage user = wallets[wallet];\n\t\tfor (uint i = 0; i < user.idMoviesToWatch.length; i++) {\n\t\t\tif (keccak256(bytes(user.idMoviesToWatch[i])) == keccak256(bytes(idMovie))) {\n\t\t\t\tuser.idMoviesToWatch[i] = user.idMoviesToWatch[user.idMoviesToWatch.length - 1];\n\t\t\t\tuser.idMoviesToWatch.pop();\n\t\t\t\tbreak;\n\t\t\t}\n\t\t}\n\t}\n\n\tfunction getWatchlist(address wallet) public view returns (Movie[] memory) {\n\t\tUserInfo memory user = wallets[wallet];\n\t\tuint256 watchlistLength = user.idMoviesToWatch.length;\n\t\tMovie[] memory watchlist = new Movie[](watchlistLength);\n\t\t\n\t\tfor (uint256 i = 0; i < watchlistLength; i++) {\n\t\t\twatchlist[i] = movies[user.idMoviesToWatch[i]];\n\t\t}\n\n    \treturn watchlist;\n\t}\n\n\n    function getReviews(address wallet) public view returns (MovieWithRating[] memory) {\n        UserInfo memory user = wallets[wallet];\n        MovieWithRating[] memory reviews = new MovieWithRating[](user.reviews.length);\n\n        for (uint256 i = 0; i < user.reviews.length; i++) {\n            Review memory review = user.reviews[i];\n            Movie memory movie = movies[review.idMovie];\n            reviews[i] = MovieWithRating({\n                id: movie.id,\n                title: movie.title,\n                description: movie.description,\n                releaseYear: movie.releaseYear,\n                averageRating: movie.averageRating,\n                rating: review.rating\n            });\n        }\n\n        return reviews;\n    }\n\n\tfunction getReviewsForMovie(string memory movieId) public view returns (Review[] memory) {\n\t\tuint256 count = 0;\n\t\tfor (uint256 i = 0; i < addressArray.length; i++) {\n\t\t\tReview[] memory reviews = wallets[addressArray[i]].reviews;\n\t\t\tfor (uint256 j = 0; j < reviews.length; j++) {\n\t\t\t\tif (keccak256(bytes(movieId)) == keccak256(bytes(reviews[j].idMovie))) {\n\t\t\t\t\tcount++;\n\t\t\t\t}\n\t\t\t}\n\t\t}\n\n\t\tReview[] memory movieReviews = new Review[](count);\n\t\tuint256 index = 0;\n\t\tfor (uint256 i = 0; i < addressArray.length; i++) {\n\t\t\tReview[] memory reviews = wallets[addressArray[i]].reviews;\n\t\t\tfor (uint256 j = 0; j < reviews.length; j++) {\n\t\t\t\tif (keccak256(bytes(movieId)) == keccak256(bytes(reviews[j].idMovie))) {\n\t\t\t\t\tmovieReviews[index] = reviews[j];\n\t\t\t\t\tindex++;\n\t\t\t\t}\n\t\t\t}\n\t\t}\n\n\t\treturn movieReviews;\n\t}\n\n\n\tfunction getMovie(string memory id) public view returns(Movie memory) {\n\t\treturn movies[id];\n\t}\n\n\tfunction getAllMovies() public view returns(Movie[] memory) {\n\t\tMovie[] memory allMovies = new Movie[](idArray.length);\n        for (uint256 i = 0; i < idArray.length; i++) {\n            allMovies[i] = movies[idArray[i]];\n        }\n\t\treturn allMovies;\n\t}\n\n\tfunction getTopRated() public view returns(Movie[] memory){\n\t\tMovie[] memory allMovies = getAllMovies();\n\n\t\tquickSort(allMovies, int(0), int(allMovies.length - 1));\n\n\t\treturn allMovies;\n\t}\n\n\n\tfunction getAverageRating(string memory idMovie) public view returns(uint) {\n\t\tuint averageRating = movies[idMovie].averageRating;\n\n\t\treturn averageRating;\n\t}\n\n\t// The functions below are private and are therefore only used within the context of the contract itself\n\n\tfunction calculateRating(string memory id) private {\n\t\tMovie storage movie = movies[id];\n\t\tReview[] memory reviews = getReviewsForMovie(id);\n\t\tuint totalRatings = 0;\n\n\t\tfor (uint256 i = 0; i < reviews.length; i++) {\n\t\t\ttotalRatings += reviews[i].rating;\n\t\t}\n\n\t\tmovie.averageRating = totalRatings / reviews.length;\n\t}\n\n\tfunction addMovie(string memory id, Movie memory movie) private {\n\t\tmovies[id] = movie;\n\t\tidArray.push(id);\n\t}\n\n\tfunction deleteMovie(string memory id) private {\n\t\tdelete(movies[id]);\n\t\t    for (uint i = 0; i < idArray.length; i++) {\n\t\t\t\tif (keccak256(bytes(idArray[i])) == keccak256(bytes(id))) {\n\t\t\t\t\tidArray[i] = idArray[idArray.length - 1];\n\t\t\t\t\tidArray.pop();\n\t\t\t\t\tbreak;\n            }\n        }\n\t}\n\n\tfunction quickSort(Movie[] memory arr, int left, int right) internal pure {\n\t\tint i = left;\n\t\tint j = right;\n\t\tif (i == j) return;\n\t\tuint pivot = arr[uint(left + (right - left) / 2)].averageRating;\n\t\twhile (i <= j) {\n\t\t\twhile (arr[uint(i)].averageRating > pivot) i++;\n\t\t\twhile (pivot > arr[uint(j)].averageRating) j--;\n\t\t\tif (i <= j) {\n\t\t\t\t(arr[uint(i)], arr[uint(j)]) = (arr[uint(j)], arr[uint(i)]);\n\t\t\t\ti++;\n\t\t\t\tj--;\n\t\t\t}\n\t\t}\n\t\tif (left < j) quickSort(arr, left, j);\n\t\tif (i < right) quickSort(arr, i, right);\n\t}\n}\n",
  "sourcePath": "/home/mathieu/poly/hackathon/web3/web3-app/backend/contracts/User.sol",
  "compiler": {
    "name": "solc",
    "version": "0.8.13+commit.abaa5c0e.Emscripten.clang"
  },
  "schemaVersion": "3.4.16",
  "updatedAt": "2024-03-31T07:16:48.345Z",
  "networkType": "ethereum",
  "devdoc": {
    "kind": "dev",
    "methods": {},
    "version": 1
  },
  "userdoc": {
    "kind": "user",
    "methods": {},
    "version": 1
  }
}