{
  "contractName": "User",
  "abi": [
    {
      "inputs": [],
      "stateMutability": "nonpayable",
      "type": "constructor"
    },
    {
      "inputs": [
        {
          "internalType": "string",
          "name": "",
          "type": "string"
        }
      ],
      "name": "movies",
      "outputs": [
        {
          "internalType": "string",
          "name": "id",
          "type": "string"
        },
        {
          "internalType": "string",
          "name": "title",
          "type": "string"
        },
        {
          "internalType": "string",
          "name": "description",
          "type": "string"
        },
        {
          "internalType": "uint256",
          "name": "releaseYear",
          "type": "uint256"
        },
        {
          "internalType": "uint256",
          "name": "averageRating",
          "type": "uint256"
        },
        {
          "internalType": "uint256",
          "name": "numberOfRatings",
          "type": "uint256"
        }
      ],
      "stateMutability": "view",
      "type": "function",
      "constant": true
    },
    {
      "inputs": [
        {
          "internalType": "address",
          "name": "",
          "type": "address"
        }
      ],
      "name": "wallets",
      "outputs": [
        {
          "internalType": "string",
          "name": "username",
          "type": "string"
        }
      ],
      "stateMutability": "view",
      "type": "function",
      "constant": true
    },
    {
      "inputs": [
        {
          "internalType": "address",
          "name": "wallet",
          "type": "address"
        },
        {
          "internalType": "string",
          "name": "username",
          "type": "string"
        }
      ],
      "name": "addUser",
      "outputs": [],
      "stateMutability": "nonpayable",
      "type": "function"
    },
    {
      "inputs": [
        {
          "internalType": "address",
          "name": "wallet",
          "type": "address"
        }
      ],
      "name": "getUsername",
      "outputs": [
        {
          "internalType": "string",
          "name": "",
          "type": "string"
        }
      ],
      "stateMutability": "view",
      "type": "function",
      "constant": true
    },
    {
      "inputs": [
        {
          "internalType": "address",
          "name": "wallet",
          "type": "address"
        },
        {
          "components": [
            {
              "internalType": "string",
              "name": "idMovie",
              "type": "string"
            },
            {
              "internalType": "uint256",
              "name": "rating",
              "type": "uint256"
            }
          ],
          "internalType": "struct User.Review",
          "name": "review",
          "type": "tuple"
        }
      ],
      "name": "addReview",
      "outputs": [],
      "stateMutability": "nonpayable",
      "type": "function"
    },
    {
      "inputs": [
        {
          "internalType": "address",
          "name": "wallet",
          "type": "address"
        },
        {
          "internalType": "string",
          "name": "idMovie",
          "type": "string"
        }
      ],
      "name": "addToWatchlist",
      "outputs": [],
      "stateMutability": "nonpayable",
      "type": "function"
    },
    {
      "inputs": [
        {
          "internalType": "address",
          "name": "wallet",
          "type": "address"
        }
      ],
      "name": "getWatchlist",
      "outputs": [
        {
          "components": [
            {
              "internalType": "string",
              "name": "id",
              "type": "string"
            },
            {
              "internalType": "string",
              "name": "title",
              "type": "string"
            },
            {
              "internalType": "string",
              "name": "description",
              "type": "string"
            },
            {
              "internalType": "uint256",
              "name": "releaseYear",
              "type": "uint256"
            },
            {
              "internalType": "uint256",
              "name": "averageRating",
              "type": "uint256"
            },
            {
              "internalType": "uint256",
              "name": "numberOfRatings",
              "type": "uint256"
            }
          ],
          "internalType": "struct User.Movie[]",
          "name": "",
          "type": "tuple[]"
        }
      ],
      "stateMutability": "view",
      "type": "function",
      "constant": true
    },
    {
      "inputs": [
        {
          "internalType": "address",
          "name": "wallet",
          "type": "address"
        }
      ],
      "name": "getReviews",
      "outputs": [
        {
          "components": [
            {
              "internalType": "string",
              "name": "idMovie",
              "type": "string"
            },
            {
              "internalType": "uint256",
              "name": "rating",
              "type": "uint256"
            }
          ],
          "internalType": "struct User.Review[]",
          "name": "",
          "type": "tuple[]"
        }
      ],
      "stateMutability": "view",
      "type": "function",
      "constant": true
    },
    {
      "inputs": [
        {
          "internalType": "string",
          "name": "movieId",
          "type": "string"
        }
      ],
      "name": "getReviewsForMovie",
      "outputs": [
        {
          "components": [
            {
              "internalType": "string",
              "name": "idMovie",
              "type": "string"
            },
            {
              "internalType": "uint256",
              "name": "rating",
              "type": "uint256"
            }
          ],
          "internalType": "struct User.Review[]",
          "name": "",
          "type": "tuple[]"
        }
      ],
      "stateMutability": "view",
      "type": "function",
      "constant": true
    },
    {
      "inputs": [
        {
          "internalType": "string",
          "name": "id",
          "type": "string"
        }
      ],
      "name": "getMovie",
      "outputs": [
        {
          "components": [
            {
              "internalType": "string",
              "name": "id",
              "type": "string"
            },
            {
              "internalType": "string",
              "name": "title",
              "type": "string"
            },
            {
              "internalType": "string",
              "name": "description",
              "type": "string"
            },
            {
              "internalType": "uint256",
              "name": "releaseYear",
              "type": "uint256"
            },
            {
              "internalType": "uint256",
              "name": "averageRating",
              "type": "uint256"
            },
            {
              "internalType": "uint256",
              "name": "numberOfRatings",
              "type": "uint256"
            }
          ],
          "internalType": "struct User.Movie",
          "name": "",
          "type": "tuple"
        }
      ],
      "stateMutability": "view",
      "type": "function",
      "constant": true
    },
    {
      "inputs": [],
      "name": "getAllMovies",
      "outputs": [
        {
          "components": [
            {
              "internalType": "string",
              "name": "id",
              "type": "string"
            },
            {
              "internalType": "string",
              "name": "title",
              "type": "string"
            },
            {
              "internalType": "string",
              "name": "description",
              "type": "string"
            },
            {
              "internalType": "uint256",
              "name": "releaseYear",
              "type": "uint256"
            },
            {
              "internalType": "uint256",
              "name": "averageRating",
              "type": "uint256"
            },
            {
              "internalType": "uint256",
              "name": "numberOfRatings",
              "type": "uint256"
            }
          ],
          "internalType": "struct User.Movie[]",
          "name": "",
          "type": "tuple[]"
        }
      ],
      "stateMutability": "view",
      "type": "function",
      "constant": true
    },
    {
      "inputs": [],
      "name": "getTopRated",
      "outputs": [
        {
          "components": [
            {
              "internalType": "string",
              "name": "id",
              "type": "string"
            },
            {
              "internalType": "string",
              "name": "title",
              "type": "string"
            },
            {
              "internalType": "string",
              "name": "description",
              "type": "string"
            },
            {
              "internalType": "uint256",
              "name": "releaseYear",
              "type": "uint256"
            },
            {
              "internalType": "uint256",
              "name": "averageRating",
              "type": "uint256"
            },
            {
              "internalType": "uint256",
              "name": "numberOfRatings",
              "type": "uint256"
            }
          ],
          "internalType": "struct User.Movie[]",
          "name": "",
          "type": "tuple[]"
        }
      ],
      "stateMutability": "view",
      "type": "function",
      "constant": true
    },
    {
      "inputs": [
        {
          "internalType": "string",
          "name": "idMovie",
          "type": "string"
        }
      ],
      "name": "getAverageRating",
      "outputs": [
        {
          "internalType": "uint256",
          "name": "",
          "type": "uint256"
        }
      ],
      "stateMutability": "view",
      "type": "function",
      "constant": true
    }
  ],
  "bytecode": "0x60806040523480156200001157600080fd5b506200010c6040518060400160405280600181526020017f31000000000000000000000000000000000000000000000000000000000000008152506040518060c001604052806040518060400160405280600181526020017f310000000000000000000000000000000000000000000000000000000000000081525081526020016040518060400160405280601881526020017f54686520536861777368616e6b20526564656d7074696f6e000000000000000081525081526020016040518060a001604052806076815260200162003ccf6076913981526020016107ca8152602001600a81526020016005815250620009c060201b60201c565b620002066040518060400160405280600181526020017f32000000000000000000000000000000000000000000000000000000000000008152506040518060c001604052806040518060400160405280600181526020017f320000000000000000000000000000000000000000000000000000000000000081525081526020016040518060400160405280600d81526020017f54686520476f646661746865720000000000000000000000000000000000000081525081526020016040518060a00160405280606e815260200162003b37606e913981526020016107b4815260200160098152602001600a815250620009c060201b60201c565b620003006040518060400160405280600181526020017f33000000000000000000000000000000000000000000000000000000000000008152506040518060c001604052806040518060400160405280600181526020017f330000000000000000000000000000000000000000000000000000000000000081525081526020016040518060400160405280600f81526020017f546865204461726b204b6e69676874000000000000000000000000000000000081525081526020016040518060e0016040528060bd815260200162003e4c60bd913981526020016107d88152602001600981526020016008815250620009c060201b60201c565b620003fa6040518060400160405280600181526020017f34000000000000000000000000000000000000000000000000000000000000008152506040518060c001604052806040518060400160405280600181526020017f340000000000000000000000000000000000000000000000000000000000000081525081526020016040518060400160405280600c81526020017f313220416e677279204d656e000000000000000000000000000000000000000081525081526020016040518060a001604052806071815260200162003f096071913981526020016107a58152602001600881526020016003815250620009c060201b60201c565b620004f46040518060400160405280600181526020017f35000000000000000000000000000000000000000000000000000000000000008152506040518060c001604052806040518060400160405280600181526020017f350000000000000000000000000000000000000000000000000000000000000081525081526020016040518060400160405280601081526020017f536368696e646c65722773204c6973740000000000000000000000000000000081525081526020016040518060e0016040528060b28152602001620039fb60b2913981526020016107c98152602001600881526020016005815250620009c060201b60201c565b620005d26040518060400160405280600181526020017f36000000000000000000000000000000000000000000000000000000000000008152506040518060c001604052806040518060400160405280600181526020017f360000000000000000000000000000000000000000000000000000000000000081525081526020016040518060600160405280602d815260200162003dd4602d913981526020016040518060c001604052806092815260200162003c3d6092913981526020016107d38152602001600881526020016006815250620009c060201b60201c565b620006cc6040518060400160405280600181526020017f37000000000000000000000000000000000000000000000000000000000000008152506040518060c001604052806040518060400160405280600181526020017f370000000000000000000000000000000000000000000000000000000000000081525081526020016040518060400160405280600c81526020017f50756c702046696374696f6e000000000000000000000000000000000000000081525081526020016040518060c00160405280608f815260200162003d45608f913981526020016107ca8152602001600881526020016006815250620009c060201b60201c565b620007c66040518060400160405280600181526020017f38000000000000000000000000000000000000000000000000000000000000008152506040518060c001604052806040518060400160405280600181526020017f380000000000000000000000000000000000000000000000000000000000000081525081526020016040518060400160405280601e81526020017f54686520476f6f642c207468652042616420616e64207468652055676c79000081525081526020016040518060c00160405280608a815260200162003aad608a913981526020016107ae8152602001600881526020016006815250620009c060201b60201c565b620008c06040518060400160405280600181526020017f39000000000000000000000000000000000000000000000000000000000000008152506040518060c001604052806040518060400160405280600181526020017f390000000000000000000000000000000000000000000000000000000000000081525081526020016040518060400160405280600c81526020017f466f72726573742047756d70000000000000000000000000000000000000000081525081526020016040518060800160405280604b815260200162003e01604b913981526020016107ca8152602001600881526020016006815250620009c060201b60201c565b620009ba6040518060400160405280600281526020017f31300000000000000000000000000000000000000000000000000000000000008152506040518060c001604052806040518060400160405280600281526020017f313000000000000000000000000000000000000000000000000000000000000081525081526020016040518060400160405280600981526020017f496e63657074696f6e000000000000000000000000000000000000000000000081525081526020016040518060c001604052806098815260200162003ba56098913981526020016107da8152602001600881526020016006815250620009c060201b60201c565b62000c51565b80600283604051620009d3919062000bd4565b90815260200160405180910390206000820151816000019080519060200190620009ff92919062000aa1565b50602082015181600101908051906020019062000a1e92919062000aa1565b50604082015181600201908051906020019062000a3d92919062000aa1565b50606082015181600301556080820151816004015560a0820151816005015590505060038290806001815401808255809150506001900390600052602060002001600090919091909150908051906020019062000a9c92919062000aa1565b505050565b82805462000aaf9062000c1c565b90600052602060002090601f01602090048101928262000ad3576000855562000b1f565b82601f1062000aee57805160ff191683800117855562000b1f565b8280016001018555821562000b1f579182015b8281111562000b1e57825182559160200191906001019062000b01565b5b50905062000b2e919062000b32565b5090565b5b8082111562000b4d57600081600090555060010162000b33565b5090565b600081519050919050565b600081905092915050565b60005b8381101562000b8757808201518184015260208101905062000b6a565b8381111562000b97576000848401525b50505050565b600062000baa8262000b51565b62000bb6818562000b5c565b935062000bc881856020860162000b67565b80840191505092915050565b600062000be2828462000b9d565b915081905092915050565b7f4e487b7100000000000000000000000000000000000000000000000000000000600052602260045260246000fd5b6000600282049050600182168062000c3557607f821691505b60208210810362000c4b5762000c4a62000bed565b5b50919050565b612d9a8062000c616000396000f3fe608060405234801561001057600080fd5b50600436106100cf5760003560e01c8063998863fd1161008c578063ce43c03211610066578063ce43c0321461024f578063d790f3761461027f578063e16f00651461029b578063e3aaf617146102b9576100cf565b8063998863fd146101d3578063b1f6b18b14610203578063ca3e22bd1461021f576100cf565b8063173759d6146100d45780632d304caf146101045780634b68d431146101395780634ef5a01714610155578063710a21cf1461018557806389b08f11146101a3575b600080fd5b6100ee60048036038101906100e99190611f4d565b6102e9565b6040516100fb9190612185565b60405180910390f35b61011e600480360381019061011991906122dc565b610863565b6040516101309695949392919061237e565b60405180910390f35b610153600480360381019061014e91906123f4565b610a4d565b005b61016f600480360381019061016a9190611f4d565b610b0a565b60405161017c919061254f565b60405180910390f35b61018d610c4c565b60405161019a9190612185565b60405180910390f35b6101bd60048036038101906101b89190611f4d565b610c7a565b6040516101ca9190612571565b60405180910390f35b6101ed60048036038101906101e891906122dc565b610d20565b6040516101fa9190612593565b60405180910390f35b61021d600480360381019061021891906123f4565b610d50565b005b610239600480360381019061023491906122dc565b610ebb565b604051610246919061254f565b60405180910390f35b61026960048036038101906102649190611f4d565b6110ff565b6040516102769190612571565b60405180910390f35b61029960048036038101906102949190612650565b6111d8565b005b6102a3611447565b6040516102b09190612185565b60405180910390f35b6102d360048036038101906102ce91906122dc565b611709565b6040516102e09190612743565b60405180910390f35b606060008060008473ffffffffffffffffffffffffffffffffffffffff1673ffffffffffffffffffffffffffffffffffffffff16815260200190815260200160002060405180606001604052908160008201805461034690612794565b80601f016020809104026020016040519081016040528092919081815260200182805461037290612794565b80156103bf5780601f10610394576101008083540402835291602001916103bf565b820191906000526020600020905b8154815290600101906020018083116103a257829003601f168201915b5050505050815260200160018201805480602002602001604051908101604052809291908181526020016000905b828210156104bb578382906000526020600020906002020160405180604001604052908160008201805461042090612794565b80601f016020809104026020016040519081016040528092919081815260200182805461044c90612794565b80156104995780601f1061046e57610100808354040283529160200191610499565b820191906000526020600020905b81548152906001019060200180831161047c57829003601f168201915b50505050508152602001600182015481525050815260200190600101906103ed565b50505050815260200160028201805480602002602001604051908101604052809291908181526020016000905b8282101561059457838290600052602060002001805461050790612794565b80601f016020809104026020016040519081016040528092919081815260200182805461053390612794565b80156105805780601f1061055557610100808354040283529160200191610580565b820191906000526020600020905b81548152906001019060200180831161056357829003601f168201915b5050505050815260200190600101906104e8565b505050508152505090506000816040015151905060008167ffffffffffffffff8111156105c4576105c36121b1565b5b6040519080825280602002602001820160405280156105fd57816020015b6105ea611d35565b8152602001906001900390816105e25790505b50905060005b8281101561085757600284604001518281518110610624576106236127c5565b5b60200260200101516040516106399190612830565b90815260200160405180910390206040518060c001604052908160008201805461066290612794565b80601f016020809104026020016040519081016040528092919081815260200182805461068e90612794565b80156106db5780601f106106b0576101008083540402835291602001916106db565b820191906000526020600020905b8154815290600101906020018083116106be57829003601f168201915b505050505081526020016001820180546106f490612794565b80601f016020809104026020016040519081016040528092919081815260200182805461072090612794565b801561076d5780601f106107425761010080835404028352916020019161076d565b820191906000526020600020905b81548152906001019060200180831161075057829003601f168201915b5050505050815260200160028201805461078690612794565b80601f01602080910402602001604051908101604052809291908181526020018280546107b290612794565b80156107ff5780601f106107d4576101008083540402835291602001916107ff565b820191906000526020600020905b8154815290600101906020018083116107e257829003601f168201915b505050505081526020016003820154815260200160048201548152602001600582015481525050828281518110610839576108386127c5565b5b6020026020010181905250808061084f90612876565b915050610603565b50809350505050919050565b60028180516020810182018051848252602083016020850120818352809550505050505060009150905080600001805461089c90612794565b80601f01602080910402602001604051908101604052809291908181526020018280546108c890612794565b80156109155780601f106108ea57610100808354040283529160200191610915565b820191906000526020600020905b8154815290600101906020018083116108f857829003601f168201915b50505050509080600101805461092a90612794565b80601f016020809104026020016040519081016040528092919081815260200182805461095690612794565b80156109a35780601f10610978576101008083540402835291602001916109a3565b820191906000526020600020905b81548152906001019060200180831161098657829003601f168201915b5050505050908060020180546109b890612794565b80601f01602080910402602001604051908101604052809291908181526020018280546109e490612794565b8015610a315780601f10610a0657610100808354040283529160200191610a31565b820191906000526020600020905b815481529060010190602001808311610a1457829003601f168201915b5050505050908060030154908060040154908060050154905086565b806000808473ffffffffffffffffffffffffffffffffffffffff1673ffffffffffffffffffffffffffffffffffffffff1681526020019081526020016000206000019080519060200190610aa2929190611d6b565b506001829080600181540180825580915050600190039060005260206000200160009091909190916101000a81548173ffffffffffffffffffffffffffffffffffffffff021916908373ffffffffffffffffffffffffffffffffffffffff1602179055505050565b606060008060008473ffffffffffffffffffffffffffffffffffffffff1673ffffffffffffffffffffffffffffffffffffffff168152602001908152602001600020600101805480602002602001604051908101604052809291908181526020016000905b82821015610c3d5783829060005260206000209060020201604051806040016040529081600082018054610ba290612794565b80601f0160208091040260200160405190810160405280929190818152602001828054610bce90612794565b8015610c1b5780601f10610bf057610100808354040283529160200191610c1b565b820191906000526020600020905b815481529060010190602001808311610bfe57829003601f168201915b5050505050815260200160018201548152505081526020019060010190610b6f565b50505050905080915050919050565b60606000610c58611447565b9050610c7381600060018451610c6e91906128be565b611915565b8091505090565b6000602052806000526040600020600091509050806000018054610c9d90612794565b80601f0160208091040260200160405190810160405280929190818152602001828054610cc990612794565b8015610d165780601f10610ceb57610100808354040283529160200191610d16565b820191906000526020600020905b815481529060010190602001808311610cf957829003601f168201915b5050505050905081565b600080600283604051610d339190612830565b908152602001604051809103902060040154905080915050919050565b60008060008473ffffffffffffffffffffffffffffffffffffffff1673ffffffffffffffffffffffffffffffffffffffff168152602001908152602001600020905060005b8160010180549050811015610e07578280519060200120826001018281548110610dc257610dc16127c5565b5b9060005260206000209060020201600001604051610de09190612991565b604051809103902003610df4575050610eb7565b8080610dff90612876565b915050610d95565b5060005b8160020180549050811015610e76578280519060200120826002018281548110610e3857610e376127c5565b5b90600052602060002001604051610e4f9190612991565b604051809103902003610e63575050610eb7565b8080610e6e90612876565b915050610e0b565b508060020182908060018154018082558091505060019003906000526020600020016000909190919091509080519060200190610eb4929190611d6b565b50505b5050565b60608060005b6001805490508110156110f557600080600060018481548110610ee757610ee66127c5565b5b9060005260206000200160009054906101000a900473ffffffffffffffffffffffffffffffffffffffff1673ffffffffffffffffffffffffffffffffffffffff1673ffffffffffffffffffffffffffffffffffffffff168152602001908152602001600020600101805480602002602001604051908101604052809291908181526020016000905b8282101561103d5783829060005260206000209060020201604051806040016040529081600082018054610fa290612794565b80601f0160208091040260200160405190810160405280929190818152602001828054610fce90612794565b801561101b5780601f10610ff05761010080835404028352916020019161101b565b820191906000526020600020905b815481529060010190602001808311610ffe57829003601f168201915b5050505050815260200160018201548152505081526020019060010190610f6f565b50505050905060005b6001805490508110156110e057818181518110611066576110656127c5565b5b602002602001015160000151805190602001208680519060200120036110cd57818181518110611099576110986127c5565b5b602002602001015184600186516110b091906128be565b815181106110c1576110c06127c5565b5b60200260200101819052505b80806110d890612876565b915050611046565b505080806110ed90612876565b915050610ec1565b5080915050919050565b606060008060008473ffffffffffffffffffffffffffffffffffffffff1673ffffffffffffffffffffffffffffffffffffffff168152602001908152602001600020600001805461114f90612794565b80601f016020809104026020016040519081016040528092919081815260200182805461117b90612794565b80156111c85780601f1061119d576101008083540402835291602001916111c8565b820191906000526020600020905b8154815290600101906020018083116111ab57829003601f168201915b5050505050905080915050919050565b60008060008473ffffffffffffffffffffffffffffffffffffffff1673ffffffffffffffffffffffffffffffffffffffff168152602001908152602001600020905060005b81600101805490508110156112935782600001518051906020012082600101828154811061124e5761124d6127c5565b5b906000526020600020906002020160000160405161126c9190612991565b604051809103902003611280575050611443565b808061128b90612876565b91505061121d565b508060010182908060018154018082558091505060019003906000526020600020906002020160009091909190915060008201518160000190805190602001906112de929190611d6b565b50602082015181600101555050600282600001516040516112ff9190612830565b9081526020016040518091039020600501600081548092919061132190612876565b91905055506113338260000151611aba565b60005b816002018054905081101561144057826000015180519060200120826002018281548110611367576113666127c5565b5b9060005260206000200160405161137e9190612991565b60405180910390200361142d5781600201600183600201805490506113a391906128be565b815481106113b4576113b36127c5565b5b906000526020600020018260020182815481106113d4576113d36127c5565b5b906000526020600020019080546113ea90612794565b6113f5929190611df1565b508160020180548061140a576114096129a8565b5b6001900381819060005260206000200160006114269190611e7e565b9055611440565b808061143890612876565b915050611336565b50505b5050565b6060600060038054905067ffffffffffffffff81111561146a576114696121b1565b5b6040519080825280602002602001820160405280156114a357816020015b611490611d35565b8152602001906001900390816114885790505b50905060005b600380549050811015611701576002600382815481106114cc576114cb6127c5565b5b906000526020600020016040516114e39190612a6b565b90815260200160405180910390206040518060c001604052908160008201805461150c90612794565b80601f016020809104026020016040519081016040528092919081815260200182805461153890612794565b80156115855780601f1061155a57610100808354040283529160200191611585565b820191906000526020600020905b81548152906001019060200180831161156857829003601f168201915b5050505050815260200160018201805461159e90612794565b80601f01602080910402602001604051908101604052809291908181526020018280546115ca90612794565b80156116175780601f106115ec57610100808354040283529160200191611617565b820191906000526020600020905b8154815290600101906020018083116115fa57829003601f168201915b5050505050815260200160028201805461163090612794565b80601f016020809104026020016040519081016040528092919081815260200182805461165c90612794565b80156116a95780601f1061167e576101008083540402835291602001916116a9565b820191906000526020600020905b81548152906001019060200180831161168c57829003601f168201915b5050505050815260200160038201548152602001600482015481526020016005820154815250508282815181106116e3576116e26127c5565b5b602002602001018190525080806116f990612876565b9150506114a9565b508091505090565b611711611d35565b6002826040516117219190612830565b90815260200160405180910390206040518060c001604052908160008201805461174a90612794565b80601f016020809104026020016040519081016040528092919081815260200182805461177690612794565b80156117c35780601f10611798576101008083540402835291602001916117c3565b820191906000526020600020905b8154815290600101906020018083116117a657829003601f168201915b505050505081526020016001820180546117dc90612794565b80601f016020809104026020016040519081016040528092919081815260200182805461180890612794565b80156118555780601f1061182a57610100808354040283529160200191611855565b820191906000526020600020905b81548152906001019060200180831161183857829003601f168201915b5050505050815260200160028201805461186e90612794565b80601f016020809104026020016040519081016040528092919081815260200182805461189a90612794565b80156118e75780601f106118bc576101008083540402835291602001916118e7565b820191906000526020600020905b8154815290600101906020018083116118ca57829003601f168201915b5050505050815260200160038201548152602001600482015481526020016005820154815250509050919050565b6000829050600082905080820361192d575050611ab5565b6000856002868661193e9190612a8c565b6119489190612b4f565b866119539190612bb9565b81518110611964576119636127c5565b5b60200260200101516080015190505b818313611a89575b8086848151811061198f5761198e6127c5565b5b60200260200101516080015111156119b45782806119ac90612c4d565b93505061197b565b5b8582815181106119c8576119c76127c5565b5b6020026020010151608001518111156119ee5781806119e690612c95565b9250506119b5565b818313611a8457858281518110611a0857611a076127c5565b5b6020026020010151868481518110611a2357611a226127c5565b5b6020026020010151878581518110611a3e57611a3d6127c5565b5b60200260200101888581518110611a5857611a576127c5565b5b6020026020010182905282905250508280611a7290612c4d565b9350508180611a8090612c95565b9250505b611973565b81851215611a9d57611a9c868684611915565b5b83831215611ab157611ab0868486611915565b5b5050505b505050565b6000600282604051611acc9190612830565b90815260200160405180910390206040518060c0016040529081600082018054611af590612794565b80601f0160208091040260200160405190810160405280929190818152602001828054611b2190612794565b8015611b6e5780601f10611b4357610100808354040283529160200191611b6e565b820191906000526020600020905b815481529060010190602001808311611b5157829003601f168201915b50505050508152602001600182018054611b8790612794565b80601f0160208091040260200160405190810160405280929190818152602001828054611bb390612794565b8015611c005780601f10611bd557610100808354040283529160200191611c00565b820191906000526020600020905b815481529060010190602001808311611be357829003601f168201915b50505050508152602001600282018054611c1990612794565b80601f0160208091040260200160405190810160405280929190818152602001828054611c4590612794565b8015611c925780601f10611c6757610100808354040283529160200191611c92565b820191906000526020600020905b815481529060010190602001808311611c7557829003601f168201915b50505050508152602001600382015481526020016004820154815260200160058201548152505090506000611cc683610ebb565b9050600080600090505b8251811015611d1857828181518110611cec57611ceb6127c5565b5b60200260200101516020015182611d039190612cdd565b91508080611d1090612876565b915050611cd0565b50815181611d269190612d33565b83608001818152505050505050565b6040518060c001604052806060815260200160608152602001606081526020016000815260200160008152602001600081525090565b828054611d7790612794565b90600052602060002090601f016020900481019282611d995760008555611de0565b82601f10611db257805160ff1916838001178555611de0565b82800160010185558215611de0579182015b82811115611ddf578251825591602001919060010190611dc4565b5b509050611ded9190611ebe565b5090565b828054611dfd90612794565b90600052602060002090601f016020900481019282611e1f5760008555611e6d565b82601f10611e305780548555611e6d565b82800160010185558215611e6d57600052602060002091601f016020900482015b82811115611e6c578254825591600101919060010190611e51565b5b509050611e7a9190611ebe565b5090565b508054611e8a90612794565b6000825580601f10611e9c5750611ebb565b601f016020900490600052602060002090810190611eba9190611ebe565b5b50565b5b80821115611ed7576000816000905550600101611ebf565b5090565b6000604051905090565b600080fd5b600080fd5b600073ffffffffffffffffffffffffffffffffffffffff82169050919050565b6000611f1a82611eef565b9050919050565b611f2a81611f0f565b8114611f3557600080fd5b50565b600081359050611f4781611f21565b92915050565b600060208284031215611f6357611f62611ee5565b5b6000611f7184828501611f38565b91505092915050565b600081519050919050565b600082825260208201905092915050565b6000819050602082019050919050565b600081519050919050565b600082825260208201905092915050565b60005b83811015611fe0578082015181840152602081019050611fc5565b83811115611fef576000848401525b50505050565b6000601f19601f8301169050919050565b600061201182611fa6565b61201b8185611fb1565b935061202b818560208601611fc2565b61203481611ff5565b840191505092915050565b6000819050919050565b6120528161203f565b82525050565b600060c08301600083015184820360008601526120758282612006565b9150506020830151848203602086015261208f8282612006565b915050604083015184820360408601526120a98282612006565b91505060608301516120be6060860182612049565b5060808301516120d16080860182612049565b5060a08301516120e460a0860182612049565b508091505092915050565b60006120fb8383612058565b905092915050565b6000602082019050919050565b600061211b82611f7a565b6121258185611f85565b93508360208202850161213785611f96565b8060005b85811015612173578484038952815161215485826120ef565b945061215f83612103565b925060208a0199505060018101905061213b565b50829750879550505050505092915050565b6000602082019050818103600083015261219f8184612110565b905092915050565b600080fd5b600080fd5b7f4e487b7100000000000000000000000000000000000000000000000000000000600052604160045260246000fd5b6121e982611ff5565b810181811067ffffffffffffffff82111715612208576122076121b1565b5b80604052505050565b600061221b611edb565b905061222782826121e0565b919050565b600067ffffffffffffffff821115612247576122466121b1565b5b61225082611ff5565b9050602081019050919050565b82818337600083830152505050565b600061227f61227a8461222c565b612211565b90508281526020810184848401111561229b5761229a6121ac565b5b6122a684828561225d565b509392505050565b600082601f8301126122c3576122c26121a7565b5b81356122d384826020860161226c565b91505092915050565b6000602082840312156122f2576122f1611ee5565b5b600082013567ffffffffffffffff8111156123105761230f611eea565b5b61231c848285016122ae565b91505092915050565b600082825260208201905092915050565b600061234182611fa6565b61234b8185612325565b935061235b818560208601611fc2565b61236481611ff5565b840191505092915050565b6123788161203f565b82525050565b600060c08201905081810360008301526123988189612336565b905081810360208301526123ac8188612336565b905081810360408301526123c08187612336565b90506123cf606083018661236f565b6123dc608083018561236f565b6123e960a083018461236f565b979650505050505050565b6000806040838503121561240b5761240a611ee5565b5b600061241985828601611f38565b925050602083013567ffffffffffffffff81111561243a57612439611eea565b5b612446858286016122ae565b9150509250929050565b600081519050919050565b600082825260208201905092915050565b6000819050602082019050919050565b600060408301600083015184820360008601526124998282612006565b91505060208301516124ae6020860182612049565b508091505092915050565b60006124c5838361247c565b905092915050565b6000602082019050919050565b60006124e582612450565b6124ef818561245b565b9350836020820285016125018561246c565b8060005b8581101561253d578484038952815161251e85826124b9565b9450612529836124cd565b925060208a01995050600181019050612505565b50829750879550505050505092915050565b6000602082019050818103600083015261256981846124da565b905092915050565b6000602082019050818103600083015261258b8184612336565b905092915050565b60006020820190506125a8600083018461236f565b92915050565b600080fd5b600080fd5b6125c18161203f565b81146125cc57600080fd5b50565b6000813590506125de816125b8565b92915050565b6000604082840312156125fa576125f96125ae565b5b6126046040612211565b9050600082013567ffffffffffffffff811115612624576126236125b3565b5b612630848285016122ae565b6000830152506020612644848285016125cf565b60208301525092915050565b6000806040838503121561266757612666611ee5565b5b600061267585828601611f38565b925050602083013567ffffffffffffffff81111561269657612695611eea565b5b6126a2858286016125e4565b9150509250929050565b600060c08301600083015184820360008601526126c98282612006565b915050602083015184820360208601526126e38282612006565b915050604083015184820360408601526126fd8282612006565b91505060608301516127126060860182612049565b5060808301516127256080860182612049565b5060a083015161273860a0860182612049565b508091505092915050565b6000602082019050818103600083015261275d81846126ac565b905092915050565b7f4e487b7100000000000000000000000000000000000000000000000000000000600052602260045260246000fd5b600060028204905060018216806127ac57607f821691505b6020821081036127bf576127be612765565b5b50919050565b7f4e487b7100000000000000000000000000000000000000000000000000000000600052603260045260246000fd5b600081905092915050565b600061280a82611fa6565b61281481856127f4565b9350612824818560208601611fc2565b80840191505092915050565b600061283c82846127ff565b915081905092915050565b7f4e487b7100000000000000000000000000000000000000000000000000000000600052601160045260246000fd5b60006128818261203f565b91507fffffffffffffffffffffffffffffffffffffffffffffffffffffffffffffffff82036128b3576128b2612847565b5b600182019050919050565b60006128c98261203f565b91506128d48361203f565b9250828210156128e7576128e6612847565b5b828203905092915050565b600081905092915050565b60008190508160005260206000209050919050565b6000815461291f81612794565b61292981866128f2565b94506001821660008114612944576001811461295557612988565b60ff19831686528186019350612988565b61295e856128fd565b60005b8381101561298057815481890152600182019150602081019050612961565b838801955050505b50505092915050565b600061299d8284612912565b915081905092915050565b7f4e487b7100000000000000000000000000000000000000000000000000000000600052603160045260246000fd5b60008190508160005260206000209050919050565b600081546129f981612794565b612a0381866127f4565b94506001821660008114612a1e5760018114612a2f57612a62565b60ff19831686528186019350612a62565b612a38856129d7565b60005b83811015612a5a57815481890152600182019150602081019050612a3b565b838801955050505b50505092915050565b6000612a7782846129ec565b915081905092915050565b6000819050919050565b6000612a9782612a82565b9150612aa283612a82565b9250827f800000000000000000000000000000000000000000000000000000000000000001821260008412151615612add57612adc612847565b5b827f7fffffffffffffffffffffffffffffffffffffffffffffffffffffffffffffff018213600084121615612b1557612b14612847565b5b828203905092915050565b7f4e487b7100000000000000000000000000000000000000000000000000000000600052601260045260246000fd5b6000612b5a82612a82565b9150612b6583612a82565b925082612b7557612b74612b20565b5b600160000383147f800000000000000000000000000000000000000000000000000000000000000083141615612bae57612bad612847565b5b828205905092915050565b6000612bc482612a82565b9150612bcf83612a82565b9250817f7fffffffffffffffffffffffffffffffffffffffffffffffffffffffffffffff03831360008312151615612c0a57612c09612847565b5b817f8000000000000000000000000000000000000000000000000000000000000000038312600083121615612c4257612c41612847565b5b828201905092915050565b6000612c5882612a82565b91507f7fffffffffffffffffffffffffffffffffffffffffffffffffffffffffffffff8203612c8a57612c89612847565b5b600182019050919050565b6000612ca082612a82565b91507f80000000000000000000000000000000000000000000000000000000000000008203612cd257612cd1612847565b5b600182039050919050565b6000612ce88261203f565b9150612cf38361203f565b9250827fffffffffffffffffffffffffffffffffffffffffffffffffffffffffffffffff03821115612d2857612d27612847565b5b828201905092915050565b6000612d3e8261203f565b9150612d498361203f565b925082612d5957612d58612b20565b5b82820490509291505056fea264697066735822122084ad13ffebeb95f3f33d2058654016d7595e9d94afd5406790ac21de7695958c64736f6c634300080d0033496e204765726d616e2d6f6363757069656420506f6c616e6420647572696e6720576f726c64205761722049492c20696e647573747269616c697374204f736b617220536368696e646c6572206772616475616c6c79206265636f6d657320636f6e6365726e656420666f7220686973204a657769736820776f726b666f726365206166746572207769746e657373696e67207468656972207065727365637574696f6e20627920746865204e617a69732e4120626f756e74792068756e74696e67207363616d206a6f696e732074776f206d656e20696e20616e20756e6561737920616c6c69616e636520616761696e7374206120746869726420696e2061207261636520746f2066696e64206120666f7274756e6520696e20676f6c642062757269656420696e20612072656d6f74652063656d65746572792e416e206f7267616e697a6564206372696d652064796e617374792773206167696e6720706174726961726368207472616e736665727320636f6e74726f6c206f662068697320636c616e64657374696e6520656d7069726520746f206869732072656c756374616e7420736f6e2e412074686965662077686f20737465616c7320636f72706f726174652073656372657473207468726f7567682074686520757365206f6620647265616d2d73686172696e6720746563686e6f6c6f677920697320676976656e2074686520696e7665727365207461736b206f6620706c616e74696e6720616e206964656120696e746f20746865206d696e64206f66206120432e452e4f2e47616e64616c6620616e6420417261676f726e206c6561642074686520576f726c64206f66204d656e20616761696e737420536175726f6e27732061726d7920746f2064726177206869732067617a652066726f6d2046726f646f20616e642053616d206173207468657920617070726f616368204d6f756e7420446f6f6d207769746820746865204f6e652052696e672e54776f20696d707269736f6e6564206d656e20626f6e64206f7665722061206e756d626572206f662079656172732c2066696e64696e6720736f6c61636520616e64206576656e7475616c20726564656d7074696f6e207468726f7567682061637473206f6620636f6d6d6f6e20646563656e63792e546865206c69766573206f662074776f206d6f62206869746d656e2c206120626f7865722c20612067616e677374657220616e642068697320776966652c20616e6420612070616972206f662064696e65722062616e6469747320696e7465727477696e6520696e20666f75722074616c6573206f662076696f6c656e636520616e6420726564656d7074696f6e2e546865204c6f7264206f66207468652052696e67733a205468652052657475726e206f6620746865204b696e675468652073746f7279206f662061206d616e20776974682061206c6f772049512077686f206163636f6d706c6973686564206772656174207468696e677320696e20686973206c6966652e5768656e20746865206d656e616365206b6e6f776e20617320746865204a6f6b657220777265616b73206861766f6320616e64206368616f73206f6e207468652070656f706c65206f6620476f7468616d2c204261746d616e206d75737420616363657074206f6e65206f66207468652067726561746573742070737963686f6c6f676963616c20616e6420706879736963616c207465737473206f6620686973206162696c69747920746f20666967687420696e6a7573746963652e41206a75727920686f6c646f757420617474656d70747320746f2070726576656e742061206d69736361727269616765206f66206a75737469636520627920666f7263696e672068697320636f6c6c65616775657320746f207265636f6e7369646572207468652065766964656e63652e",
  "immutableReferences": {},
  "source": "// SPDX-License-Identifier: MIT\n// Tells the Solidity compiler to compile only from v0.8.13 to v0.9.0\npragma solidity ^0.8.13;\n\n// This is just a simple example of a coin-like contract.\n// It is not ERC20 compatible and cannot be expected to talk to other\n// coin/token contracts.\n\ncontract User {\n\tstruct Review {\n\t\tstring idMovie;\n\t\tuint rating;\n\t}\n\n\tstruct UserInfo {\n\t\tstring username;\n\t\tReview[] reviews;\n\t\tstring[] idMoviesToWatch;\n\t}\n\n\tstruct Movie {\n\t\tstring id;\n\t\tstring title;\n\t\tstring description;\n\t\tuint releaseYear;\n\t\tuint averageRating;\n\t\tuint numberOfRatings;\n\t}\n\n\tconstructor() {\n        addMovie(\"1\", Movie(\"1\", \"The Shawshank Redemption\", \"Two imprisoned men bond over a number of years, finding solace and eventual redemption through acts of common decency.\", 1994, 10, 5));\n        addMovie(\"2\", Movie(\"2\", \"The Godfather\", \"An organized crime dynasty's aging patriarch transfers control of his clandestine empire to his reluctant son.\", 1972, 9, 10));\n        addMovie(\"3\", Movie(\"3\", \"The Dark Knight\", \"When the menace known as the Joker wreaks havoc and chaos on the people of Gotham, Batman must accept one of the greatest psychological and physical tests of his ability to fight injustice.\", 2008, 9, 8));\n        addMovie(\"4\", Movie(\"4\", \"12 Angry Men\", \"A jury holdout attempts to prevent a miscarriage of justice by forcing his colleagues to reconsider the evidence.\", 1957, 8, 3));\n        addMovie(\"5\", Movie(\"5\", \"Schindler's List\", \"In German-occupied Poland during World War II, industrialist Oskar Schindler gradually becomes concerned for his Jewish workforce after witnessing their persecution by the Nazis.\", 1993, 8, 5));\n    \taddMovie(\"6\", Movie(\"6\", \"The Lord of the Rings: The Return of the King\", \"Gandalf and Aragorn lead the World of Men against Sauron's army to draw his gaze from Frodo and Sam as they approach Mount Doom with the One Ring.\", 2003, 8, 6));\n        addMovie(\"7\", Movie(\"7\", \"Pulp Fiction\", \"The lives of two mob hitmen, a boxer, a gangster and his wife, and a pair of diner bandits intertwine in four tales of violence and redemption.\", 1994, 8, 6));\n        addMovie(\"8\", Movie(\"8\", \"The Good, the Bad and the Ugly\", \"A bounty hunting scam joins two men in an uneasy alliance against a third in a race to find a fortune in gold buried in a remote cemetery.\", 1966, 8, 6));\n        addMovie(\"9\", Movie(\"9\", \"Forrest Gump\", \"The story of a man with a low IQ who accomplished great things in his life.\", 1994, 8, 6));\n        addMovie(\"10\", Movie(\"10\", \"Inception\", \"A thief who steals corporate secrets through the use of dream-sharing technology is given the inverse task of planting an idea into the mind of a C.E.O.\", 2010, 8, 6));\n\t}\n\n\tmapping (address => UserInfo) public wallets;\n\taddress[] addressArray;\n\tmapping (string => Movie) public movies;\n\tstring[] idArray;\n\n\n\tfunction addUser(address wallet, string memory username) public { // modifi\n\t\twallets[wallet].username = username;\n\t\taddressArray.push(wallet);\n\t}\n\n\tfunction getUsername(address wallet) public view returns(string memory) {\n\t\tstring memory username = wallets[wallet].username;\n\n\t\treturn username;\n\t}\n\n\tfunction addReview(address wallet, Review memory review) public {\n\t\tUserInfo storage user = wallets[wallet];\n\n\t\tfor (uint i = 0; i < user.reviews.length; i++) {\n            if (keccak256(bytes(user.reviews[i].idMovie)) == keccak256(bytes(review.idMovie))) {\n                return;\n            }\n        }\n\n\t\tuser.reviews.push(review);\n\t\tmovies[review.idMovie].numberOfRatings++;\n\t\tcalculateRating(review.idMovie);\n\n\t\tfor (uint i = 0; i < user.idMoviesToWatch.length; i++) {\n\t\t\tif (keccak256(bytes(user.idMoviesToWatch[i])) == keccak256(bytes(review.idMovie))) {\n\t\t\t\tuser.idMoviesToWatch[i] = user.idMoviesToWatch[user.idMoviesToWatch.length - 1];\n\n\t\t\t\tuser.idMoviesToWatch.pop();\n\t\t\t\tbreak;\n\t\t\t}\n\t\t}\n\t}\n\n\tfunction addToWatchlist(address wallet, string memory idMovie) public {\n\t\tUserInfo storage user = wallets[wallet];\n        \n        for (uint i = 0; i < user.reviews.length; i++) {\n            if (keccak256(bytes(user.reviews[i].idMovie)) == keccak256(bytes(idMovie))) {\n                return;\n            }\n        }\n        \n        for (uint i = 0; i < user.idMoviesToWatch.length; i++) {\n            if (keccak256(bytes(user.idMoviesToWatch[i])) == keccak256(bytes(idMovie))) {\n                return;\n            }\n        }\n\n        user.idMoviesToWatch.push(idMovie);\n\t}\n\n\tfunction getWatchlist(address wallet) public view returns (Movie[] memory) {\n\t\tUserInfo memory user = wallets[wallet];\n\t\tuint256 watchlistLength = user.idMoviesToWatch.length;\n\t\tMovie[] memory watchlist = new Movie[](watchlistLength);\n\t\t\n\t\tfor (uint256 i = 0; i < watchlistLength; i++) {\n\t\t\twatchlist[i] = movies[user.idMoviesToWatch[i]];\n\t\t}\n\n    \treturn watchlist;\n\t}\n\n\n\tfunction getReviews(address wallet) public view returns(Review[] memory) {\n\t\tReview[] memory reviews = wallets[wallet].reviews;\n\n\t\treturn reviews;\n\t}\n\n\tfunction getReviewsForMovie(string memory movieId) public view returns(Review[] memory) {\n\t\tReview[] memory movieReviews;\n        for (uint256 i = 0; i < addressArray.length; i++) {\n\t\t\tReview[] memory reviews = wallets[addressArray[i]].reviews;\n\t\t\tfor (uint256 j = 0; j < addressArray.length; j++) {\n\t\t\t\tif (keccak256(bytes(movieId)) == keccak256(bytes(reviews[j].idMovie))) {\n\n\t\t\t\t\tmovieReviews[movieReviews.length - 1] = reviews[j];\n\t\t\t\t}\n\t\t\t}\n        }\n\t\treturn movieReviews;\n\t}\n\n\tfunction getMovie(string memory id) public view returns(Movie memory) {\n\t\treturn movies[id];\n\t}\n\n\tfunction getAllMovies() public view returns(Movie[] memory) {\n\t\tMovie[] memory allMovies = new Movie[](idArray.length);\n        for (uint256 i = 0; i < idArray.length; i++) {\n            allMovies[i] = movies[idArray[i]];\n        }\n\t\treturn allMovies;\n\t}\n\n\tfunction getTopRated() public view returns(Movie[] memory){\n\t\tMovie[] memory allMovies = getAllMovies();\n\n\t\tquickSort(allMovies, int(0), int(allMovies.length - 1));\n\n\t\treturn allMovies;\n\t}\n\n\n\tfunction getAverageRating(string memory idMovie) public view returns(uint) {\n\t\tuint averageRating = movies[idMovie].averageRating;\n\n\t\treturn averageRating;\n\t}\n\n\t// The functions below are private and are therefore only used within the context of the contract itself\n\n\tfunction calculateRating(string memory id) private view {\n\t\tMovie memory movie = movies[id];\n\t\tReview[] memory reviews = getReviewsForMovie(id);\n\t\tuint movieRatings;\n\n\t\tfor (uint256 i = 0; i < reviews.length; i++) {\n            movieRatings += reviews[i].rating;\n        }\n\n\t\tmovie.averageRating = movieRatings / reviews.length;\n\t}\n\n\tfunction addMovie(string memory id, Movie memory movie) private {\n\t\tmovies[id] = movie;\n\t\tidArray.push(id);\n\t}\n\n\tfunction deleteMovie(string memory id) private {\n\t\tdelete(movies[id]);\n\t\t    for (uint i = 0; i < idArray.length; i++) {\n\t\t\t\tif (keccak256(bytes(idArray[i])) == keccak256(bytes(id))) {\n\t\t\t\t\tidArray[i] = idArray[idArray.length - 1];\n\t\t\t\t\tidArray.pop();\n\t\t\t\t\tbreak;\n            }\n        }\n\t}\n\n\tfunction quickSort(Movie[] memory arr, int left, int right) internal pure {\n\t\tint i = left;\n\t\tint j = right;\n\t\tif (i == j) return;\n\t\tuint pivot = arr[uint(left + (right - left) / 2)].averageRating;\n\t\twhile (i <= j) {\n\t\t\twhile (arr[uint(i)].averageRating > pivot) i++;\n\t\t\twhile (pivot > arr[uint(j)].averageRating) j--;\n\t\t\tif (i <= j) {\n\t\t\t\t(arr[uint(i)], arr[uint(j)]) = (arr[uint(j)], arr[uint(i)]);\n\t\t\t\ti++;\n\t\t\t\tj--;\n\t\t\t}\n\t\t}\n\t\tif (left < j) quickSort(arr, left, j);\n\t\tif (i < right) quickSort(arr, i, right);\n\t}\n}\n",
  "sourcePath": "/home/mathieu/poly/hackathon/web3/web3-app/backend/contracts/User.sol",
  "compiler": {
    "name": "solc",
    "version": "0.8.13+commit.abaa5c0e.Emscripten.clang"
  },
  "schemaVersion": "3.4.16",
  "updatedAt": "2024-03-31T05:36:07.322Z",
  "networkType": "ethereum",
  "devdoc": {
    "kind": "dev",
    "methods": {},
    "version": 1
  },
  "userdoc": {
    "kind": "user",
    "methods": {},
    "version": 1
  }
}